:020000040001F9
:10F00000C0D70020E9F40100F1F40100B5F40100DB
:10F01000F5F40100F7F40100F9F40100000000002C
:10F0200000000000000000000000000015F40100D6
:10F03000FDF401000000000059F4010001F5010099
:10F04000F1FC010003F50100A9050200D102020054
:10F05000E502020003F50100B9F90100FDFD010020
:10F0600003F5010003F5010003F5010003F50100BC
:10F0700003F5010003F5010003F5010003F50100AC
:10F0800003F501007DFD010003F5010003F501001A
:10F0900003F5010003F501001103020003F501006F
:10F0A00003F5010003F5010003F5010003F501007C
:10F0B00041FD010003F50100000000000000000018
:10F0C00003F5010055FD010069FD0100F902020090
:10F0D00003F5010003F5010003F501000000000045
:10F0E0000000000000000000000000000000000020
:10F0F0000000000000000000000000000000000010
:10F1000000000000000000000000000000000000FF
:10F1100000000000000000000000000000000000EF
:10F40000DFF80CD000F08CFA00480047619602004B
:10F41000C0D70020264B19680868B0E8F04F80F389
:10F420000988BFF36F8F4FF0000080F31188704799
:10F43000000000000748006880F3088862B661B6E3
:10F44000BFF34F8FBFF36F8F4FF4F07080F31188CD
:10F4500000DF000000F00100EFF30980BFF36F8FC1
:10F46000134B1A681EF0100F08BF20ED108A20E918
:10F47000F04F106008B44FF0200080F31188BFF304
:10F480004F8FBFF36F8F16F033FC4FF0000080F307
:10F49000118808BC19680868B0E8F04F1EF0100F1A
:10F4A00008BFB0EC108A80F30988BFF36F8F7047F4
:10F4B00054280020094B1EF0040F1CBFEFF30980F5
:10F4C0001847EFF308800649064A884201D890425F
:10F4D00002D88D464FF0000018470000F1FB0100F4
:10F4E000C0D70020C0CF002006488047064800470C
:10F4F000FEE7FEE7FEE7FEE7FEE7FEE7FEE7FEE7E4
:10F50000FEE7FEE75103020001F4010000487047E6
:10F510001472030040EA01039B0703D009E008C905
:10F52000121F08C0042AFAD203E011F8013B00F8C8
:10F53000013B521EF9D27047D2B201E000F8012B14
:10F54000491EFBD270470022F6E710B513460A4663
:10F5500004461946FFF7F0FF204610BD421C10F884
:10F56000011B0029FBD1801A704730B504460020EA
:10F57000034600E05B1C934203D2E05CCD5C401B81
:10F58000F8D030BD034611F8012B00F8012B002AFA
:10F59000F9D11846704730B505460020034600E013
:10F5A0005B1C934205D2EC5CC85C201A01D1002C94
:10F5B000F6D130BD2DE9FE4F81EA030404F000448A
:10F5C00021F0004100944FF0000B23F0004350EA7B
:10F5D00001045ED052EA03045BD0C3F30A54C1F3C2
:10F5E0000A552C44A4F2F3340194A0FB0254C1F355
:10F5F000130141F48011C3F3130343F4801301FB9F
:10F60000024400FB034E840A970A44EA815447EA05
:10F610008357A4FB076802958D0A05FB07854FEA0F
:10F62000932C04FB0C542705029D4FEA065847EA29
:10F630001637B5EB08056EEB070C870E920E47EAFE
:10F64000811742EA8312A7FB0201B6EB0B0164EBC0
:10F6500000042B0D43EA0C335E1844EB1C50DA46D1
:10F660005146E7FB0201C5F313044FEA0B3343EAAB
:10F6700014534FEA0432019C43EA0603A4F10C043C
:10F680000294009CCDE900B400F0FCF803B0BDE8A2
:10F69000F08F00200146F9E72DE9F04D81EA0304DF
:10F6A00004F0004B21F0004514464FF0000A23F00F
:10F6B000004150EA050220D054EA01021DD0C5F3F2
:10F6C0000A570246C5F31303C1F31300C1F30A56E8
:10F6D00040F4801543F48013A7EB0608101BD646B0
:10F6E00008F2FD3873EB050002D308F1010801E0D0
:10F6F00092185B41B8F1000F03DA00200146BDE823
:10F70000F08D00204FF48011064684460EE0171B52
:10F7100073EB050705D3121B63EB050306434CEAA5
:10F72000010C49084FEA300092185B4150EA01078A
:10F73000EDD152EA030012D082EA040083EA050107
:10F74000084305D0101BAB4106D20122002306E07E
:10F7500000224FF0004302E06FF0010253101AEB59
:10F7600006004CEB085110EB0A0041EB0B01BDE821
:10F77000F04D00F078B80EB5C10F80EAE070084493
:10F78000CA07002140F233438DE80E000A460B46BB
:10F7900000F078F803B000BD0EB540F2334102919D
:10F7A0000021CDE900110A460B4600F06BF803B0CA
:10F7B00000BDC1F30A5210B5C1F3130140F2FF338B
:10F7C00041F480119A4201DA002010BD40F2334327
:10F7D0009A42A2F2334203DC524200F034F810BDE8
:10F7E000904010BD2DE9F05F0546002092469B46F3
:10F7F00088460646814640241BE028464146474647
:10F80000224600F020F853465A46C01A914110D3C0
:10F8100011461846224600F095F82D1A67EB0108AC
:10F820004F4622460120002100F08CF817EB00091A
:10F830004E41201EA4F10104DFDC484631462A4631
:10F840004346BDE8F09F202A04DB203A21FA02F06B
:10F850000021704721FA02F3D040C2F1200291400A
:10F8600008431946704710B5141E73F1000408DAF6
:10F87000401C41F1000192185B411A4301D120F074
:10F88000010010BD2DE9F04D92469B4611B1B1FA31
:10F8900081F202E0B0FA80F22032904600F052F895
:10F8A00004460F4640EA0A0041EA0B0153465A4615
:10F8B000084313D0114653EA010019D0C8F14002A1
:10F8C0005046FFF7C0FF05460E4650465946424691
:10F8D00000F038F8084305D0012004E020463946FE
:10F8E000BDE8F08D0020054346EAE0762C4337431F
:10F8F0000A986305E40AA0EB08000022FD0A44EA26
:10F9000047540A3002D500200146E9E701051019E5
:10F910006941DDE9084500196941BDE8F04DA2E7FC
:10F92000064C074D06E0E06840F0010394E807004C
:10F9300098471034AC42F6D3FFF766FDC07503005C
:10F94000E0750300202A04DB203A00FA02F10020CF
:10F9500070479140C2F1200320FA03F3194390400D
:10F96000704770B58C1810F8015B15F0070301D1D2
:10F9700010F8013B2A1106D110F8012B03E010F812
:10F98000016B01F8016B5B1EF9D12B0705D4002335
:10F99000521E0DD401F8013BFAE710F8013BCB1AD7
:10F9A000921C03E013F8015B01F8015B521EF9D5CC
:10F9B000A142D8D3002070BD2DE9F04F89B04FF09F
:10F9C0000008002008904FF4807007900126002462
:10F9D00013E007980CF090FC48B100BF8148006824
:10F9E000304020B107980CF079FC48EA0608760010
:10F9F0000798001D80B20790641C082CE9D34FF4CF
:10FA0000BE700CF079FC50B14FF4BE700CF066FC87
:10FA100048F0004808AA012100200CF045FC08F03D
:10FA2000FF0000B3012600241BE006EA0800B0B185
:10FA300000BF6D4850F82400C0F30420074600BF03
:10FA4000694850F82400C0F301408146204606F082
:10FA50006DF8054615B149463846A84700BF7600FF
:10FA6000641C082CE1D308F0004000287ED0002060
:10FA700006900590002505E04FF0FF3004A941F8FD
:10FA800025006D1C002DF7D000BF0020069000243B
:10FA90006FE05648005D0390039820F0C00753487C
:10FAA0000057401C002863D004A938460BF0ACF97D
:10FAB00000285DD003984FEA901A384606F07EF889
:10FAC000814606F033F80290029810B9BAF1030F9C
:10FAD0004BD1BAF1030F11D1394605A80246CB0824
:10FAE00001F0070112F803C04FF0010E0EFA01FEFB
:10FAF0004CEA0E0C02F803C000BF00BF00BF00BFFD
:10FB00004FF0A041084600F5E06151F82710C1F31D
:10FB1000014900BF08A938460BF076F98346BBF1CE
:10FB2000000F02D0B9F1020F05D0BBF1000F1BD1BD
:10FB3000B9F1030F18D1BAF1030F0FD1B9F1020FC8
:10FB400001D1032000E002200190384601990CF019
:10FB5000F0FA0698401CC0B2069000BF029818B197
:10FB600051463846029A904700BF00E036E000BF99
:10FB7000641C042C8DD3069858B3012703AA0121D5
:10FB800000200CF091FB00250AE003A850F82500A6
:10FB900008A951F82510884201D0002702E06D1C09
:10FBA000002DF2D000BF17B10020069010E0002514
:10FBB0000CE003A850F8250008A941F8250005A885
:10FBC00050F8250004A941F825006D1C002DF0D047
:10FBD00000BF069800287FF458AF00BF09B0BDE809
:10FBE000F08F00000463004010650040EC630020CB
:10FBF000044609A10120A2690CF070FE00BF0CF0C0
:10FC000047FD00BF00BF0CF049FD0028FBD100BF3D
:10FC100000BF204600F012F8484152444641554C7E
:10FC2000543A4552524F523A486172646661756C5B
:10FC3000742050433A25780D0A00000000BF00BF31
:10FC400000BF00BF00BFBFF34F8F00BF00BF00BFAA
:10FC50000948006800F4E06008490843001D0649AF
:10FC6000086000BF00BF00BFBFF34F8F00BF00BFE1
:10FC700000BF00BF00BFFDE70CED00E00000FA058B
:10FC800000F01F0201219140024A430942F823106B
:10FC90007047000080E100E000F01F020121914068
:10FCA0004209920002F1E022C2F800117047000000
:10FCB00000BF00BF00BFBFF34F8F00BF00BF00BF3A
:10FCC0000948006800F4E06008490843001D06493F
:10FCD000086000BF00BF00BFBFF34F8F00BF00BF71
:10FCE00000BF00BF00BFFDE70CED00E00000FA051B
:10FCF00010B54FF480700BF009F960B14FF48070CB
:10FD00000BF00DF901200BF013F901200B4948709D
:10FD1000002006F0D1F84FF482700BF0F7F858B1DC
:10FD20004FF482700BF0FBF802200BF001F9012078
:10FD30000249887006F0C0F810BD000088630020FA
:10FD400010B50249024808F063FB10BDB8640020FA
:10FD500000C0014010B50249024808F059FB10BD2F
:10FD6000C06400200010024010B50249024808F0AB
:10FD70004FFB10BDC8640020002002402DE9F04177
:10FD80004FF4A0711A480CF037FF002400BF00BFE9
:10FD9000EFF311800546202000F032FE00BF2E4612
:10FDA00000BF1448006807464FF4807110480CF0FB
:10FDB00023FF16F021FE381A20F07F45012D04D9CB
:10FDC00016F00AFE022800D0012502E016F020FEFF
:10FDD0000443281EA5F10105F8D124B14FF080504D
:10FDE0000549086040BF304600F00AFEBDE8F081DA
:10FDF000001001400415014004ED00E0FEB54FF491
:10FE000082700CF01DFF002837D04FF482700CF088
:10FE100021FF6C4890F82E0018B16A4890F82F0026
:10FE200058B300208DF8000066484068019065488E
:10FE30000189ADF80810C06818B90020614908743C
:10FE400012E06048008B5F4948830846C0684860FC
:10FE50000846008B08810020C860084690F82E00F4
:10FE600010B900200CF00EFF56480168684688471C
:10FE70000020544981F82F0000BF524890F82E000E
:10FE8000002852D04FF480700CF0DAFE00284CD0DD
:10FE90004FF480700CF0DEFE4A48408B494991F8DF
:10FEA0002D10884216DD4748408B464991F82D10A9
:10FEB000401A444948830A4612890B465B8BD21A82
:10FEC0000B465B6803EB42000A4692F82D100CF0DB
:10FED000A3FE23E03B48408B3A4991F82D1088421D
:10FEE0000FD13848C06860B10120364981F82F0031
:10FEF000002048830A4692F82D10D0680CF08CFE42
:10FF00000CE03048408B2F4991F82D10884205D1E4
:10FF100001202C4981F82F00002048834FF4827083
:10FF20000CF098FE04200CF0ADFE4FF488700CF03D
:10FF300087FE70B14FF488700CF08CFE00202149D0
:10FF4000087402208DF8000008460168684688475A
:10FF500000BF4FF48A700CF073FE38B14FF48A7012
:10FF60000CF078FE0020174908742AE0154845690E
:10FF700024E0B5FA85F64FF00040F0408543B0002C
:10FF800000F58C7420460CF05BFEB8B120460CF0F6
:10FF900061FE01208DF80000A4F58C70C0F3C7004D
:10FFA0008DF80400A4F58C70012121EA90018DF8F0
:10FFB0000510044801686846884700BF002DD8D165
:10FFC00000BFFEBD646400202DE9FC4104460D46DF
:10FFD000164600BF0C48007808B900F0F7FA00BFD9
:10FFE000002001900090684601F0E4FD3246294669
:10FFF000204600F00BF8074600BF9DF8000001F016
:020000040002F8
:10000000DFFD3846BDE8FC817C8800202DE9F04703
:10001000074688461646C24607EB47011B4800EBD9
:10002000C109D9F8140020B1012811D0022826D125
:100030001EE0484600F000FB0546B54201D2002410
:1000400005E0344632465146484600F04AFC18E086
:10005000484600F0F1FA0546B54201D2284600E0D4
:100060003046044622465146484600F03AFC08E035
:1000700032465146484600F0FBFB044601E00024AE
:1000800000BF00BF2046BDE8F08700009488002034
:1000900070B505460C462046FFF760FA0646324624
:1000A00021462846FFF790FF70BD0FB438B50446CF
:1000B00006A800906A462046059900F003F838BC6F
:1000C0005DF814FB2DE9F04F99B082460D461446B9
:1000D00003A814904020159000201690CDF860A041
:1000E000179000BF2E786D1C06B9DDE0252E79D162
:1000F00000274FF0010900BF2E78232E12D02B2E9F
:100100000CD02D2E02D0302E10D103E047F0010785
:100110006D1C0EE047F002076D1C0AE047F0040773
:100120006D1C06E047F008076D1C02E04FF0000967
:1001300000BF00BFB9F1000FDED14FF0000800BFD3
:100140002E78302E01DB392E00DD07E06D1CA6F184
:10015000300008EB880100EB4108F1E700BF002008
:1001600013902E782E2E12D16D1C00BF2E78302EBB
:1001700001DB392E00DD09E06D1CA6F1300013997A
:1001800001EB810100EB41001390EFE700BF2E78F7
:1001900000BF6C2E01D0682E02D12E786D1C00E0BD
:1001A00000E0F6E700BF702E5DD008DC252E6AD097
:1001B000582E35D0632E09D0642E69D113E0732EEA
:1001C0003CD0752E1DD0782E62D128E02168081D04
:1001D0002060D1F8009009F0FF0B594614A800F0F8
:1001E00025FB56E058E02168081D2060D1F80090FA
:1001F000CDE900870A22494614A8139B00F02AFA89
:1002000047E02168081D2060D1F80090CDE9008703
:100210000A22494614A8139B00F092FA39E000BF65
:100220002168081D2060D1F80090CDE900871022D8
:10023000494614A8139B00F083FA2AE02168081DA0
:100240002060D1F800B000BF9BF800600BF1010BFB
:1002500006B906E0314614A800F0E8FA179800281D
:10026000F2DA00BF15E02168081D2060D1F8009087
:10027000002008210B461022CDE90010494614A8A1
:1002800000F05EFA05E0252114A800F0CFFA00E0A6
:1002900000BF00BF6D1C03E0314614A800F0C6FA91
:1002A00017980028BFF61EAF00BF179800280ADD78
:1002B000169820B103A95046169AFFF785FEDDE98E
:1002C000161008441790179819B0BDE8F08F000079
:1002D00010B50249024808F0FFF810BD1464002070
:1002E0000030004010B503494FF0402008F0F4F80A
:1002F00010BD00003C64002010B5034C21460348AB
:1003000008F0D8F810BD00009464002000300240CE
:1003100070B50A48006868B108480068804704461C
:1003200000BF254625B100BF284601F035FB00BFC0
:1003300000BF01E007F074FF70BD00009C290020A1
:1003400001480249086070470090D003382C002013
:1003500010B506F079F810B186488749486706F06D
:100360008BF828B185480068C0F3423084490860A2
:1003700006F0ACF828B18348006820F0807081490D
:10038000086006F0BBF848B100207F4908604FF0D4
:100390008041C1F810017A49091F086006F0D8F8B9
:1003A00018B1032076496431086006F0E9F868B1B5
:1003B00005207649086001207449783108600020E2
:1003C0007249083108603F20091F086006F0F0F804
:1003D000002855D06E4800686E4908606C48001DC2
:1003E0000068091D08606A4808300068091D086037
:1003F00067480C300068091D0860654810300068C7
:10040000091D0860624814300068091D08606048D2
:10041000183000685F49203108605D481C30006872
:10042000091D08605A4820300068091D08605848B6
:1004300024300068091D0860554828300068091DEF
:10044000086053482C300068091D0860504830305F
:1004500000685049403108604D4834300068091D3B
:1004600008604B4838300068091D086048483C3037
:100470000068091D0860464840300068091D086092
:1004800005F0B8FF30B13D481430006800F04F006F
:10049000414908603B487438006840F470003949AD
:1004A0007439086000BF00BF00BFBFF34F8F00BFAB
:1004B00000BF00BF00BF00BF00BFBFF36F8F00BF12
:1004C00000BF00BF3548006800F00100F0B1012016
:1004D0003349086000BF334800680028FBD02F482C
:1004E000006820F001004FF01021C1F80C0200BF9D
:1004F0002C4800680028FBD000202949086000BF74
:10050000284800680028FBD0FFF7D2FB23480C38AE
:10051000006800F0004028B920480838006800F062
:10052000004018B301201E49086000BF1D48006844
:100530000028FBD0152019490C39086000BF194864
:1005400000680028FBD0152114480838016000BF5E
:10055000144800680028FBD000201149086000BF43
:10056000104800680028FBD0FFF7A2FBFFF7E8FE69
:1005700010BD00000DF0ADBA00C0074044020010ED
:100580003C050040FCED00E00C010040105600402E
:100590000404001020C50040E40E00400C120010BE
:1005A00004E5014000E4014010B50648007F20B199
:1005B0000449054814F0B1FC03E00249024814F074
:1005C0000BFC10BDF46300200020004010B5114C5E
:1005D00002202061606110A0A0611249E161402108
:1005E00021620021A1626162E1620BA0A0640E4958
:1005F000E164102121650021A1656165E1650BA120
:10060000E01DFEF7BFFF0AA12046FEF7BBFF20203A
:10061000A07110BD7C8800205465726D696E616C9C
:10062000000000002C8800206C88002052545400E8
:10063000534547474552000010B501460A69CB684B
:100640009A4204D88C68641EE41AA01801E0D41AF7
:10065000601E10BD2DE9FC5F06460F469246984687
:10066000DDE90C45002F01DA784200E03846834688
:100670004FF0010903E09BFBFAFB09F10109D345A7
:10068000F9DAC84500D9C14634B1002F03DB05F0C3
:100690000400042800D1641E05F0020010B1B8F176
:1006A000000F11D005F0010070B96CB108E0641EB4
:1006B0002021304600F0BAF8F068002800DA02E0A5
:1006C0000CB1A145F3D300BFF068002836DB002F42
:1006D00005DA7F422D21304600F0A8F807E005F04A
:1006E0000400042803D12B21304600F09FF8F06865
:1006F000002823DB05F00200022814D105F00100D8
:1007000088B9B8F1000F0ED16CB108E0641E302139
:10071000304600F08BF8F068002800DA02E00CB1F7
:10072000A145F3D300BFF068002807DB43465246DB
:1007300039463046CDE9004500F002F8BDE8FC9F9F
:100740002DE9FC5F8046894615461E460C9CCDF877
:1007500004900127BB4605E00198B0FBF5F001903D
:100760000BF1010B0198A842F6D25E4500D9B346C1
:100770000D9800F00100D0B9CCB10D9800F0020046
:10078000022803D116B93020009001E0202000900B
:1007900009E0641E4046009900F048F8D8F80C00C3
:1007A000002800DA02E00CB1A345F2D300BFD8F86C
:1007B0000C00002835DB09E0012E01D9761E04E08B
:1007C000B9FBF7FAAA4500D201E06F43F4E700BF96
:1007D00000BFB9FBF7FA0AFB1799134810F80A1083
:1007E000404600F023F8D8F80C00002800DA03E0B7
:1007F000B7FBF5F7002FECD100BF0D9800F001001A
:1008000078B174B109E0641E2021404600F00EF872
:10081000D8F80C00002800DA02E00CB1A345F2D3AE
:1008200000BFBDE8FC9F00007C70030070B504466B
:100830000E46A568681C6168814206D3206846554B
:10084000681CA060E068401CE060D4E901108842A8
:100850000DD1A26821682069FFF7B6FBA168884224
:1008600003D04FF0FF30E06001E00020A06070BDD9
:100870002DE9F0470446894617464FF0000AE5681F
:1008800000BFD4F81080A84503D9A8EB0500461E88
:1008900004E0A5EB0800401CA1680E1AA068401BEC
:1008A000B04201D9304601E0A068401B0646BE4276
:1008B00001D2304600E038460646616848193246A3
:1008C0004946FEF727FEB244B144BF1B3544A06839
:1008D000A84200D10025E560002FD2D15046BDE8E6
:1008E000F0872DE9F047044689461546E668A0687A
:1008F000871BAF4208D9616888192A464946FEF726
:1009000009FE7019E06010E0B84661688819424637
:100910004946FEF7FFFDA5EB070809EB0701424634
:100920006068FEF7F7FDC4F80C80BDE8F0870000B2
:100930000FB41CB50246002007AC00290BD0491E9D
:10094000CDE90021054B6A462146069800F064F87F
:10095000009A002111701CBC5DF814FB7B0E020094
:100960000FB4084B10B504A902AA039800F054F87C
:10097000044602A9002000F08BFA204610BC5DF866
:1009800014FB0000910E020002E008C8121F08C10B
:10099000002AFAD170477047002001E001C1121F00
:1009A000002AFBD1704700000146202908DA012007
:1009B00088400A4A104008B1012070470020FCE737
:1009C000402909DAA1F12000012202FA00F008B161
:1009D0000120F2E70020F0E70120EEE7FC06FFBD72
:1009E00000BFEFF31081084672B6704700BFEFF307
:1009F0001081084672B67047C1B281F31188704702
:100A0000C1B281F311887047C1B281F31188704778
:100A1000C1B281F3118870472DE9FF4F8DB00F46A9
:100A20000546002606E025280BD0DDE90F12904789
:100A30006D1C761C28780028F5D111B03046BDE831
:100A4000F08F0024A246A1460122EC4900E00443B5
:100A500015F8013F203B02FA03F00842F7D128784D
:100A60002A2810D06FF02F022878A0F13001092930
:100A700014D80AEB8A0102EB410144F0020400EBB6
:100A8000010A6D1CF0E701CF5FEA000A03D544F4C8
:100A90000054CAF1000A44F002046D1C28782E2884
:100AA00017D115F8010F44F004042A280ED06FF076
:100AB0002F022878A0F1300109290AD809EB890111
:100AC00002EB410100EB01096D1CF2E757F8049BB2
:100AD0006D1C28786C280FD006DC4C2817D06828AD
:100AE0000DD06A2814D104E0742810D07A280FD1D0
:100AF0000DE044F400140AE044F4801401E044F4EE
:100B000040146978814202D104F580146D1C6D1C7B
:100B10002A786E2A1FD00CDC632A31D004DC002A2C
:100B20008BD0582A11D1A3E0642A68D0692A0CD14D
:100B300065E0732A2ED004DC6F2A73D0702A04D1AA
:100B40009BE0752A6FD0782A6ED01046DDE90F122F
:100B50009047761C50E1C4F30250022806D00328C7
:100B600009D0042801CF09D0066045E101CFF11773
:100B7000C0E9006140E101CF06803DE106703BE144
:100B800017F8040B8DF8000000208DF80100EB46EB
:100B9000012003E057F804BB4FF0FF3061074FF02E
:100BA000000102D40DE008F10101884649450FDA41
:100BB0008045F8DB1BF808100029F4D108E008F1A3
:100BC000010188468142FADB1BF808100029F6D1A2
:100BD000DDE90F23AAEB08008146214600F036F933
:100BE000304400EB080604E0DDE90F121BF8010BAE
:100BF0009047B8F10108F7D221464846F7E00A21AC
:100C0000C4F302534FF0000B0891022B04D001CF24
:100C1000C117032B09D00AE0FF1D27F00707F7E8EB
:100C2000020108E032E01FE020E000B2C117042B0F
:100C300001D140B2C117031E71F1000307DA4FF072
:100C4000000CD0EB0C006CEB01012D2302E023051E
:100C500004D52B238DF82430012303E0E30701D0D2
:100C60002023F7E7984658E00A2110E010210EE013
:100C700010204FF0000B08900CE010214FF0000BFB
:100C800044F004044FF00809089103E008214FF0F4
:100C9000000B0891C4F30253022B04D001CF0021B2
:100CA000032B06D006E0FF1D27F00707F7E8020137
:100CB00003E080B2042B00D1C0B24FF0000823073C
:100CC0002BD5702A07D0DDF820C08CF0100C5CEA20
:100CD0000B0C05D00EE040238DF82430012308E0F2
:100CE00050EA010306D030238DF824308DF82520FA
:100CF00002239846DDF820C08CF0080C5CEA0B0C4F
:100D00000BD150EA010301D1630706D530238DF8DA
:100D100024304FF00108A9F10109582A04D038A263
:100D20000B9208AA0A920BE03AA2F9E75B46089AEE
:100D3000FEF758FD0B9B9B5C0A9A521E0A92137099
:100D400050EA0102F2D10A98ADEB000000F1200B4D
:100D5000600702D524F4803401E04FF00109D94541
:100D600002DDA9EB0B0000E0002000EB0B01414489
:100D70000890AAEB010AE00306D4DDE90F2321461F
:100D8000504600F063F806444FF0000908E009A956
:100D900011F80900DDE90F12904709F10109761CED
:100DA000C145F4DBE0030CD5DDE90F2321465046B5
:100DB00000F04CF8064404E0DDE90F1230209047C3
:100DC000761C0899481E08900029F5DC08E00A986E
:100DD0000A990078491C0A91DDE90F129047761CA8
:100DE000BBF10001ABF1010BF1DC21465046DDE91E
:100DF0000F2300F019F806446D1C1BE609280100BA
:100E00003031323334353637383961626364656680
:100E10000000000030313233343536373839414242
:100E200043444546000000002DE9F04104460025FA
:100E30001E461746880404D405E039462020B047F2
:100E40006D1C641EF9D52846BDE8F0812DE9F041FE
:100E5000044600251E469046C80301D5302700E011
:100E60002027880404D505E041463846B0476D1C6C
:100E7000641EF9D52846BDE8F0814A68002A06D0EC
:100E80000A68531C0B6010704868401E4860704729
:100E90000A68531C0B6010707047000010B50AF010
:100EA00009FC08B90AF0D6FB044A05491C200AF0DF
:100EB00059FB01211C200AF0FFFA10BDED0E0200C3
:100EC0002871030010B50AF0F5FB08B90AF0C2FB5F
:100ED000044A05491B200AF045FB01211B200AF0AA
:100EE000EBFA10BDEF0E02002C710300704770B5D5
:100EF00005460E461B2D15D1022E13D10DF0B0F96B
:100F000001280FD00DF086F9044694F83D000A3010
:100F100084F83D0094F83D00642802DA322184F818
:100F20003D1000BF00F001F870BD08B50020009032
:100F3000012269461E2000F012F808B1042008BD05
:100F40000020FCE708B5002000900122694622201D
:100F500000F005F808B1042008BD0020FCE7F0B55A
:100F600087B004460F461546782C02DD022007B0F4
:100F7000F0BD102D01DD0320F9E7102200210DF155
:100F80000900FEF7D9FA8DF808403B46012202A974
:100F90001E20009506F05CFE06460EB90020E6E72E
:100FA0000420E4E7F0B585B004460F46154617B9AE
:100FB000012005B0F0BD782C01DD0220F9E7102DED
:100FC00001DD0320F5E78DF800402A4639460DF192
:100FD0000100FEF79FFA681CC2B269461E2006F0A7
:100FE00059FE06460EB90020E3E70420E1E708B504
:100FF0000020009000909DF80000009000BF00BF0E
:10100000012269462A20FFF7CDFF08B1012008BD63
:1010100000200090009000BF00BF012269465B20C5
:10102000FFF7C0FF08B10120F1E7002000909DF814
:10103000000000909DF8000040F00100009000BF0B
:1010400000BF012269460E20FFF7ACFF08B1012066
:10105000DDE7002000909DF8000040F001000090C6
:101060009DF8000000909DF8000040F00400009002
:101070009DF8000040F0200000909DF800000090D6
:1010800000BF00BF012269462A20FFF78BFF08B18D
:101090000120BCE70020BAE708B5002000900090CE
:1010A0009DF80000009000BF00BF012269462A2081
:1010B000FFF778FF08B1012008BD002000909DF8DF
:1010C000000040F0020000909DF8000040F0080091
:1010D00000909DF8000040F0200000909DF8000076
:1010E00040F0400000909DF8000040F0800000902B
:1010F00000BF00BF012269462120FFF753FF08B15E
:101100000120D9E7002000909DF8000040F00A007F
:10111000009000BF00BF012269462320FFF742FF75
:1011200008B10120C8E7002000909DF8000040F0C1
:101130000A00009000BF00BF012269462420FFF78B
:1011400031FF08B10120B7E7002000909DF80000B2
:1011500040F00A00009000BF00BF01226946252030
:10116000FFF720FF08B10120A6E7002000909DF8BE
:10117000000040F00C00009000BF00BF0122694653
:101180002620FFF70FFF08B1012095E7002000900F
:101190009DF8000040F01400009000BF00BF012245
:1011A00069462720FFF7FEFE08B1012084E70020F2
:1011B00000909DF8000040F01E00009000BF00BFAE
:1011C000012269462820FFF7EDFE08B1012073E7F0
:1011D000002000909DF8000040F00800009000BF43
:1011E00000BF012269462D20FFF7DCFE08B1012077
:1011F00062E7002000909DF80000009000BF00BF53
:10120000012269462E20FFF7CDFE08B1012053E7E9
:10121000002000909DF8000040F0010000909DF833
:10122000000000909DF8000040F0040000909DF840
:10123000000040F0200000909DF80000009000BFEA
:1012400000BF012269462A20FFF7ACFE08B1012049
:1012500032E700BF00BFFFF735FEFFF773FE002047
:101260002AE708B50020009000909DF8000000904B
:1012700000BF00BF012269462A20FFF793FE08B194
:10128000012008BD002000909DF8000000909DF80E
:10129000000040F0020000909DF8000040F00400C3
:1012A00000909DF8000040F0080000909DF80000BC
:1012B00040F01000009000BF00BF012269461D20D1
:1012C000FFF770FE08B10120DBE7002000909DF8D9
:1012D000000040F0060000909DF8000040F0800003
:1012E000009000BF00BF012269461F20FFF75AFE91
:1012F00008B10120C5E7002000909DF8000040F0F3
:101300000300009000BF00BF012269462020FFF7C4
:1013100049FE08B10120B4E7002000909DF80000CC
:1013200040F020000090012269462D20FFF73AFE90
:1013300008B10120A5E700BF00BF002000909DF884
:10134000000040F020000090012269462E20FFF7A7
:1013500029FE08B1012094E700BF00BF00200090E3
:10136000009000BF00BF012269465B20FFF71AFE14
:1013700008B1012085E7002000909DF80000009052
:101380009DF8000040F00100009000BF00BF012266
:1013900069460E20FFF706FE08B1012071E7002024
:1013A00000909DF8000040F0010000909DF80000C2
:1013B00000909DF8000040F0040000909DF80000AF
:1013C00040F0200000909DF80000009000BF00BF9A
:1013D000012269462A20FFF7E5FD08B1012050E708
:1013E000FFF75CFDFFF7A1FD00204AE710B51A20CA
:1013F0000AF01CFF012009F0B4FD1A200AF0D3FE08
:10140000012009F0AEFDFFF7F2FD10BD10B51A2066
:101410000AF00CFF012009F0A4FD1A200AF0C3FE17
:10142000012009F09EFDFFF737FE10BD10B51A2010
:101430000AF0FCFE012009F094FD1A200AF0B3FE28
:10144000012009F08EFDFFF70CFF10BD30B50346FB
:1014500000220024002000BF05E033F8125025448C
:101460002CB2551CEAB28A42F7DB94FBF1F528B2A4
:1014700030BDF0B585B00546002600240027022DBA
:1014800002DB002005B0F0BD0A216846FEF75BF8DC
:1014900000240BE0684600EB440128460AF022FADB
:1014A00006460EB10020EDE7601CC4B20A2CF1DB49
:1014B0000A216846FFF7CAFF07463846E2E770B5DB
:1014C00005460C4605B10CB9002070BD28784008CF
:1014D0002178B0EB510F01D00020F6E70622611C05
:1014E000681CFEF742F808B90120EEE70020ECE79F
:1014F0000246002104E0505C08B101207047491CFD
:101500000629F8D30020F9E710B504466CB1084865
:101510000068A04209D806484068A04205D320468A
:1015200007F0D2F808B1012010BD0020FCE7000050
:101530003C2C00202DE9FC41044688461646002537
:1015400037880020308094F82D0058B13A46314653
:10155000404602F0E3FD054600BF15B12846BDE850
:10156000FC8100BFA07850B13A463146404600F0B9
:101570004BFB054600BF0DB12846F0E700BFE07801
:1015800060B1E17848B23B463246414605F09AFBED
:10159000054600BF0DB12846E1E700BF606868B1AD
:1015A000616891F900003B463246414613F0F0FB7A
:1015B000054600BF0DB12846D1E700BF20890028AD
:1015C0000EDD43460622022104F10800CDE9006742
:1015D00013F05EFF054600BF0DB12846BFE700BF10
:1015E000208A00280EDD43460722032104F1100063
:1015F000CDE9006713F04CFF054600BF0DB128464A
:10160000ADE700BF208B00280EDD434615221421D4
:1016100004F11800CDE9006713F03AFF054600BF5A
:101620000DB128469BE700BF206A58B13B463246C1
:101630004146206A04F0F4FC054600BF0DB128467F
:101640008DE700BF606A58B13B4632464146606A4A
:1016500008F0AAF8054600BF0DB128467FE700BF95
:1016600094F82C0000280BDD3B46324641462046CC
:1016700011F006F8054600BF0DB128466FE700BF20
:10168000207858B13B4632464146204608F0C7F81C
:10169000054600BF0DB1284661E700BF28465EE75A
:1016A00070B504461448FFF723FF0546012C06D009
:1016B000022C0BD0032C10D0042C1AD113E00F48AD
:1016C000407810B10DB1012070BD00BF0B4880788B
:1016D00010B10DB10220F7E700BF0848C07808B18B
:1016E0000320F1E700BF0548007908B10420EBE7CB
:1016F00000BF0020E8E70000C6280020245D00208D
:101700000146481C052290FBF2F302FB1300C0B215
:1017100070470146C87800F0040008B907207047F8
:101720000020FCE730B5A7B03C2118A8FDF70BFF5F
:1017300002208DF8600000208DF8620005208DF8F1
:1017400063003C2109A8FDF7FEFE0120ADF834003E
:1017500010490E91202101A8FDF7F5FE01208DF81A
:1017600007004FF496700590B420069000200A4BB5
:1017700001AA09A9009018A802F0ECF8044600BFDD
:10178000254625B100BF284600F006F900BF00BF7E
:1017900027B030BD2C2A0020E9CD020070B50446E8
:1017A000012C02D104F058FD0DE0032002F0FCF9F9
:1017B000054600BF2E4626B100BF304600F0ECF8CB
:1017C00000BF00BF00BF70BD70B58CB004460D46B1
:1017D0001646002005E0C0F10F01615C0DF8001015
:1017E000401C1028F7D30D2104A8FDF7ACFE002003
:1017F00005E02A5CC0F10F0304A9CA54401C032869
:10180000F7D3684643DF002005E0C0F10F0208A9C6
:10181000895C3154401C0328F7D30CB070BD10B55F
:101820000446022002F04EFF10BD000010B5002457
:1018300007E00749096811F83400012109F03CFE6E
:10184000641C044800788442F3D3002010BD0000DB
:10185000582900205C2900202DE9F84306460C4653
:101860001746052F02D20720BDE8F88309F022FFB2
:1018700038B909F0EFFE054600BF0DB12846F3E781
:1018800000BF16480660164804701648076000201E
:10189000154908601549086015E006EBC4081448AE
:1018A0000068009098F802008DF8010098F8000098
:1018B000104A694609F056FE054600BF0DB128469C
:1018C000D2E700BF00BF201EA4F10101CCB2E4D1D9
:1018D000094A0021094800F079F8C5E75829002095
:1018E0005C2900206029002064290020682900204C
:1018F000A86F03005D780200E1620200A46F03009C
:1019000018A101200AF0BAFF00BF0AF0C1FE00BF13
:1019100000BF0AF0C3FE0028FBD100BF00BF15A125
:1019200003200AF0ABFF00BF00BF00BF00BF00BF35
:10193000BFF34F8F00BF00BF00BF1548006800F421
:10194000E06014490843001D1149086000BF00BF52
:1019500000BFBFF34F8F00BF00BF00BF00BF00BF7D
:10196000FDE700003A4552524F523A466174616CAD
:101970000D0A00003A494E464F3A4869742077658F
:10198000616B2068616E646C65720D0A0000000076
:101990000CED00E00000FA053EB504460020009082
:1019A0000190029002946A46002144F20100FFF780
:1019B000A7FF3EBD70B5054628460FF007F904465F
:1019C000207B10B1A1682068884770BD2DE9F843DD
:1019D0000546884616462C684FF0000906B115B931
:1019E0000720BDE8F883207B08B10820F9E760688C
:1019F000D0B9002020606060A060E060B8F1000F06
:101A000001D1002700E00127A660094823463A4695
:101A10004FF47A71009007A015F086F96060606855
:101A200020B94FF00E0901E00820DAE74846D8E770
:101A3000B519020020000000002070472DE9FC4786
:101A400005460E4617462C46D4F80480B8F1000F20
:101A500002D10820BDE8FC87207B002806D0404644
:101A600015F0E0F9002801D00020F3E7276000BF5F
:101A7000EFF30580A8B30020019001AB32460921A5
:101A80000090404615F098F9012801D00420E1E7C4
:101A900014F0B8FF8146002001AB4A4606210090B1
:101AA000404615F089F9012801D00420D2E70198B9
:101AB000B0B100BF4FF080501A49086040BF00BF6E
:101AC00000BF00BFBFF34F8F00BF00BF00BF00BF0C
:101AD00000BF00BFBFF36F8F00BF00BF00BF00BFDC
:101AE0001BE0FFE70220002332460421009040461D
:101AF00015F062F9012801D00420ABE714F07CFF57
:101B00008146022000234A4601210090404615F0FC
:101B100053F9012801D004209CE701202073002004
:101B200098E7000004ED00E07CB5044625466E68A9
:101B3000002E01D108207CBD00BFEFF3058030B33B
:101B40000020019001AB024608210090304615F0BC
:101B500033F9012801D00420EDE70198B0B100BFAE
:101B60004FF080501249086040BF00BF00BF00BF67
:101B7000BFF34F8F00BF00BF00BF00BF00BF00BF5B
:101B8000BFF36F8F00BF00BF00BF00BF0BE002209C
:101B900000231A4603210090304615F00DF9012864
:101BA00001D00420C7E70020287300BFC3E700006E
:101BB00004ED00E010B5044620460FF0A5FF10BD6F
:101BC00070B5044625460E488068B0B1ADB9FEF741
:101BD0000DFF06460A4800680A4908600848406840
:101BE0004FF0E021C1F804010020054988601EB9CA
:101BF00000BF62B600BF00BF00BF00BF70BD0000E5
:101C0000F064002000E100E0F8B505460C461746F8
:101C10002088001DB84201D90C20F8BD684679DF44
:101C2000064600BF0EB13046F7E700BF032021880B
:101C300068542088401C20801920218868542088FE
:101C4000401C208020884119BDF8000013F0F1F9F4
:101C50002188084420800020DFE7000070B5254877
:101C60008078012844D102200CF0E4FA044604F103
:101C700016052888B0F57A7F20D11E4890F8BA0062
:101C800001281BD1A07C00F00400042816D10120FB
:101C9000184981F8BB000846B0F9C200B0F5967F3C
:101CA00002DD4FF4967002E01248B0F9C20011490B
:101CB000A1F8C0000121032001F06AFA288841F24E
:101CC0008831884213D10B4890F8BD0001280ED10D
:101CD000A07C00F00400042809D10020054981F807
:101CE000BC0000F0F3FB0121042001F051FA00BF19
:101CF00070BD0000D899002070B58AB00446002558
:101D0000142105A8FDF71FFC14216846FDF71BFCF4
:101D100066883246211D05A8FDF7FCFB0F48827836
:101D2000C11C6846FDF7F6FB00208DF827008DF8F2
:101D300013001322694605A8FDF72DFC58B90125AB
:101D400006488278C11C0648FDF7E4FB00210448E0
:101D5000CA3880F8DD1028460AB070BDB89A002055
:101D6000A29A002010B50446012000F001F810BD31
:101D70002DE9F84F074600252C48C469052000903E
:101D800000F0F0FB64684BE04FF00008002620886C
:101D90001FFA80F94FF480512548FDF7D4FB4FF42A
:101DA00080524946224810F0E7F900900098002838
:101DB00035D1DFF87C804646B61D3046FFF79CFFE4
:101DC0000546BDB1B7B919480462B278311DCA30B1
:101DD000FDF7A0FB404680781449A1F8C8000846EA
:101DE000B0F8C8004146C97840EA01200F49A1F87F
:101DF000C80013E0012D11D1012F0FD1484610F07A
:101E00003FFA824600BFD346BBF1000F04D000BFAB
:101E10005846FFF7C1FD00BF00BF00BF646800BFA8
:101E20000DB9002CB0D12846BDE8F88FD899002014
:101E3000D09A00202DE9FC474FF00F09002600271B
:101E400006200CF0F7F9044600BF00202E49087167
:101E500048712E48418800222B4804F0BBF9804687
:101E60002A48838842462AA10020FEF71EF9274807
:101E7000808840453BD1372001904FF0020A38035B
:101E80000090012201A8009910F076F98146B9F17D
:101E9000000F2AD19DF80400FF2826D11B48428854
:101EA0001948009912F090F80646F6B90C200AF08D
:101EB000F7FD0546C5B1207A401C2072207A08281B
:101EC00001DD002020720AA8286010484088A88000
:101ED0000098A8601148C0692060294620680CF06D
:101EE000DDFA062010F0F8FF00BF7F1C00BF207A4B
:101EF000082801DA002EA8D00448002101604160C2
:101F00000181BDE8FC870000D8890020D0AA00200C
:101F1000432025582025580D0A000000D89900209C
:101F200010B5044614212046FDF70DFB1422034989
:101F30002046FDF7EFFA0020E07410BDA29A0020C1
:101F40002DE9F041002700261548406A406830B16D
:101F5000134A916A506A0CF0C4FA07461DE0114C0E
:101F60000F48B0F8C8500AE02078482804D16078BB
:101F7000412801D1012602E0641C681E85B20EB919
:101F8000002DF1DC002D07DD012E05D12746044987
:101F9000486A21460CF082FA00BF3846BDE8F0815D
:101FA000D8990020D09A002001488078704700001E
:101FB000D899002010B504460548006830B10023C8
:101FC000022219460248006814F096FC10BD000079
:101FD000D429002008B50948002301220A210090D5
:101FE00007A014F0A1FE074908600846006820B960
:101FF00000BF0420FFF7D0FC00BF08BDB51F0200E2
:1020000041504C00DC29002038B5002414480068F9
:1020100014F008FF044614BB12480068002802DDD3
:1020200000201049086010A10020FEF731F814F0DC
:10203000E3FC0546022000232A46012100900848BF
:10204000006814F0B9FE012804D000BF0420FFF797
:10205000A3FC00BF03480068401C0249086038BD6B
:10206000DC290020E429002053544152545F544994
:102070004D4552530D0A000008B5022000231A46B0
:10208000032100900348006814F096FE00200249E6
:10209000086008BDDC290020E42900202DE9F0417A
:1020A00007461648406A44680026002524B31348B2
:1020B0008462204600F0ACF9204600F017F9204673
:1020C00000F028F8204600F037F90C48B0F8C400BA
:1020D00010B1204600F06CF925680BE028785428F0
:1020E00007D168784D2804D10126044869688161C8
:1020F00000E06D1C002EF1D0BDE8F081D8990020E1
:1021000010B50346024C646B60680021002210BDCC
:10211000D899002070B5014600230020E1B10024C9
:10212000002208680446628812E00578412D0CD12F
:1021300045784F2D09D1012305790DB1012500E026
:102140000025064E86F8BD5002E0401C551EAAB27E
:102150000BB9002AE9DC00BF70BD0000D89900204F
:1021600010B50446094890F8BD0001280CD104B10F
:1021700000E00020054981F8BC00084690F8BC004A
:1021800010B9002000F0A2F910BD0000D89900207D
:102190003EB500250424002001900290FFF7D0FEF8
:1021A0000546002D31D02846FFF778FF01A80FF033
:1021B00066FA0446002C28D19DF9060000909DF98E
:1021C00005309DF9042012A10020FDF76EFF16488E
:1021D000407E8DF805001448807E8DF806000020B2
:1021E0008DF8040001A80FF0E8FA04466CB99DF9D7
:1021F000060000909DF905309DF9042004A10020FF
:10220000FDF753FF01200849087020463EBD00003D
:10221000532025303258204D202530325820482078
:10222000253032580D0A0000D899002010B54FF61D
:10223000FF740C49C86A00210CF053F9044609E008
:1022400014B120460CF0D8F90649C86A21460CF0B2
:1022500048F90446002CF3D10020024981F8BE0061
:1022600010BD0000D89900207047000010B504464A
:102270001448006820B30023012219461148006861
:1022800014F046F801281BD1207B0F490870607BB1
:102290004870A07A801E88706089821E04F10E0149
:1022A0000948C01CFDF736F90120084908700023D1
:1022B0001A4619460348006814F046F900F09CF9E4
:1022C00010BD0000CC290020B89A0020D829002099
:1022D000054991F8BA10012905D100B100E00021AB
:1022E000014A82F8BB107047D899002070B50146AA
:1022F00000230020E1B1002400220868044662881F
:1023000012E00578532D0CD145784E2D09D10123CB
:1023100005790DB1012500E00025064E86F8BA507A
:1023200002E0401C551EAAB20BB9002AE9DC00BF2E
:1023300070BD0000D89900202DE9F0410546002429
:102340000626002D30D0A04600272C68A046B8F8FD
:10235000027024E02078502802D16078482811D0FB
:1023600020784D2802D1607848280BD020785A2850
:1023700002D16078482805D020784C280CD16078AC
:10238000482809D1062E01D108480463761E074962
:10239000C86A21460CF082F8641C781E87B2002EB1
:1023A00001D9002FD6DC00BFBDE8F081D89900200C
:1023B0002DE9F0410546002403262DB3A046002751
:1023C0002C68A046B8F8027019E02078552813D17F
:1023D0006078482810D1032E05D10C488463012071
:1023E0000A4981F8BF00761E0849486B21460CF067
:1023F00055F82046FFF784FE641C781E87B2002E35
:1024000001D9002FE1DC00BFBDE8F081D8990020A0
:1024100010B5014600220020002931D0086815E0DF
:102420000378572B11D14378442B0ED10122037925
:10243000144CA4F8C4302346B3F8C430C3EB0313E0
:102440009B001BB2A4F8C43000E0401C002AE7D077
:10245000012A15D10B4BB3F8C4308BB100220846CA
:102460000CE00378572B08D14378492B05D1012282
:102470000379044CA4F8C23000E0401C002AF0D0DC
:1024800010BD0000D899002010B50121022000F0F5
:102490007FFE0120034981F8BE0000F0E3F900F05F
:1024A000ABF810BDD899002010B54FF4807303A28B
:1024B000044905480BF068FE10BD0000415050541F
:1024C0000000000015260200D429002070B5044643
:1024D0000FF036F8054685B9012C0ED10949486A36
:1024E0000BF0F0FF0749C86A0BF0ECFF0549486B99
:1024F0000BF0E8FF00200349087000F0D1F92846EE
:1025000070BD0000D899002010B508200AF0C8FA64
:10251000044624B10020206060601148C461082096
:102520000AF0BEFA044624B10020206060600C4826
:10253000446208200AF0B4FA044624B10020206066
:1025400060600748C46208200AF0AAFA044624B171
:102550000020206060600248446300F003F810BD72
:10256000D89900202DE9F04106200BF063FE0446C7
:1025700000257F261C49C8690BF0A4FF00202072AB
:1025800000BF4FF480511948FCF7DDFF4FF4805233
:10259000294616480FF0F0FD0746C7B913480078E2
:1025A000412811D11148407848280DD10E49C869F9
:1025B00029460BF073FF207A401C2072062003F09E
:1025C0006DFC122010F088FC761E05F58055207AEF
:1025D000082801DA002ED4DC227A05A10020FDF7BC
:1025E00064FDBDE8F0810000D8990020D09A002059
:1025F00025640D0A0000000010B50548006830B1E0
:102600000023022219460248006814F075F910BD33
:10261000D42900206B4800210160416001814FF402
:1026200080516948FCF78FFFE0216848FCF78BFF79
:102630000120664981F8BA0081F8BD00FFF764FF08
:10264000012013F01BFE624908600846006820B9AB
:1026500000BF0420FFF7A0F900BF00F0E9F8FFF782
:10266000B9FCAEE04FF0FF31012012F0F9FC574801
:1026700090F8BE00012812D154498870084690F89D
:10268000BB0028B9084690F8BC0008B9FFF7CEFD9A
:102690004E4890F8BF00012801D1FFF7E5FD4B48F7
:1026A0008078012835D14948B0F8C400401E00B2F6
:1026B0004649A1F8C4000846407898B900F0F0F8FF
:1026C000FFF766FD28B34FF480513F48FCF73BFF0E
:1026D0004FF480513F48FCF736FFE0213B48FCF7C0
:1026E00032FF16E03948B0F8C40090B900F0D8F8CD
:1026F000FFF74EFD68B14FF480513348FCF723FFDC
:102700004FF480513348FCF71EFFE0212F48FCF7BF
:102710001AFF2C480078012801D1FFF78BFB2E48C7
:10272000007801284DD12A480068002849D00023AC
:10273000012219462648006813F0EAFD012840D11D
:102740000020254908702548007858B90024012048
:10275000FFF7BCFE0020FFF70BFB04460CB1FFF7B0
:1027600017FD27E01D480078012804D11B4948784F
:10277000FFF7F8FA1EE019480078022809D1174936
:10278000497809B1012100E000210846FFF79EFECB
:1027900010E012480078032804D110494878FFF768
:1027A00097FD07E00D480078042803D10B494878CD
:1027B000FFF7D6FC00231A4619460548006813F0B7
:1027C000C3FE4FE7D0AA0020D09A0020D89900205D
:1027D000CC290020D8890020D8290020B89A0020D0
:1027E0001CB504461048B0F8C00070B10E48B0F8EF
:1027F000C000401E00B20C49A1F8C0000846B0F865
:10280000C00010B9002081F8BB00002000900190AA
:102810000648006830B100230222194603480068C8
:1028200014F06AF81CBD0000D8990020D4290020BB
:1028300008B50948002301229102009007A014F076
:1028400073FA074908600846006820B900BF0420F1
:10285000FFF7A2F800BF08BDE127020053544D0066
:10286000D029002038B500240C48006814F0DAFAAA
:10287000044694B914F0C0F80546022000232A4605
:10288000012100900548006814F096FA012804D050
:1028900000BF0420FFF780F800BF38BDD02900201A
:1028A00008B5022000231A46032100900248006860
:1028B00014F082FA08BD0000D029002038B514F0C9
:1028C0009BF804460220002322460121009006487E
:1028D000006814F071FA012804D000BF0420FFF74B
:1028E0005BF800BF38BD0000202A002070B5044608
:1028F0000D462646FFF788FB1A48408878B9A01C89
:102900000188184A5180801C0188918071881422A6
:1029100091FBF2F1491D09B2124A118100BF114920
:10292000C988114A88182A462146FCF7F3FD0D484C
:10293000C08828440B49C8800846C0884988884216
:102940000EDBFFF799FB0948006848B101200549F3
:1029500008700023022219460448006813F0CCFFD7
:10296000002070BDD0AA0020D8890020D4290020E2
:1029700070B505460C462068401C28B1206809F057
:1029800034FC206809F0A5FB6068401C18B10021E8
:10299000606809F091FB28792D4901EB4010007F18
:1029A00050B32868A169C0F8241500BF617D227D5D
:1029B000286841EA0203C0F86C3500BFD4E9001270
:1029C00028680AF00AFA207D01283FD1A068401C3F
:1029D00018B10021A06809F06FFBE068401C28B125
:1029E000E06809F002FCE06809F073FBD4E9022119
:1029F00028680AF0DEF929E02868A169C0F82415E2
:102A000000BF617D227D286841EA0203C0F86C3571
:102A100000BFD4E9001228680AF0B2F9207D01282D
:102A200014D1A068401C18B10021A06809F044FB33
:102A3000E068401C28B1E06809F0D7FBE06809F0C5
:102A400048FBD4E9022128680AF083F970BD000030
:102A5000F463002030B5A3B01348007801F028FBE0
:102A6000054628460FF084F8D8B101A801F080FA95
:102A7000442201A912A8FCF74DFD00240DE013A982
:102A800031F814000849097801F020FB20B113A99E
:102A900031F8140006F044F8641C1298A042EED8F5
:102AA00000BF23B030BD0000FE28002010B592B05A
:102AB0000020019000BF9DF8040020F00F00401C92
:102AC0008DF804009DF8040020F0F00010308DF81F
:102AD000040000BF00BF9DF8050020F00F00401C5F
:102AE0008DF805009DF8050020F0F00010308DF8FD
:102AF000050000BF9DF8060020F00100401C8DF885
:102B000006009DF8060020F00600801C8DF80600E7
:102B10001C210AA8FCF717FD002002900390042056
:102B20008DF808004FF41C50ADF80A009DF82800FD
:102B300020F00200801C8DF828009DF8280020F06D
:102B4000100010308DF828003D4800680B903C487C
:102B50000068FCF703FD80B2ADF832003848006829
:102B6000FCF7FCFC80B2ADF8300002A80D9001A883
:102B70000F9000201090049000BF9DF8100020F0EE
:102B80000F00401C8DF810009DF8100020F0F000A0
:102B900010308DF8100000BF00BF9DF8110020F02C
:102BA0000F00401C8DF811009DF8110020F0F0007E
:102BB00010308DF8110000BF9DF8120020F00600C3
:102BC000801C8DF812009DF8120020F008008DF88E
:102BD00012009DF8120020F010008DF812009DF8F0
:102BE000120020F00100401C8DF81200142105A8ED
:102BF000FCF7A9FC00BF01208DF8460045F2050056
:102C0000ADF8440000BF11A8059004A8069001206B
:102C1000ADF81C000020ADF81E000120ADF820002A
:102C20000020099007490968088D06490B68203380
:102C300005AA0AA9A2DF0446204612B010BD000072
:102C4000E02A0020EC2A002010B592B0002001906C
:102C500000BF9DF8040020F00F00401C8DF8040018
:102C60009DF8040020F0F00010308DF8040000BF43
:102C700000BF9DF8050020F00F00401C8DF80500F6
:102C80009DF8050020F0F00010308DF8050000BF21
:102C90009DF8060020F00100401C8DF806009DF80C
:102CA000060020F00600801C8DF806001C210AA8F2
:102CB000FCF749FC00200290039004208DF80800E6
:102CC0004FF41C50ADF80A009DF8280020F00200D7
:102CD000801C8DF828009DF8280020F0100010308E
:102CE0008DF828003D4800680B903C480068FCF7D0
:102CF00035FC80B2ADF8320038480068FCF72EFC95
:102D000080B2ADF8300002A80D9001A80F9000200D
:102D10001090049000BF9DF8100020F00F00401CA0
:102D20008DF810009DF8100020F0F00010308DF8A4
:102D3000100000BF00BF9DF8110020F00F00401CE4
:102D40008DF811009DF8110020F0F00010308DF882
:102D5000110000BF9DF8120020F00600801C8DF8C5
:102D600012009DF8120020F008008DF812009DF866
:102D7000120020F010008DF812009DF8120020F0D3
:102D80000100401C8DF81200142105A8FCF7DBFBA4
:102D900000BF01208DF8460045F20300ADF8440065
:102DA00000BF11A8059004A806900120ADF81C00F2
:102DB0000020ADF81E000120ADF820000020099091
:102DC00007490968088D06490B68103305AA0AA946
:102DD000A2DF0446204612B010BD0000D82A002011
:102DE000EC2A002010B592B00020019000BF9DF8A1
:102DF000040020F00F00401C8DF804009DF8040032
:102E000020F0F00010308DF8040000BF00BF9DF8E6
:102E1000050020F00F00401C8DF805009DF805000E
:102E200020F0F00010308DF8050000BF9DF806007E
:102E300020F00100401C8DF806009DF8060020F0EF
:102E40000600801C8DF806001C210AA8FCF77BFBFD
:102E500000200290039004208DF808004FF41C50CD
:102E6000ADF80A009DF8280020F0400040308DF8B1
:102E700028009DF8280020F0080008308DF8280070
:102E80009DF8280020F00200801C8DF828009DF895
:102E9000280020F0100010308DF828003D48006810
:102EA0000B903C480068FCF759FB80B2ADF832004B
:102EB00038480068FCF752FB80B2ADF8300002A839
:102EC0000D9001A80F9000201090049000BF9DF875
:102ED000100020F00F00401C8DF810009DF810002D
:102EE00020F0F00010308DF8100000BF00BF9DF8FA
:102EF000110020F00F00401C8DF811009DF811000A
:102F000020F0F00010308DF8110000BF9DF8120085
:102F100020F00600801C8DF812009DF8120020F0B1
:102F200008008DF812009DF8120020F010008DF8B6
:102F300012009DF8120020F00100401C8DF81200D4
:102F4000142105A8FCF7FFFA00BF01208DF8460008
:102F500045F20100ADF8440000BF11A8059004A897
:102F600006901420ADF81C000020ADF81E001420BF
:102F7000ADF820000020099007490968088D06492E
:102F80000B68083305AA0AA9A2DF0446204612B03E
:102F900010BD0000D42A0020EC2A002010B592B009
:102FA00007240020019000BF9DF8040020F00F00CE
:102FB000401C8DF804009DF8040020F0F000103053
:102FC0008DF8040000BF00BF9DF8050020F00F0041
:102FD000401C8DF805009DF8050020F0F000103031
:102FE0008DF8050000BF9DF8060020F00100401C90
:102FF0008DF806009DF8060020F00600801C8DF874
:1030000006001C210AA8FCF79EFA002002900390FB
:1030100004208DF808004FF41C50ADF80A0002A8F7
:103020000D909DF8280020F0400040308DF82800D9
:103030009DF8280020F0080008308DF828009DF841
:10304000280020F00200801C8DF828009DF8280040
:1030500020F0100010308DF828003B4800680B90DD
:1030600039480068FCF77AFA80B2ADF83200364889
:103070000068FCF773FA80B2ADF8300001A80F9039
:1030800000BF01208DF8460045F20200ADF8440073
:1030900000BF0020049000BF9DF8100020F00F003A
:1030A000401C8DF810009DF8100020F0F00010304A
:1030B0008DF8100000BF00BF9DF8110020F00F0038
:1030C000401C8DF811009DF8110020F0F000103028
:1030D0008DF8110000BF9DF8120020F00600801C42
:1030E0008DF812009DF8120020F008008DF81200F3
:1030F0009DF8120020F010008DF812009DF81200CB
:1031000020F00100401C8DF81200142105A8FCF7E6
:103110001AFA11A8059004A806901420ADF81C0016
:103120000020ADF81E001420ADF82000002009900A
:1031300006490968088D054905AA0B680AA9A2DF96
:103140000446204612B010BDD02A0020EC2A0020F0
:1031500010B504462088102804D0112807D0502824
:1031600011D10CE0A0880949096848850CE04FF6A8
:10317000FF7006490968488500F008FA04E0204617
:103180000AF0BEFA00E000BF00BF10BDEC2A00202C
:10319000F0B58BB004460D464F480068408D4FF6A1
:1031A000FF7188427ED00020069007900890099019
:1031B0000A90142101A8FCF7C6F9012C33D1464826
:1031C000006890F82F0001282DD1E8B205282AD1F7
:1031D000424890F90000082822DA404890F900009F
:1031E000070321033E48FCF7AEF91E2239463C484E
:1031F0000EF0C2FF064696B939480078FF280ED077
:103200003748027A00F10A0101A8FCF783F9344833
:10321000007A0690304800680089ADF81C0034E060
:1032200000F0B4F931E0022C0ED12B48006890F880
:103230003000012808D10195042006902648006836
:103240000088ADF81C0020E0032C0ED12248006855
:1032500090F83100012808D10195042006901E48FD
:1032600000680088ADF81C000FE0042C0DD11A484E
:10327000006890F83200012807D1019504200690DB
:10328000154800680088ADF81C00BDF8180000283B
:103290001FDD0AF075FF0646BDF81800C2B23146C0
:1032A00001A800E016E00AF087FF0A9601208DF8D9
:1032B0001E00094800680088ADF81C000020ADF829
:1032C000200006A8099004490968488D07A9A6DFCF
:1032D00000BF00BF0BB0F0BDEC2A0020F02A002098
:1032E000D88900201CB504240020009002208DF80D
:1032F00006004FF6FF701D490968488534211C48B7
:10330000FCF721F91B4800210160017100200190A8
:103310006946194862DF04460CB120461CBD4FF4D3
:10332000A040ADF804009DF800008DF806000F489D
:103330000268283201A90120A0DF044614B9FFF772
:1033400051FD044614B9FFF729FE044614B9FFF7EE
:103350007BFC044614B900F011F8044614B9FFF7D9
:10336000A5FB044600F0E6F82046D7E7EC2A00204B
:10337000B0AC0020E42A0020A070030010B592B089
:103380000020019000BF9DF8040020F00F00401CB9
:103390008DF804009DF8040020F0F00010308DF846
:1033A000040000BF00BF9DF8050020F00F00401C86
:1033B0008DF805009DF8050020F0F00010308DF824
:1033C000050000BF9DF8060020F00100401C8DF8AC
:1033D00006009DF8060020F00600801C8DF806000F
:1033E0001C210AA8FCF7AFF80020029003900420EB
:1033F0008DF808004FF41C50ADF80A009DF8280025
:1034000020F00200801C8DF828009DF8280020F094
:10341000100010308DF828003D4800680B903C48A3
:103420000068FCF79BF880B2ADF8320038480068BD
:10343000FCF794F880B2ADF8300002A80D9001A816
:103440000F9000201090049000BF9DF8100020F015
:103450000F00401C8DF810009DF8100020F0F000C7
:1034600010308DF8100000BF00BF9DF8110020F053
:103470000F00401C8DF811009DF8110020F0F000A5
:1034800010308DF8110000BF9DF8120020F00600EA
:10349000801C8DF812009DF8120020F008008DF8B5
:1034A00012009DF8120020F010008DF812009DF817
:1034B000120020F00100401C8DF81200142105A814
:1034C000FCF741F800BF01208DF8460045F20400EA
:1034D000ADF8440000BF11A8059004A80690012093
:1034E000ADF81C000020ADF81E000120ADF8200052
:1034F0000020099007490968088D06490B681833B0
:1035000005AA0AA9A2DF0446204612B010BD000099
:10351000DC2A0020EC2A002010B50446044800688C
:1035200090F82F00012802D10521FFF731FE10BDD0
:10353000EC2A002010B5034B6622034903A00BF0D0
:10354000CFF810BD19350200F42A0020415356432C
:103550000000000038B50C48006813F063FC90B917
:1035600013F04AFA0446022000232246012100906B
:103570000548006813F020FC012804D000BF042097
:10358000FEF70AFA00BF38BDF42A002008B5084843
:10359000006813F047FC012808D1022000231A46D6
:1035A000032100900248006813F006FC08BD0000EB
:1035B000F42A002010B50446637903F00302217950
:1035C000208805F037FA10BD10B50446207918B9E7
:1035D000204600F007F803E02046FFF7EBFF00BFAE
:1035E00000BF10BD2DE9F04188B0044600252088B9
:1035F00000F030FD0746208804F020FD0646A06854
:103600000790607A0690208800222349097800F00C
:1036100071FD17B908B0BDE8F0816079C0F3800092
:1036200090B1072130460BF00BFB0546BDB10820D9
:103630008DF800002088ADF80200ADF80460029516
:10364000684603F083F80AE020881449097800F0FE
:103650003DFD20B1304604F0DBFC804600BF032076
:103660008DF80C002088ADF80E006079C0F3800062
:103670008DF81000A079C0F380018DF811109DF82D
:103680001C108DF812109DF818108DF8131003A857
:1036900003F05CF800BFBDE73E2900204029002070
:1036A00030B591B00446002555200190604800686F
:1036B000807ED0B30020099000BF9DF8240020F048
:1036C0000F00401C8DF824009DF8240020F0F0002D
:1036D00010308DF8240000BF00BF9DF8250020F0B9
:1036E0000F00401C8DF825009DF8250020F0F0000B
:1036F00010308DF8250000BF00BF4E48007C20F040
:103700000F00401C4B4908740846007C20F0F00074
:103710001030087400BF207C8DF825009DF826002D
:1037200020F00600801C8DF826001C210AA8FBF75B
:103730000AFF9DF8280020F00200801C8DF8280068
:103740009DF8280020F0100010308DF8280000208F
:103750000B900D900E9009A80F900020109000BFC4
:1037600001208DF80E0042F61920ADF80C0000BFC4
:103770000020029000BF2F48407C20F00F00401C2A
:103780002C4948740846407C20F0F0001030487402
:1037900000BF00BF0846807C20F00F00401C8874EA
:1037A0000846807C20F0F0001030887400BF607CF8
:1037B0008DF80800A07C8DF809009DF80A0020F023
:1037C0000600801C8DF80A009DF80A0020F0080011
:1037D0008DF80A009DF80A0020F010008DF80A000C
:1037E0009DF80A0020F001008DF80A00207B01906E
:1037F000142104A8FBF7A7FE03A8049002A80590D3
:103800000220ADF818000020ADF81A000220ADF833
:103810001C0001A8089006490968888804490B68BB
:103820009B1D04AA0AA9A2DF0546284611B030BD97
:10383000482A002004AC002010B503F0E7FE04493C
:103840000968486102480068808A80B210BD0000A3
:10385000482A002008B509480023012208490090A1
:1038600008A013F061FA094908600846006820B909
:1038700000BF0420FEF790F800BF08BD193D02000C
:1038800020BF02004241545400000000502A002092
:1038900038B513F0B1F80446022000232246012176
:1038A00000900648006813F087FA012804D000BF92
:1038B0000420FEF771F800BF38BD0000502A002038
:1038C0002DE9F04192B080460D461F2011901090D6
:1038D000B8F1000F17D04046FDF71BFF044600BFAC
:1038E0001CB1204612B0BDE8F08100BF11AA08A9A2
:1038F0004046FDF71FFE044600BF0CB12046F1E72D
:1039000000BF08AE02E0002600201190ADB12846AD
:1039100010F063FC044600BF0CB12046E2E700BF94
:1039200010AA69462846FDF705FE044600BF0CB103
:103930002046D7E700BF6F4602E000270020109026
:10394000BDF84000C3B2BDF84400C1B23A463046AB
:1039500072DFC7E72DE9F04704460F4615461E46BD
:10396000DDF8208004B115B90E20BDE8F0870120F4
:1039700049490870002049490870202229464848D2
:10398000FBF7C8FD002047490870474806604748D4
:10399000C0F800804FF6FF70454908804548002177
:1039A0000160818081713C214348FBF7CCFD207888
:1039B00041490870A0788870E078C87060784870D5
:1039C0000846D4E90412C0E90412D4E90212C0E99D
:1039D0000212D4E90612C0E90612606AD8B137486B
:1039E0003549486236498160606A00883249496ACF
:1039F0000880606A80883049496A8880002005E034
:103A0000616A8968095C2E4A1154401C2A49496A36
:103A100089888142F4D8A06A20B32A492A48816063
:103A20002549886227492448806A8160A06A808885
:103A30002149896A8880A06A00881F49896A0880AC
:103A4000002005E0A16A8968095C1E4A1154401CE7
:103A50001949896A89888142F4D894F82C0016495A
:103A600081F82C00206A58B1184813490862206A6E
:103A70004088096A4880206A00880F49096A0880DE
:103A8000606810B10C496068486039460A48FFF721
:103A900017FF8146484668E7C0280020C328002059
:103AA000245D0020C4280020D4280020D82800202D
:103AB000D2280020C5280020445D0020805D002021
:103AC0008C5D0020B85D0020AC5D0020CE28002079
:103AD00010B504462088102804D0112806D01B28D1
:103AE0000CD107E0204609F095FA08E0204609F0DD
:103AF0004BFB04E0204609F033FC00E000BF00BFB0
:103B000010BD000070B50546022D02D0032D15D161
:103B100000E000BF0B48007878B100200949087028
:103B20000948007800F040F8044634B107480068BE
:103B300018B1204605490968884700E000BF00BF6A
:103B400070BD0000C1280020C3280020D828002014
:103B500010B574DF01200F49087000200E4908706D
:103B600006200E49C87000210C48FFF7A9FE044644
:103B70000CB1204610BD0A48007800F015F8044644
:103B800034B10848006818B12046064909688847DA
:103B90000020EFE7DC280020DE280020445D002024
:103BA000C3280020D82800207FB505464E4800785D
:103BB00010B9082004B070BD4C48057003F0ECF853
:103BC00020B101204A4908700020F3E7494800214C
:103BD0000160818081714848407818B1434800787D
:103BE00001280DD04448807818B140480078012859
:103BF00006D04148807888B13C48007802280DD131
:103C00003E48006838B101203D49087008203B4912
:103C10000968884702E00020394908702846FDF706
:103C20003FFD3249087035480068C0B10846007849
:103C3000032803D008460078042810D12E480078C5
:103C400068B13048007850B900202F490870012031
:103C50002E490870072029490968884702E000209A
:103C60002A490870002000900190029003908DF87E
:103C700000008DF808001D48007805281CD2DFE8F8
:103C800000F01703080D120068460FF09DF8044677
:103C900013E068460FF0A8F804460EE068460FF0FF
:103CA000B9F8044609E068460FF0E4F8044604E079
:103CB00000201749087000E000BF00BF0B480078E3
:103CC00038B114480178684673DF04460CB12046C9
:103CD00070E70A48006820B10D4800780749096874
:103CE0008847002066E70000C0280020C328002085
:103CF000C1280020C5280020245D0020D4280020F1
:103D0000CC280020DC280020DE280020DD28002030
:103D1000C2280020C428002030B587B005462B48B3
:103D2000006808B907B030BD2848006840692749D5
:103D300009680969884246D024480068406900281B
:103D400041D00020059006900220ADF8140000201C
:103D5000ADF816001D480068143006901B48006836
:103D600040691A490968086118480068008B4FF6D5
:103D7000FF71884227D015480068807E18B30AF08A
:103D8000FFF90446002001900290039004900F492F
:103D900009680222486921460AF00EFA0B480068B9
:103DA000C088ADF8040001208DF80600BDF81600AB
:103DB000ADF8080005A80390049404490968088B2D
:103DC00001A9A6DF00BF00BFACE70000482A002021
:103DD0002DE9F8430724254800680068244909684C
:103DE00008604FF6FF702249096808831F48006881
:103DF00000791F490968887600201D490968086113
:103E000000BF01208DF8020041F60F00ADF8000060
:103E100000BF17480268121D69460120A0DF044652
:103E200014B12046BDE8F8831248FFF739FC044678
:103E3000022001210D4600221646134600BF4FF016
:103E4000A04C674641EA450C4CEA820C4CEA062C31
:103E50004CEA034807F5E06C4CF8208000BF00BF37
:103E6000FFF7F8FCFFF714FD2046DBE74C2A0020A3
:103E7000482A002004AC002010B5044614B10F48B5
:103E8000006800B910BD2088102804D0112807D080
:103E900050280FD10AE0A0880849096808830AE081
:103EA0004FF6FF7005490968088304E0204609F0D1
:103EB00099FA00E000BF00BF00BFE3E7482A0020F6
:103EC00070B505461C2229461248FBF723FB00204B
:103ED00011490870286850B1104829680A680260C2
:103EE000496841607ADF04463CB1204670BD0B480A
:103EF0007BDF04460CB12046F8E74FF6FF70084917
:103F00000880002007490870074A00210748FDF78C
:103F10005DFDEBE7D85D0020F4280020E0280020BC
:103F2000EA280020E8280020D1530300886E03000F
:103F300010B504462088102806D0112808D0122871
:103F40000ED0502810D107E0204609F047F80CE0C9
:103F5000204609F0F9F808E0204609F01DFA04E0CF
:103F6000204609F02FF800E000BF00BF10BD0000A0
:103F700010B504460348011D426C20460DF074FE46
:103F800010BD0000145E002010B504460348224610
:103F9000016D001D0DF051FE10BD0000145E0020EB
:103FA00010B5044603482246416D001D0DF045FE44
:103FB00010BD0000145E002070B504462088102853
:103FC00004D011281DD01A2840D11EE00DF058FA57
:103FD000A0880DF0CFF820B900BF0420FDF7DCFC6D
:103FE0000EE0E07B022801D1012000E00020054620
:103FF000A2882B461649A1F148000DF056FE00BFDD
:1040000024E0A0880DF05EFA20E0207A0121B1EBD7
:10401000101F01DA012000E000200346A2880C49AD
:10402000091DA1F14C000DF040FE207A0221B1EBF8
:10403000101F01DA012000E000200346A288044995
:104040000831A1F150000DF030FE00BF00BF70BD7F
:10405000605E002070B5044600250B482246416C86
:10406000001D0DF0EAFD60B107482246C16C001D3D
:104070000DF0E3FD06460EB1022000E001200546EA
:1040800000BF284670BD0000145E002010B500245B
:104090000AE0204611F0EEF920B9204611F0E0F9CF
:1040A000204610BD601CC4B2182CF2DB1820F8E7C3
:1040B00010B50446204611F0DDF918B1024850F859
:1040C000240010BD0020FCE76C5E002070B50546A2
:1040D0000C46204611F0CEF938B1054850F82410AE
:1040E0002A4654380DF0A9FD70BD0020FCE7000001
:1040F0006C5E002070B505460C461646204611F051
:10410000B9F938B1044800EB840133462A465438E3
:104110000DF0CBFD70BD00006C5E00202DE9FC4170
:1041200005460C46174620880930B84202D90C20B3
:10413000BDE8FC8168466DDF064600BF0EB1304623
:10414000F6E700BF0820218868542088401C2080A2
:104150001B20218868542088401C20802088284407
:10416000DDF801100160BDF8051081802088801DF8
:1041700020809DF80000400818B90020218868546C
:1041800002E00120218868542088401C2080002003
:10419000CEE7000030B587B0774C0725774903C9D3
:1041A000CDE9040104A8A06300BF01208DF81A0026
:1041B00041F60A00ADF8180000BF714A06A90120B7
:1041C000A0DF0546002D44D140212046FBF7BBF976
:1041D0006CA1204600F06CF973A104F1080000F016
:1041E00067F974A104F1100000F062F973A104F101
:1041F000180000F05DF974A104F1200000F058F9F6
:1042000075A104F1280000F053F900BF204690F892
:104210003C0020F00F00401C214681F83C0008467D
:1042200090F83C0020F0F000103081F83C0000BF16
:1042300000BF084690F83D0020F00F01204680F8AE
:104240003D1090F83D0020F0F001204680F83D1030
:1042500000BF6DB9208800280ADD614800902288DF
:1042600004F13C0342F62920616801F0ADFC0546EB
:104270006DB9208900280ADD5A480090228904F18E
:104280003C0342F62420E16801F09EFC05466DB92E
:10429000208A00280ADD54480090228A04F13C0359
:1042A00042F62520616901F08FFC05466DB9208B2F
:1042B00000280ADD4D480090228B04F13C0342F6B1
:1042C0002720E16901F080FC05466DB9208C0028AB
:1042D0000ADD47480090228C04F13C0342F6262078
:1042E000616A01F071FC05466DB9208D00280ADD78
:1042F00040480090228D04F13C0342F62820E16AF8
:1043000001F062FC05468DB9206B78B102A8216BE3
:104310000FF0D4FF384804F13C03082202A90090B2
:1043200042F6232001F050FC054600BF6DB9606BDA
:1043300058B132480090606B027904F13C03016887
:1043400042F62A2001F040FC05468DB9A06B78B1F9
:1043500002A8A16B0BF03CFF294804F13C030722A3
:1043600002A9009042F6502001F02EFC054600BF45
:10437000002007B030BD000018AC0020B47003006E
:104380009C2A00204265686176696F72616C2054D6
:104390006563686E6F6C6F67792047726F75702CFC
:1043A00020496E632E0000005061766C6F6B2D53B8
:1043B000000000005320554E4B00000030353237CE
:1043C00038312D39420000003136303831375F3016
:1043D000333A323000000000563A302E372E320089
:1043E000542A00205C2A0020642A00206C2A002025
:1043F000742A00207C2A0020842A00208C2A002095
:10440000942A002010B504462046FFF7D5FD20462B
:104410000BF08AFC2046FFF72FFD2046FFF788FDB2
:10442000204608F00DFD2046FFF752FB21460B48C1
:1044300006F010FD20460FF079FA204600F0AEFF9E
:10444000204606F0CDFA204604F01AFE204610F071
:104450001DFA2046FEF77CFE10BD00007CAB00205C
:1044600008B50020009069460F48006812F055F921
:104470000098B0B100BF4FF080500C49086040BFB9
:1044800000BF00BF00BFBFF34F8F00BF00BF00BF22
:1044900000BF00BF00BFBFF36F8F00BF00BF00BFF2
:1044A00000BF002008BD0000142A002004ED00E039
:1044B00070B504460D462846FBF750F8208065602D
:1044C00070BD70B50446204610F0ADFD054605F000
:1044D000010070BD70B586B049480068059000BF06
:1044E000484B5022484905A80FF022F8054600BF66
:1044F0002E4626B100BF3046FDF74EFA00BF00BF82
:1045000000BF0020049004A80EF072FF044600BF14
:10451000254625B100BF2846FDF73EFA00BF00BF83
:1045200000200190029003900190029003900120DE
:104530008DF8040001A9049A69DF044600BF2546EE
:1045400025B100BF2846FDF727FA00BF00BF0020B5
:104550000190029003904FF46060019001A9A120A6
:10456000049A69DF044600BF254625B100BF2846EE
:10457000FDF712FA00BF00BF0020019002900390E7
:1045800001208DF8040000208DF805008DF806004C
:1045900001A94020049A69DF044600BF254625B1E1
:1045A00000BF2846FDF7F8F900BF00BF04A80EF0D1
:1045B00035FF044600BF254625B100BF2846FDF75C
:1045C000EBF900BF00BF11480EF01CFF044600BF0E
:1045D000254625B100BF2846FDF7DEF900BF00BF24
:1045E0000B480EF0FBFF044600BF254625B100BF77
:1045F0002846FDF7D1F900BF00BF06B070BD00002E
:10460000B07003006144020098AB00200544020032
:10461000AB42030008B50FF097FE684600F0F0FBD0
:1046200004F00BFEFFF756FF02F000FD02F076FDEE
:104630000EF05CFBFDF776F801F02EFD0AF072FE3D
:10464000FEF73CF99DF80000FDF7A8F80BE000BF6D
:1046500000235A1E19460448006811F059FE00282C
:10466000F6D003F0DDFDF2E7142A00201CB5044665
:104670006A4601A9204603F097F80648019950F8C8
:1046800021000121009A914088430249019A41F892
:1046900022001CBD008300201CB504466A4601A907
:1046A000204603F081F80648019950F821000121C5
:1046B000009A914008430249019A41F822001CBD2A
:1046C0000083002010B502460949885C00BF4FF006
:1046D000A0442146D1F80435012484409C43C1F80C
:1046E0000845012484401C40C1F80C4500BF10BDA2
:1046F0007C6E030010B504460249085D012107F0F5
:10470000B6FD10BD7C6E030010B504460249085D7D
:10471000002107F0ACFD10BD7C6E030010B5014612
:10472000094B585C00BF4FF0A044234600BFD3F8AC
:104730000445C44004F001040CB1012000E0002055
:10474000024682F0010010BD7C6E03007CB500249F
:104750000CE00948055D0020009003460122114647
:104760000190284607F04CFC00BF641C052CF0D3D8
:1047700000F004F87CBD00007C6E030010B500243E
:1047800003E02046FFF7B6FF641C052CF9D310BDEB
:1047900010B5002403E02046FFF7B6FF641C052C8B
:1047A000F9D310BD02464FF0FF30002106E0054B63
:1047B0005B5C934201D1084602E0491C0029F6D017
:1047C00000BF7047816E03002DE9F04106460C469C
:1047D000002500273046FFF7E5FF07463FB91CB12B
:1047E000012C03D1162501E0172500BF00BF35B10C
:1047F0000448006818B12846024909688847BDE89E
:10480000F0810000C02900202DE9F04106460A2E63
:104810002DD004DC042E2DD0072E51D13BE0162ED6
:1048200002D0172E4CD102E000F09CFA49E000279C
:1048300000F0B4FA244908600846006809F074FCE6
:104840000746022009F0F6FC054605F11608A8F80F
:10485000007006202870FDF7A7FB28B905F11401A8
:10486000022009F077FE01E0FDF7F8F929E00EF0EB
:1048700051FB26E013211548008876DF0446082CFA
:1048800008D000BF254625B100BF2846FDF784F8B3
:1048900000BF00BF15E00D4800884FF6FF71884249
:1048A0000DD1FFF755F90446082C08D000BF254666
:1048B00025B100BF2846FDF76FF800BF00BF00E03C
:1048C00000BF00BFBDE8F081282A0020102A002088
:1048D00070B5044600250548007800F0010018B1C5
:1048E000204600F049F80546284670BDB82900204A
:1048F00070B505460E460024164805601648066049
:1049000005F0020088B12CB9332201211348FCF7CD
:10491000A3FF044614B9FCF789FF04462CB9104ADA
:1049200000211048FDF752F8044605F0010008B1D7
:10493000FFF70CFF2CB90C4A00210C48FDF746F894
:1049400004462CB90A4A01210A48FDF73FF80446FB
:10495000204670BDB8290020C029002098700300AF
:10496000E14D020094700300318702008C70030057
:104970001F180200907003002DE9F0410446002644
:104980000025C248007820B10020C049087003F01B
:10499000BBFE182C77D2DFE804F00C11123E6A98A7
:1049A000C3D0D6F2F0EFEEEDECEBEAE9E8E7E6E5AE
:1049B000E4E303F0A9FEB648047063E100BF002001
:1049C000FFF7ACFE58B10020FFF794FE022C02D195
:1049D0004FF4E16001E04FF47A60054609E0002001
:1049E000FFF792FE022C01D1C82001E04FF4C870FD
:1049F0000546A74804704FF4FA7000EB85204FF489
:104A00007A71B0FBF1F700223946A2480068FDF741
:104A100015F8064636E10020FFF780FE58B1002069
:104A2000FFF768FE032C02D14FF4487001E04FF409
:104A30007A60054609E00020FFF766FE032C01D1ED
:104A4000C82001E04FF4C8700546914804704FF447
:104A5000FA7000EB85204FF47A71B0FBF1F7002279
:104A600039468C480068FCF7E9FF06460AE1002059
:104A7000FFF754FE60B10020FFF73CFE042C03D189
:104A80004FF47A6002E0FCE04FF47A6005460AE0F9
:104A90000020FFF739FE042C02D14FF4C87001E06A
:104AA0004FF4C87005467A4804704FF4FA7000EB72
:104AB00085204FF47A71B0FBF1F700223946754832
:104AC0000068FCF7BBFF0646DCE00020FFF726FE8F
:104AD00050B10020FFF70EFE052C01D1C82001E0E7
:104AE0004FF47A60054609E00020FFF70DFE052C23
:104AF00001D1C82001E04FF4C87005466448047035
:104B00004FF4FA7000EB85204FF47A71B0FBF1F7A7
:104B1000002239465F480068FCF790FF0646B1E086
:104B20000020FFF7CFFD5A48047000226621594843
:104B30000068FCF783FF0646A4E00020FFF7E4FDD1
:104B4000534804709EE0012050490870FFF7BAFDF9
:104B5000002266214F480068FCF770FF064691E08E
:104B60008AE088E07CE073E06AE064E039E037E006
:104B700035E033E031E02BE01CE00EE0FFE7012000
:104B800042490870FFF79EFD00224FF40071414832
:104B90000068FCF753FF064674E001203B490870AB
:104BA000FFF790FD002266213A480068FCF746FFB7
:104BB000064667E0012035490870FFF783FD0022B3
:104BC0004FF4007133480068FCF738FF064659E09F
:104BD000FFF7DEFD2E48047054E000BF00BF00BFA9
:104BE00000BF2D480068FCF79FFF0646C4F1110581
:104BF000D5B1CEB9012D10D9A8B2C82148434FF480
:104C0000FA7101EB8020490090FBF1F70022394650
:104C100021480068FCF712FF06460220FFF774FDEA
:104C200001201E49087005E00220FFF763FD002007
:104C30001A49087026E003F067FD1548047021E06A
:104C400003F062FD0020FFF75FFD1148047019E0DA
:104C500003F05AFD0120FFF757FD0D48047011E0E5
:104C600003F052FD0020FFF74FFD0120FFF74CFD40
:104C70000748047006E000BFFFF78AFD044804708F
:104C800000E000BF00BF3046BDE8F081B52900203C
:104C9000B42900208C70030090700300BC29002010
:104CA0000246002901DA002003E013680B44136078
:104CB000012070472DE9FC4704460D46641C01277E
:104CC000B8460020019001A8FCF774FF1C4800685A
:104CD00028601B4800681A494968411A18488068CA
:104CE000401C461A04EB0709B1451CD9C6B115484A
:104CF0000068009014480068009960F39F210091BB
:104D00000F48009A00680E490968491C0C4B19604D
:104D100019468968084003F10C0141F8202000BFC2
:104D20004FF0000804E00648006820440449086089
:104D30009DF80400FCF744FF4046BDE8FC870000F6
:104D4000148400205870030098290020044840680B
:104D500003490968884201D1012070470020FCE71F
:104D60001484002038B5002400200A4908600A484D
:104D7000006812F057F804465CB911F03DFE054694
:104D8000022000232A46012100900348006812F007
:104D900013F838BD242A0020202A002038B500242A
:104DA0000D48006812F03EF80446012C0FD1022095
