:020000040000FA
:1000000040140020E1040000E9040000AD040000F9
:10001000ED040000EF040000F10400000000000007
:1000200000000000000000000000000015040000B7
:10003000F50400000000000051040000F904000075
:10004000810B0000FB04000031110000590E00007C
:100050006D0E0000FB040000790800008D0C00000C
:10006000FB040000FB040000FB040000FB04000094
:10007000FB040000FB040000FB040000FB04000084
:10008000FB0400000D0C0000FB040000FB0400005A
:10009000FB040000FB040000990E0000FB040000BC
:1000A000FB040000FB040000FB040000FB04000054
:1000B000D10B0000FB040000000000000000000065
:1000C000FB040000E50B0000F90B0000810E0000AE
:1000D000FB040000FB040000FB0400000000000023
:1000E0000000000000000000000000000000000010
:1000F0000000000000000000000000000000000000
:1001000000000000000000000000000000000000EF
:1001100000000000000000000000000000000000DF
:10040000DFF80CD000F016FA00480047192500006C
:1004100040140020244B19680868B0E8F04F80F3BE
:100420000988BFF36F8F4FF0000080F31188704789
:10043000000000000548006880F3088862B661B6D5
:10044000BFF34F8FBFF36F8F00DF0000000000008D
:10045000EFF30980BFF36F8F134B1A681EF0100F74
:1004600008BF20ED108A20E9F04F106008B44FF06B
:10047000200080F31188BFF34F8FBFF36F8F04F01C
:100480003BFD4FF0000080F3118808BC1968086834
:10049000B0E8F04F1EF0100F08BFB0EC108A80F3E8
:1004A0000988BFF36F8F704700000020094B1EF0D2
:1004B000040F1CBFEFF309801847EFF308800649CB
:1004C000064A884201D8904202D88D464FF000007B
:1004D00018470000B10A000040140020400C002022
:1004E0000648804706480047FEE7FEE7FEE7FEE7CE
:1004F000FEE7FEE7FEE7FEE7FEE7FEE7D90E0000B7
:100500000104000040EA01039B0703D009E008C989
:10051000121F08C0042AFAD203E011F8013B00F8C8
:10052000013B521EF9D27047D2B201E000F8012B14
:10053000491EFBD270470022F6E710B513460A4663
:1005400004461946FFF7F0FF204610BD2DE9FE4F87
:1005500081EA030404F0004421F0004100944FF0CC
:10056000000B23F0004350EA01045ED052EA03047A
:100570005BD0C3F30A54C1F30A552C44A4F2F334FC
:100580000194A0FB0254C1F3130141F48011C3F3A1
:10059000130343F4801301FB024400FB034E840A5F
:1005A000970A44EA815447EA8357A4FB07680295F7
:1005B0008D0A05FB07854FEA932C04FB0C54270595
:1005C000029D4FEA065847EA1637B5EB08056EEB71
:1005D000070C870E920E47EA811742EA8312A7FBA7
:1005E0000201B6EB0B0164EB00042B0D43EA0C3364
:1005F0005E1844EB1C50DA465146E7FB0201C5F396
:1006000013044FEA0B3343EA14534FEA0432019CBC
:1006100043EA0603A4F10C040294009CCDE900B463
:1006200000F0BAF803B0BDE8F08F00200146F9E70A
:100630002DE9F04D81EA030404F0004B21F0004560
:1006400014464FF0000A23F0004150EA050220D082
:1006500054EA01021DD0C5F30A570246C5F313033D
:10066000C1F31300C1F30A5640F4801543F480131C
:10067000A7EB0608101BD64608F2FD3873EB050001
:1006800002D308F1010801E092185B41B8F1000FB4
:1006900003DA00200146BDE8F08D00204FF4801100
:1006A000064684460EE0171B73EB050705D3121BA5
:1006B00063EB050306434CEA010C49084FEA30009E
:1006C00092185B4150EA0107EDD152EA030012D0C3
:1006D00082EA040083EA0501084305D0101BAB4100
:1006E00006D20122002306E000224FF0004302E080
:1006F0006FF0010253101AEB06004CEB085110EB9F
:100700000A0041EB0B01BDE8F04D00F036B80EB524
:1007100040F2334102910021CDE900110A460B4617
:1007200000F03AF803B000BDC1F30A5210B5C1F3AE
:10073000130140F2FF3341F480119A4201DA0020A4
:1007400010BD40F233439A42A2F2334203DC5242DC
:1007500000F003F810BD904010BD202A04DB203AC1
:1007600021FA02F00021704721FA02F3D040C2F1D1
:100770002002914008431946704710B5141E73F1CA
:10078000000408DA401C41F1000192185B411A4351
:1007900001D120F0010010BD2DE9F04D92469B469D
:1007A00011B1B1FA81F202E0B0FA80F22032904643
:1007B00000F052F804460F4640EA0A0041EA0B01F5
:1007C00053465A46084313D0114653EA010019D044
:1007D000C8F140025046FFF7C0FF05460E4650469E
:1007E0005946424600F038F8084305D0012004E09D
:1007F00020463946BDE8F08D0020054346EAE07604
:100800002C4337430A986305E40AA0EB0800002252
:10081000FD0A44EA47540A3002D500200146E9E7C0
:10082000010510196941DDE9084500196941BDE874
:10083000F04DA2E7064C074D06E0E06840F00103EA
:1008400094E8070098471034AC42F6D3FFF7DCFD7C
:10085000DC520000FC520000202A04DB203A00FA9F
:1008600002F1002070479140C2F1200320FA03F307
:1008700019439040704700002DE9F04F89B04FF0C8
:100880000008002008904FF4807007900126002493
:1008900013E0079802F0E6FC48B100BF8148006809
:1008A000304020B1079802F0CFFC48EA06087600F5
:1008B0000798001D80B20790641C082CE9D34FF400
:1008C000BE7002F0CFFC50B14FF4BE7002F0BCFC21
:1008D00048F0004808AA0121002002F09BFC08F023
:1008E000FF0000B3012600241BE006EA0800B0B1B7
:1008F00000BF6D4850F82400C0F30420074600BF35
:10090000694850F82400C0F301408146204600F0B9
:10091000BFFD054615B149463846A84700BF7600D9
:10092000641C082CE1D308F0004000287ED0002091
:1009300006900590002505E04FF0FF3004A941F82E
:1009400025006D1C002DF7D000BF0020069000246C
:100950006FE05648005D0390039820F0C0075348AD
:100960000057401C002863D004A9384601F0A4FEBB
:1009700000285DD003984FEA901A384600F090FDA9
:10098000814600F085FD0290029810B9BAF1030F7C
:100990004BD1BAF1030F11D1394605A80246CB0855
:1009A00001F0070112F803C04FF0010E0EFA01FE2C
:1009B0004CEA0E0C02F803C000BF00BF00BF00BF2E
:1009C0004FF0A041084600F5E06151F82710C1F34F
:1009D000014900BF08A9384601F06EFE8346BBF10D
:1009E000000F02D0B9F1020F05D0BBF1000F1BD1EF
:1009F000B9F1030F18D1BAF1030F0FD1B9F1020FFA
:100A000001D1032000E0022001903846019902F054
:100A10009AFB0698401CC0B2069000BF029818B11D
:100A200051463846029A904700BF00E036E000BFCA
:100A3000641C042C8DD3069858B3012703AA012106
:100A4000002002F0E7FB00250AE003A850F825008B
:100A500008A951F82510884201D0002702E06D1C3A
:100A6000002DF2D000BF17B10020069010E0002545
:100A70000CE003A850F8250008A941F8250005A8B6
:100A800050F8250004A941F825006D1C002DF0D078
:100A900000BF069800287FF458AF00BF09B0BDE83A
:100AA000F08F00000463004010650040EC0100205E
:100AB000044609A10120A26902F036FD00BF02F040
:100AC0001FFC00BF00BF02F021FC0028FBD100BFCB
:100AD00000BF204600F012F8484152444641554CB0
:100AE000543A4552524F523A486172646661756C8D
:100AF000742050433A25780D0A00000000BF00BF63
:100B000000BF00BF00BFBFF34F8F00BF00BF00BFDB
:100B10000948006800F4E06008490843001D0649E0
:100B2000086000BF00BF00BFBFF34F8F00BF00BF12
:100B300000BF00BF00BFFDE70CED00E00000FA05BC
:100B400000BF00BF00BFBFF34F8F00BF00BF00BF9B
:100B50000948006800F4E06008490843001D0649A0
:100B6000086000BF00BF00BFBFF34F8F00BF00BFD2
:100B700000BF00BF00BFFDE70CED00E00000FA057C
:100B800010B54FF4807001F0A2FD60B14FF4807099
:100B900001F0A6FD012001F0ADFD01200B494870D8
:100BA000002000F0CFFC4FF4827001F090FD58B1AE
:100BB0004FF4827001F094FD022001F09BFD0120B2
:100BC0000249887000F0BEFC10BD000088010020C2
:100BD00010B50249024801F065FB10BDB8020020C3
:100BE00000C0014010B50249024801F05BFB10BD96
:100BF000C00200200010024010B50249024801F076
:100C000051FB10BDC8020020002002402DE9F04138
:100C10004FF4A0711A4802F0F9FC002400BF00BF95
:100C2000EFF311800546202000F0A3FA00BF2E4606
:100C300000BF1448006807464FF48071104802F066
:100C4000E5FC04F009FA381A20F07F45012D04D99B
:100C500004F0F2F9022800D0012502E004F002FAC3
:100C60000443281EA5F10105F8D124B14FF08050AE
:100C70000549086040BF304600F07BFABDE8F081CE
:100C8000001001400415014004ED00E0FEB54FF4F2
:100C9000827002F0CBFC002837D04FF4827002F053
:100CA000CFFC6C4890F82E0018B16A4890F82F00DD
:100CB00058B300208DF800006648406801906548F0
:100CC0000189ADF80810C06818B90020614908749E
:100CD00012E06048008B5F4948830846C06848605E
:100CE0000846008B08810020C860084690F82E0056
:100CF00010B9002002F0B0FC5648016868468847E9
:100D00000020544981F82F0000BF524890F82E006F
:100D1000002852D04FF4807002F088FC00284CD09C
:100D20004FF4807002F08CFC4A48408B494991F89E
:100D30002D10884216DD4748408B464991F82D100A
:100D4000401A444948830A4612890B465B8BD21AE3
:100D50000B465B6803EB42000A4692F82D1002F046
:100D60005DFC23E03B48408B3A4991F82D108842C6
:100D70000FD13848C06860B10120364981F82F0092
:100D8000002048830A4692F82D10D06802F046FCF5
:100D90000CE03048408B2F4991F82D10884205D146
:100DA00001202C4981F82F00002048834FF48270E5
:100DB00002F046FC042002F04FFC4FF4887002F071
:100DC00035FC70B14FF4887002F03AFC00202149E4
:100DD000087402208DF800000846016868468847BC
:100DE00000BF4FF48A7002F021FC38B14FF48A70D2
:100DF00002F026FC0020174908742AE015484569CE
:100E000024E0B5FA85F64FF00040F0408543B0008D
:100E100000F58C74204602F009FCB8B1204602F0BF
:100E20000FFC01208DF80000A4F58C70C0F3C70002
:100E30008DF80400A4F58C70012121EA90018DF851
:100E40000510044801686846884700BF002DD8D1C6
:100E500000BFFEBD6402002010B50249024801F047
:100E600085FA10BD140200200030004010B503497F
:100E70004FF0402001F07AFA10BD00003C02002043
:100E800010B5034C2146034801F05EFA10BD000086
:100E9000940200200030024070B50A48006868B132
:100EA000084800688047044600BF254625B100BFBA
:100EB000284600F0F9F900BF00BF01E001F07EF91B
:100EC00070BD00006C0000200148024908607047B6
:100ED0000090D003D400002010B500F06DFC10B1DC
:100EE00086488749486700F07FFC28B1854800683C
:100EF000C0F342308449086000F0A0FC28B1834868
:100F0000006820F080708149086000F0AFFC48B1B3
:100F100000207F4908604FF08041C1F810017A49F4
:100F2000091F086000F0CCFC18B103207649643139
:100F3000086000F0DDFC68B10520764908600120FA
:100F400074497831086000207249083108603F20F8
:100F5000091F086000F0E4FC002855D06E480068C6
:100F60006E4908606C48001D0068091D08606A48E9
:100F700008300068091D086067480C300068091DCA
:100F80000860654810300068091D08606248143028
:100F90000068091D08606048183000685F4920310A
:100FA00008605D481C300068091D08605A48203000
:100FB0000068091D0860584824300068091D086051
:100FC000554828300068091D086053482C300068D7
:100FD000091D0860504830300068504940310860B1
:100FE0004D4834300068091D08604B4838300068AF
:100FF000091D086048483C300068091D08604648E3
:1010000040300068091D086000F0ACFB30B13D487D
:101010001430006800F04F00414908603B487438C4
:10102000006840F4700039497439086000BF00BF9F
:1010300000BFBFF34F8F00BF00BF00BF00BF00BFA6
:1010400000BFBFF36F8F00BF00BF00BF354800680F
:1010500000F00100F0B101203349086000BF3348BF
:1010600000680028FBD02F48006820F001004FF0F6
:101070001021C1F80C0200BF2C4800680028FBD0EA
:1010800000202949086000BF284800680028FBD0DC
:10109000FFF756FD23480C38006800F0004028B9DF
:1010A00020480838006800F0004018B301201E49AD
:1010B000086000BF1D4800680028FBD015201949B2
:1010C0000C39086000BF194800680028FBD01521C2
:1010D00014480838016000BF144800680028FBD09D
:1010E00000201149086000BF104800680028FBD0AC
:1010F000FFF726FDFFF7E8FE10BD00000DF0ADBACA
:1011000000C00740440200103C050040FCED00E038
:101110000C010040105600400404001020C500409F
:10112000E40E00400C12001004E5014000E4014010
:1011300010B50648007F20B10449054803F02DFE94
:1011400003E00249024803F087FD10BDF4010020CE
:101150000020004002E008C8121F08C1002AFAD18E
:1011600070477047002001E001C1121F002AFBD127
:101170007047C1B281F311887047F0B587B004465B
:101180000F461546782C02DD022007B0F0BD102D69
:1011900001DD0320F9E7102200210DF10900FFF71E
:1011A000C3F98DF808403B46012202A91E20009594
:1011B00000F0E0FE06460EB90020E6E70420E4E772
:1011C00038B500200090012269460D20FFF7D5FFB9
:1011D00004461CB99DF80000C72801D0002038BD86
:1011E0000120FCE710B504466CB108480068A04235
:1011F00009D806484068A04205D3204601F07EF990
:1012000008B1012010BD0020FCE70000D80000203C
:1012100018A1012002F058F900BF02F071F800BFD8
:1012200000BF02F073F80028FBD100BF00BF15A17A
:10123000032002F049F900BF00BF00BF00BF00BF9C
:10124000BFF34F8F00BF00BF00BF1548006800F418
:10125000E06014490843001D1149086000BF00BF49
:1012600000BFBFF34F8F00BF00BF00BF00BF00BF74
:10127000FDE700003A4552524F523A466174616CA4
:101280000D0A00003A494E464F3A48697420776586
:10129000616B2068616E646C65720D0A000000006D
:1012A0000CED00E00000FA053EB504460020009079
:1012B0000190029002946A46002144F20100FFF777
:1012C000A7FF3EBD00B5024600F006F800BD00B520
:1012D000024600F00BF800BD72B603480068401CDF
:1012E00001490860704700003C0000200448006885
:1012F000401E034908600846006800B962B670479E
:101300003C00002070B505460C462068401C28B102
:10131000206801F052FF206801F0F1FE6068401C77
:1013200018B10021606801F0DDFE28792D4901EB3C
:101330004010007F50B32868A169C0F8241500BF91
:10134000617D227D286841EA0203C0F86C3500BF48
:10135000D4E90012286802F027FA207D01283FD145
:10136000A068401C18B10021A06801F0BBFEE06835
:10137000401C28B1E06801F020FFE06801F0BFFEEA
:10138000D4E90221286802F0FEF929E02868A16961
:10139000C0F8241500BF617D227D286841EA020360
:1013A000C0F86C3500BFD4E90012286802F0D2F909
:1013B000207D012814D1A068401C18B10021A0682C
:1013C00001F090FEE068401C28B1E06801F0F5FEF5
:1013D000E06801F094FED4E90221286802F0A3F944
:1013E00070BD0000F40100202DE9F84304460D46CD
:1013F000641C0127B8460020FFF764FF1B48006803
:1014000028601A48006819494968411A17488068D5
:10141000401C461A04EB0709B1451CD9C6B1144853
:101420000068009013480068009960F39F210091C4
:101430000E48009A00680D490968491C0B4B196059
:1014400019468968084003F10C0141F8202000BFCB
:101450004FF0000804E00548006820440349086094
:101460000020FFF734FF4046BDE8F8835404002015
:1014700028520000680000200448406803490968B9
:10148000884201D1012070470020FCE7540400206D
:101490000146024850F82100704700009C010020DE
:1014A0000146014840567047CC010020014639B141
:1014B0000448884204D80448884201D90120704772
:1014C0000020FCE7D8000020E80000200A49496C11
:1014D00081B10949096C084A02EBC101016011465A
:1014E00091F84010491C01F0070111641146496C44
:1014F000491E5164704700006803002001780229EA
:1015000002D0017803290BD106490A6C817D114470
:10151000044A116411464A6C817D511A014A516492
:10152000704700006803002010B50446072C01DD59
:10153000022010BD0249085D01F034FE0120F8E7E9
:101540008800002070B505460DB9094C01E0084C33
:10155000083409E0204600F0D9FF064606B904E049
:1015600028467168884700BFF4E700BF70BD0000DF
:101570009001002070B501F0B9F9044600BF25467E
:1015800025B100BF2846FFF78FFE00BF00BF70BD2A
:101590002DE9FF4F03460C46002047E0225CFF2A5E
:1015A0003ED0C2F3C01922F080014DF82010B9F1ED
:1015B000000F0DD05DF8201000BF4FF0A0452E4663
:1015C000012707FA01F5C6F8085500BF00BF0DE076
:1015D0005DF8201000BF4FF0A0452E46012707FA06
:1015E00001F5C6F80C5500BF00BF00BF5DF8201024
:1015F00001252E460027BC46B84600BF4FF0A04B41
:10160000DA4645EA460B4BEA870B4BEA0C2B4BEAD2
:10161000084E0AF5E06B4BF821E000BF00BF03E085
:101620004FF0FF314DF82010411CC8B20428B5DB43
:101630006D461A68002107E055F8217002F5AC6686
:1016400046F821704E1CF1B20429F5DB00BFBDE85D
:10165000FF8F70B506460D460EB1012070BD28798A
:1016600020B1012809D0022813D10FE0284602F04A
:10167000D1FB0446022028710DE0284600F0B8F99D
:1016800004460A2C01D141F61D5404E041F61D54D4
:1016900001E00F2400BF00BF2046DFE710B50024A3
:1016A000002002F0BDFE40F2311001F032F8F021CE
:1016B0002748FEF740FFF0220021254802F066FE91
:1016C00000BF07E02248005DFF2801D0002010BDC8
:1016D000601C84B2F02CF5DBAA22F0211D48FEF735
:1016E00023FFF02200211B4802F01AFF012001F025
:1016F00010F8F0220021164802F048FE002407E00E
:101700001348005DAA2801D00020E0E7601C84B2E5
:10171000F02CF5DBF0210E48FEF70DFF002002F063
:101720007FFE40F2311000F0F4FFF0220021084863
:1017300002F02CFE002407E00548005DFF2801D0E0
:101740000020C4E7601C84B2F02CF5DB0120BEE76A
:101750005C0A00204C0B002010B50446A08928DF4D
:1017600010BD000013480078062820D11148001D44
:10177000007800F00F00D0B90E480830007800F073
:10178000F000302801D1012070470A480830007865
:1017900000F0F000402801D10120F5E705480830AD
:1017A000007800F0F000502801D10120ECE7002083
:1017B000EAE70000E00F00F00A48007806280ED1A2
:1017C0000848001D007800F00F0040B905480830B7
:1017D000007800F0F000302801D10120704700208F
:1017E000FCE70000E00F00F013480078062820D145
:1017F0001148001D007800F00F00D0B90E480830E5
:10180000007800F0F000302801D1012070470A482C
:101810000830007800F0F000402801D10120F5E701
:1018200005480830007800F0F000502801D1012070
:10183000ECE70020EAE70000E00F00F00A4800783B
:1018400006280ED10848001D007800F00F0040B9AE
:1018500005480830007800F0F000302801D1012060
:1018600070470020FCE70000E00F00F0134800780C
:10187000062820D11148001D007800F00F00D0B9D3
:101880000E480830007800F0F000302801D1012027
:1018900070470A480830007800F0F000402801D175
:1018A0000120F5E705480830007800F0F0005028E6
:1018B00001D10120ECE70020EAE70000E00F00F092
:1018C0000A48007806280ED10848001D007800F06C
:1018D0000F0040B905480830007800F0F0003028CB
:1018E00001D1012070470020FCE70000E00F00F06C
:1018F0000A48007806280ED10848001D007800F03C
:101900000F0040B905480830007800F0F00030289A
:1019100001D1012070470020FCE70000E00F00F03B
:101920000A48007806280ED10848001D007800F00B
:101930000F0040B905480830007800F0F00050284A
:1019400001D1012070470020FCE70000E00F00F00B
:101950000278072A34D2DFE802F033040710202986
:10196000300000220A702CE001220A7003898B816A
:101970008388CB81C2688A6023E002220A700389CF
:101980008B818388CB81C2688A60027C062A01D160
:10199000012300E000230B7413E003220A70C388C4
:1019A0008B810389CB81C2688A600AE004220A70B5
:1019B000C3888B810023CB8103E005220A7000E0FD
:1019C00000BF00BF7047000070B50546002409E065
:1019D000064850F8240020B1044850F82410284646
:1019E0008847641C082CF3D370BD0000D00200208F
:1019F0003EB504460A4B6A460021A01D02F0C6F916
:101A0000054635B9064A9188019802F08FFA0546D5
:101A100003E0034800210160416028463EBD00000C
:101A20005000002010B50446A07FFF2802D0A07F00
:101A300001F0D9FB00206077207204F10800D4E99E
:101A40000021904710BD0000024909788143014AF6
:101A5000117070474000002001460448007808409B
:101A600008B1012070470020FCE700004000002082
:101A7000024909780143014A117070474000002073
:101A8000F8B505460C4616461F461C48007800F07F
:101A9000010008B90120F8BD2846FFF707FD08B985
:101AA0000220F8E70CB90320F5E7C4F30B0008B1F6
:101AB0000620F0E72868A04204D804EB06306968E5
:101AC000884201D90520E6E70EB90420E3E768461D
:101AD00002F08AF808B90720DDE70098476000980F
:101AE0000560022000990872C4F30F3000998881C4
:101AF0000098068202F034F90020CCE75A0000205A
:101B000070B505460C46204602F0A2F870BD0000F4
:101B10002DE9F84305460C4616461F46DDF82080A1
:101B20001F48007800F0010010B90120BDE8F883DB
:101B30002846FFF7BBFC08B90220F7E706B10CB94D
:101B40000320F3E706F0030010B904F0030008B126
:101B50000620EBE72868A04204D804EB87016868F8
:101B6000884201D20520E1E70FB90420DEE768468C
:101B700002F03AF808B90720D8E70098C0F80480C6
:101B8000009805600120009908720098C6600098CE
:101B900004610098878202F0E3F80020C6E70000A5
:101BA0005A00002070B505460DB1012070BD1848DF
:101BB000007B18B100201649087301E000F0D4F84A
:101BC0001348007808281DD2DFE800F01C04080C38
:101BD000101C141800F03CF8044615E000F0B2F8B0
:101BE000044611E000F08EF804460DE000F044F8E1
:101BF000044609E000F01CF9044605E000F028F96D
:101C0000044601E00F2400BF00BF2046CEE70000DD
:101C1000D00300200C480089401C0B49088100209B
:101C20004880087300BF0CE0084901EB00110978F7
:101C300009B9012200E0002203490A310A54411C7B
:101C400088B20228F0DB7047D0030020B0030020E8
:101C500010B5084800F032F840B900200549891E47
:101C600008704880486041F61D5010BD00F06AF8C9
:101C7000FBE70000D203002070B50D4845880D48F1
:101C800000EB0510808968B90A4800EB05100023B5
:101C9000012241680848FFF7F3FE04460420044986
:101CA000087002E000F08CF80446204670BD000089
:101CB000D0030020B0030020D800002010B501465A
:101CC0000022002015E00D4B1B5C83B100240B4B60
:101CD0001C540B4B03EB00139B8943B9084B03EBDC
:101CE00000139B7B012B02D10880012203E0431CDF
:101CF00098B20228E7DB00BF104610BDDA030020CF
:101D0000B0030020F8B50C4844680C4800680B4943
:101D1000898800EB81056088C01C86B203200649D3
:101D2000087000200090084633462946426804485F
:101D3000FFF7EEFEF8BD0000D003002048000020B1
:101D4000D800002010B507494888091D02F0BEF8E8
:101D500018B1FFF7D7FF044602E0FFF78DFF0446F6
:101D6000204610BDD003002010B514480078082884
:101D700020D2DFE800F0041F1F0A1016171BFFF720
:101D800049FF01200D49087015E000F06DF80220B0
:101D90000A4908700FE000F029F80620074908708A
:101DA00009E000BF07200549087004E0012003494D
:101DB000087000E000BF00BF10BD0000D00300208D
:101DC00010B505200649087002200649888008469B
:101DD0000023012201680448FFF752FE10BD0000F5
:101DE000D003002048000020D80000200D490868DA
:101DF0000D4949880D4A02EB01114968094A1160F1
:101E000009494988094A02EB011148600549898856
:101E1000054A5288054B03EB021211810221014A47
:101E20009180704748000020D0030020B0030020BC
:101E300010B50620044908704988044A02EB0111D4
:101E4000486801F0E3FC10BDD0030020B00300207F
:101E500010B50720034908700020486001F0E6FC37
:101E600010BD0000D0030020054A50684288D21CF3
:101E700091B2044A92880A44024B9A80704700004B
:101E8000D003002048000020F0B587B004460F467C
:101E90001546152C02DD022007B0F0BD082D01DD2E
:101EA0000320F9E7082200210DF10900FEF73CFBB1
:101EB0008DF808403B46012202A92020009500F041
:101EC00025F806460EB90020E6E70420E4E738B519
:101ED00000200090012269460C20FFF7D5FF044640
:101EE0001CB99DF80000D72801D0002038BD012082
:101EF000FCE7014688884FF6FF72904203D00888BD
:101F000008B1012070470020FCE700002DE9F843EC
:101F100004460D4616461F46DDF820904FF0000897
:101F2000012033462A4621460090084800F0D4FF9D
:101F30008046B8F1000F06D14B463A462146034889
:101F400000F0B4FF80464046BDE8F8834C520000E4
:101F5000F8B504460D4616460027002033462A46AB
:101F600021460090024800F0B7FF07463846F8BD0A
:101F70004C5200002DE9F84304460D4616461F4614
:101F8000DDF820904FF00008012033462A46214614
:101F90000090084800F0A0FF8046B8F1000F06D17D
:101FA0004B463A462146034800F080FF80464046B3
:101FB000BDE8F8835452000030B589B01C48007861
:101FC00008B109B030BD1B4B0FCB05AC0FC4194B8A
:101FD00010330FCB01AC0FC400231A4605A91648D5
:101FE00000F016FF044600BF254625B100BF284675
:101FF000FFF75AF900BF00BF00231A4601A90F4896
:1020000000F006FF044600BF254625B100BF284664
:10201000FFF74AF900BF00BF074800F0E7FE074896
:1020200000F0E4FE01200249087000BFC9E700008B
:10203000850000205C5200004C5200005452000009
:102040002DE9F04106460C460F272EB10120FFF77F
:10205000FBFC0120BDE8F081207930B101280AD0D5
:10206000022833D0032864D13EE001F0DFFB0746AD
:10207000012020715EE04FF00008002516E0324894
:1020800000EB0510007802280ED12F4901EB051155
:10209000486801F0BBFB074600202B4901EB051106
:1020A00008704FF0010803E0681C85B2022DE6DBE2
:1020B00000BFB8F1000F08D10220FFF7D9FC0120C2
:1020C000FFF7C2FC41F61D50C4E733E01F48002370
:1020D000012201681E48FFF7D3FC074602201B4976
:1020E00088800020207125E01849086801F08EFBE7
:1020F0000746184845881548D0F80080124800EB7C
:1021000005104068114908600F4800EB0510C0F841
:102110000480084680880C4901EB051108810220E3
:102120000A4988800020084901EB051108702071D8
:1021300000E000BF00BF27B10120FFF785FC0E20A3
:1021400088E7002086E70000B00300204800002058
:10215000D8000020D00300202DE9F0410024002009
:1021600004461FE01349085D0122134600252E4650
:10217000294600BF4FF0A04C674642EA430C4CEAA8
:10218000850C4CEA062C4CEA014807F5E06C4CF84B
:10219000208000BF00BF0749085D01F003F8601C04
:1021A000C0B20446072CDDDB012003490870BDE8FE
:1021B000F0810000880000208F00002038B513480F
:1021C000007800B938BD002500BFC5B910480078B7
:1021D00000B1F7E7684648DF0446052C01D1012528
:1021E0000CE024B100BF2046FFF75EF806E0094886
:1021F000006818B1074900980968884700BF05B111
:1022000000E0E2E700BF00BFDCE700007400002050
:10221000750000207000002070B504460D4620793E
:102220001D4901EB4010007FF8B14FF48871206820
:1022300001F0A2FA4FF49071206801F09DFA4FF47A
:102240009271206801F098FA4FF4A271206801F0B1
:1022500093FA1249206801F09FFA206800F0B2FB5F
:102260000646294600F07EFB14E04FF48E7120688C
:1022700001F052FA4FF4A271206801F04DFA0849BA
:10228000206801F058FA206800F09CFB06462946B9
:1022900000F068FB70BD0000F40100201003020094
:1022A0008000020070B505460C464FF48871284640
:1022B00001F074F968B14FF48871284601F075F99E
:1022C000607900F0040020B1206810B1012021687D
:1022D00088474FF48A71284601F060F968B14FF4DD
:1022E0008A71284601F061F9607900F0080020B198
:1022F000206810B10220216888474FF48E7128466B
:1023000001F04CF968B14FF48E71284601F04DF997
:10231000607900F0100020B9206810B10020216819
:1023200088474FF48271284601F038F958B14FF4CC
:102330008271284601F039F901202071206810B11E
:1023400003202168884770BD70B505460C464FF4E0
:102350008C71284601F086F938B14FF48C7128460B
:1023600001F087F92046FFF75DFB70BD7FB506469B
:102370000C464FF49271304601F091F9E8B14FF4F8
:102380009271304601F092F94FF48271304601F0BB
:1023900086F990B9A168304601F08FF90220A0605B
:1023A000A168304601F08CF92021304601F099F9FE
:1023B0001421304601F095F97FBD4FF4827130460B
:1023C00001F06DF9002844D04FF48271304601F0DD
:1023D0006DF9D4E90412E06801AB07C394F8230057
:1023E000D8B1207B012804D1304601F072F9C0B287
:1023F00003E0304601F07EF9C0B28DF80600207B84
:10240000022804D1304601F064F9C0B203E030463E
:1024100001F070F9C0B28DF807004FF4B07130468A
:1024200001F044F94FF4AE71304601F03FF994F8F1
:10243000250018B194F8230000283ED00021304632
:1024400001F04CF90020A060411E304601F035F942
:1024500033E04FF4A471304601F028F9207B90B9A5
:10246000D4E90412E06801AB07C394F8250020BB4F
:102470000021304601F032F90020A060411E3046B4
:1024800001F01BF919E04FF40071304601F026F914
:1024900040F20220A0604FF0FF31304601F00DF90C
:1024A000A168304601F00CF90821304601F019F915
:1024B0002021304601F015F97EE7304601F0E9F8B9
:1024C000054605F0020018B101208DF8000009E072
:1024D00005F0040018B102208DF8000002E0002091
:1024E0008DF8000094F8250010B9002084F824002D
:1024F0006846D4E90021904700BF5DE7014601F03E
:10250000030008B9012070470020FCE70146086875
:1025100008B102680A6070471CB500BF00BFFFF732
:1025200029F8FFF719FEFFF747FD02F07BF801F0ED
:10253000A5FA01F011FA19260027002000903B4669
:10254000024601460190304600F0ACFD00BF052078
:1025500002F04AF8062002F047F8022000F0E7FDFA
:102560001A2000F0E4FD1A2000BF4FF0A0410A46F7
:10257000012303FA00F1C2F80C1500BF00BF0220CE
:1025800000BF4FF0A0410A4603FA00F1C2F8081557
:1025900000BF00BF642000F0B3F800240025A0466F
:1025A000002002F021F8012002F01EF8022002F0C3
:1025B0001BF8032002F018F8042002F015F84FF47D
:1025C000FA61322001F076FA4FF47A61462001F088
:1025D000DFF94FF4FA6000F093F84FF4FA6100204D
:1025E00001F068FA4FF4FA61002001F0D1F9FEF72A
:1025F000E7FD04461CB10020FEF796FF03E045F01E
:1026000001054FF00108FFF762FC04461CB10120F0
:10261000FEF78AFF03E045F002054FF0010801F0E4
:1026200049FD044694B1224801F086FD40F2F230A3
:1026300000F066F81F4801F00BFD1E4890F90000FD
:10264000012807DB0220FEF76FFF03E045F00405D9
:102650004FF00108FFF722F804461CB10320FEF7F3
:1026600063FF03E045F008054FF00108B8F1000FE3
:1026700003D10520FEF758FF02E00620FEF754FFC5
:10268000192000BF4FF0A042114600BFD1F810251D
:10269000C24002F00102144624B100BF042001F040
:1026A000A3FF02E00420FEF73FFF00BFFEE70000AB
:1026B000770000207E00002030B502460B46D4088B
:1026C00002F00702012090401D5D284030BD014608
:1026D0004FF08040405808B1012070470020FCE7CF
:1026E00008B500224FF080410A500958009100BF00
:1026F00008BD000001490860704700000803004061
:1027000010B504464FF47A7104FB01F000F056F85E
:1027100010BD10B504464FF47A7104FB01F000F0CF
:1027200099F810BD00B9704700BF00BF00BF00BFDF
:1027300000BF00BF00BF00BF00BF1E4909681E4A9E
:10274000914200D130E000BF00BF00BF00BF00BF1A
:1027500000BF00BF00BF00BF00BF00BF00BF00BF81
:1027600000BF00BF00BF00BF00BF00BF00BF00BF71
:1027700000BF00BF00BF00BF00BF00BF00BF00BF61
:1027800000BF00BF00BF00BF00BF00BF00BF00BF51
:1027900000BF00BF00BF00BF00BF00BF00BF00BF41
:1027A00000BF00BF00BF00BF401E00D0BDE700BF9C
:1027B000B9E70000D40000200024F40000B97047FD
:1027C00000BF00BF00BF00BF00BF00BF00BF00BF11
:1027D00000BF1E4909681E4A914200D130E000BF87
:1027E00000BF00BF00BF00BF00BF00BF00BF00BFF1
:1027F00000BF00BF00BF00BF00BF00BF00BF00BFE1
:1028000000BF00BF00BF00BF00BF00BF00BF00BFD0
:1028100000BF00BF00BF00BF00BF00BF00BF00BFC0
:1028200000BF00BF00BF00BF00BF00BF00BF00BFB0
:1028300000BF00BF00BF00BF00BF00BF00BF00BFA0
:10284000401E00D0BDE700BFB9E70000D400002063
:102850000024F40000B9704700BF00BF00BF00BFF4
:1028600000BF00BF00BF00BF00BF1E4909681E4A6D
:10287000914200D130E000BF00BF00BF00BF00BFE9
:1028800000BF00BF00BF00BF00BF00BF00BF00BF50
:1028900000BF00BF00BF00BF00BF00BF00BF00BF40
:1028A00000BF00BF00BF00BF00BF00BF00BF00BF30
:1028B00000BF00BF00BF00BF00BF00BF00BF00BF20
:1028C00000BF00BF00BF00BF00BF00BF00BF00BF10
:1028D00000BF00BF00BF00BF401E00D0BDE700BF6B
:1028E000B9E70000D40000200024F40010B5002453
:1028F0001348007808B1852420E000201049886042
:1029000048600861C86000BF00BF4109890001F14B
:10291000E021D1F8001101228240114009B10121CA
:1029200000E0002119B90721002000F01BF800BFCA
:1029300001200449086000BF01490870204610BD0D
:10294000880100201805004000BF00F01F0201218F
:102950009140034A430942F8231000BF704700002A
:1029600080E100E070B50B4601461A46002907DAFF
:102970005407260E104C01F00F052D1F665503E07D
:102980005407250E0D4C655400BF00BF00F01F0218
:10299000012191400A4A440942F8241000BF00BFB7
:1029A00000F01F02012191404209920002F1E02251
:1029B000C2F8001100BF70BD18ED00E000E400E0B7
:1029C00080E200E00146C1F3073250B27047014691
:1029D000C1F3073250B270470146C1F3073250B21B
:1029E0007047014601F06040B0F1005F01D1012065
:1029F00070470020FCE7014601F06040B0F1005F45
:102A000001D1012070470020FCE700002DE9F047CC
:102A100004460D4690462079284901EBC0063079DE
:102A200018B108273846BDE8F087C6F80080294667
:102A30002046FEF7ADFD20680121C0F8001500BF5B
:102A40006979AA792B892068C0F80C15C0F804258B
:102A5000C0F8083500BFA97AEA7A206841EA022363
:102A6000C0F8103500BF0021206800F0C9FD00212A
:102A7000206800F0A1FD4FF48E71206800F095FDF4
:102A80004FF48871206800F090FD4FF48A7120683F
:102A900000F08BFD4FF48271206800F086FD3068F5
:102AA00030B12068FFF798FF81462979FFF75AFF78
:102AB0000120307100273846B5E70000B802002039
:102AC00070B504462079094901EBC0050026287934
:102AD000022800D001264FF48271206800F05EFDCC
:102AE00010B1012028710126304670BDB8020020C7
:102AF0002DE9F05F0446894615461E4620791C499B
:102B000001EBC00A4A460021206800F05BFD4A46FE
:102B10000121206800F056FD05F00107AB4605EBEA
:102B2000DB7207EB620291B2206800F048FD06F00C
:102B3000010010B14FF010080AE006F0020028B1C1
:102B40000FB1082000E00420804601E04FF00008AB
:102B50004146206800F054FD0FB10C2000E0082031
:102B60000346F2B25146204601F04BFEBDE8F09F0D
:102B7000B802002070B504460D4600262046FFF737
:102B80009FFF08B101260DE00421206800F03BFD05
:102B900000BF2046FFF794FF08B1012601E0002D99
:102BA000F7D100BF304670BD70B5054628790D4994
:102BB00001EBC0062868FFF70FFF0446204600F02F
:102BC0001F0201219140084A430942F8231000BF27
:102BD00000BF28680021C0F8001500BF0020307138
:102BE00070BD0000B802002080E100E02DE9FF4F39
:102BF00083B081460C46934699F8050000EBC0006F
:102C00004F4901EB8006307F28B14FF0080A50464B
:102C100007B0BDE8F08FC6F800B006987060207B62
:102C2000012803DC207800F0B2FA02E0207800F0FE
:102C3000DAFA002000900190207800231A46012142
:102C400000F01CFA6078FF2808D094F80180404614
:102C500000F09DFA404600F05EFA01E04FF0FF38C8
:102C6000A078FF280CD0A7780025002000902B46E4
:102C7000024601460190384600F000FA00BF01E02C
:102C80004FF0FF37E078FF2805D0E07800F0ABFA8E
:102C9000E07800F040FAE07899F8051001EBC10106
:102CA000274A02EB81018877D9F80050284621781D
:102CB000C0F80815C0F80C854FF4A262175000BF89
:102CC000A068C5F8240500BF217B627B0AB10123FF
:102CD00000E00023184631B1012906D0022907D0AF
:102CE000032908D000BF00BF08E040F0020005E063
:102CF00040F0040002E040F0060000BF00BFC5F84D
:102D0000540500BF6079C5F8C00500BF306818B130
:102D10004021284600F0B7FC00BF0720C5F8000599
:102D200000BF306820B1217999F90400FFF71AFE3D
:102D300000207077012030774FF0000A504667E797
:102D4000940200202DE9FF4107460C4615461E4619
:102D5000DDF82880009402968DF804508DF80C80E0
:102D600000226946384600F003F804B0BDE8F0815F
:102D70002DE9F04105460E461746687900EBC00084
:102D8000194901EB80044FF00008607F20B14FF03B
:102D900011084046BDE8F081206820B107F014001A
:102DA00008B90120607796E80E10C4E9053CC4E933
:102DB00003121E34E07820F00100E070E07820F08B
:102DC0000200E070E07820F00400E07014F81E09C2
:102DD000FF2802D0A07F00F0DAF93B4632462146B8
:102DE000286801F08DFCD5E794020020027902EBFF
:102DF0008202064B03EBC201026800BF0623C2F841
:102E0000003500BF022281F8222070471402002002
:102E10002DE9F04706460C4690469946307900EB7E
:102E20008000204901EBC00595F8220018B1082761
:102E30003846BDE8F087083545F8088C45F8049C0D
:102E40000020286068772877A07BE877083D607BC2
:102E500010B1204601F024FD40F20C6112482268B6
:102E600040F82210626840F8221030680146D4E928
:102E70000023C1F80825C1F80C3500BFA168C0F8CF
:102E8000241500BF286830B13068FFF7A0FD8246E6
:102E9000217BFFF767FD012085F8220000273846D7
:102EA000C7E700001402002000070050FEB50746E7
:102EB0000C4615461E46074A07CA8DE807008DF8DE
:102EC00001408DF80260019500226946384600F005
:102ED00021F8FEBDE05100002DE9FE4307460C46F7
:102EE00015461E46DDF828800020009001900290D3
:102EF0008DF801408DF802600195B8F1000F01D006
:102F0000202000E0002002466946384600F002F822
:102F1000BDE8FE832DE9F04104460D461646002724
:102F2000207900EB8000064901EBC00833462A46B1
:102F30004046216801F012FD07463846BDE8F081A1
:102F4000140200202DE9F04105460E461746287967
:102F50001C4901EB40144FF00008E07E20B14FF017
:102F600008084046BDE8F081707F2077314628464A
:102F7000FEF7C8F9676030692060606818B1317F7A
:102F80002846FFF749F900BF28790E4901EB4010A8
:102F9000007F28B128680821C0F8001500BF05E0AF
:102FA00028680421C0F8001500BF00BF00BF002042
:102FB000E0752076A0750120E0760020A0764046DE
:102FC000D0E70000F401002070B5044620791F49C5
:102FD00001EB401500BF207901EB4010007F28B1C4
:102FE00020680021C0F8001500BF05E0206800211E
:102FF000C0F8001500BF00BF00BF6868F0B100BF97
:103000002079124901EB4010007F50B1104920682F
:1030100000F0BFFB2068FFF7D5FC0646FFF794FCE5
:103020000AE00B498C39206800F082FB2068FFF72A
:10303000C9FC0646FFF788FC00BF00BF204600F031
:1030400007FC0020E876686070BD0000F4010020F5
:1030500010030200F0B5DDE9054500BF4FF0A047C1
:103060003E4641EA420747EA830747EA042747EA20
:10307000054C06F5E06747F820C0F0BDF0B5DDE986
:10308000054500BF4FF0A0473E4641EA420747EAE8
:10309000830747EA042747EA054C06F5E06747F847
:1030A00020C0F0BDF0B5DDE9054500BF4FF0A047F9
:1030B0003E4641EA420747EA830747EA042747EAD0
:1030C000054C06F5E06747F820C0F0BD1CB5044686
:1030D0000020009003460122014601902046FFF7A0
:1030E000B9FF1CBD7CB505460C4600200090234668
:1030F0000246014601902846FFF7ACFF7CBD1CB597
:10310000044600200090034601221146019020460B
:10311000FFF7A0FF1CBD1CB504460020009003462D
:103120000122114601902046FFF7A8FF1CBD1CB5E7
:1031300004460020009003460122114601902046DB
:10314000FFF7B0FF1CBD10B50A4600BF4FF0A0430B
:10315000194601F5E06353F8203023F4403401F5BB
:10316000E06343F8204053F8203043EA024401F57D
:10317000E06343F8204010BD00BF4FF0A0410A4675
:10318000012303FA00F1C2F80C1500BF704700BF1D
:103190004FF0A0410A46012303FA00F1C2F80C15D2
:1031A00000BF704700BF4FF0A0410A46012303FA59
:1031B00000F1C2F80C1500BF704700BF4FF0A041EE
:1031C0000A46012303FA00F1C2F8081500BF704750
:1031D00000BF4FF0A0410A46012303FA00F1C2F8F4
:1031E000081500BF704700BF4FF0A0410A460123F9
:1031F00003FA00F1C2F8081500BF704700BF4FF096
:10320000A0410A46012303FA00F1C2F8081500BFE5
:103210007047000038B50B46074C246800940146FF
:1032200006E05DF82140D4F810551560121D491CC8
:10323000C4188C42F5D838BD6C51000001460148D5
:10324000084470470060004038B504462046FFF748
:10325000F5FF002101602046FFF7F0FF00680090B5
:1032600000BF38BD10B504462046FFF7E7FF0068F1
:10327000012800D110BD0020FCE7000030B589B066
:1032800004461A48007830B119480078844202D1C7
:10329000002009B030BD2022164901A8FDF732F9FF
:1032A00000208DF8180006200190082002900520CB
:1032B0000490072003904FF0EB7007900E48FFF743
:1032C00083FE0CB1002000E00C48024601A90A4828
:1032D000FFF738FE05460DB12846DAE7012003491D
:1032E0000870034804700020D3E700006400002049
:1032F00065000020085200005C000020494C0000DE
:1033000010B50120FFF7BAFF10BD00002DE9F04F06
:103310008BB0FEF7B1F818B100200BB0BDE8F08F0C
:103320006848446885682646641C06EA05006549C5
:103330000C3151F820000A900FE00A98C0F3891070
:103340000A9900EB915004442646641C06EA0500E5
:103350005C490C3151F820000A900A9800F00300F3
:103360000028EAD04FF0000A0A98C0F3800000B1AC
:1033700000BF4FF0000B0A9800F00300022871D143
:103380002046641C28404F490C3151F82000099018
:103390000A984FEA90580A98C0F3891904EA050080
:1033A000691C081A8700B84530D937B104EA05000E
:1033B00044490C3101EB800001E042480C30089098
:1033C0000FB1384600E04046C0B2079017B13D4803
:1033D0000C3000E00020069017B1A8EB070000E0D9
:1033E0000020C0B2059005A80BC8089ACDE90023BB
:1033F000CDE902100A99C1F3C20032494B46D1F817
:1034000014C45146099AE047814615E0002204EAB7
:1034100005002C490C3101EB8000CDE901820392BB
:1034200000900A99C1F3C20026494B46D1F814C452
:103430005146099AE0478146C14506D108F103008B
:1034400004EB90044FF0010B0AE00A9869F38F1027
:103450000A9006EA05001B490C310A9A41F820201F
:1034600025E0FFE704AF0A98800A03900A98C0F3AA
:1034700083184FF000090AE02046641C28401149D7
:103480000C3151F8200038603F1D09F10109C14598
:10349000F2D3CDF800800A99C1F3C200094904AB08
:1034A000D1F810C45146039AE047834600BFBBF1F0
:1034B000000F01D003484460FDF7DEFF80F00100FB
:1034C0002BE70000540400202DE9FC4104460D4682
:1034D00000261348876801A93046FDF785FFE8B14B
:1034E0001048006800900021009861F3820000906D
:1034F000009864F3C5000090009866F3891000906E
:10350000009865F39F200090DDE90021481C3940B8
:10351000019003480C3040F8212000BFBDE8FC8139
:10352000540400202C5200002DE9FC4104460D46B5
:10353000164601271748D0F8088001A93846FDF73C
:1035400053FF28B31448006800900021009861F3ED
:1035500082000090009864F3C5000090009867F323
:1035600089100090009865F39F200090DDE900210C
:10357000481C01EA0801019006480C3040F821205F
:10358000019800EA080003490C3141F8206000BFAF
:10359000BDE8FC815404002030520000024650581F
:1035A00008B1012070470020FCE708B50022425016
:1035B0004258009200BF08BDC0F800137047C0F821
:1035C0001415704710B5136800F5A46404EB41149A
:1035D000236000BF938800F5A46404EB411463608A
:1035E00000BF936800F5A46404EB4114A36000BF1E
:1035F000D36800F5A46404EB4114E36000BF10BD80
:10360000C0F80012704701224250704708B50022EE
:1036100042504258009200BF08BD0000024A1060AC
:10362000121D1160704700002C76004001460348CF
:10363000085808B1012070470020FCE700700040E6
:1036400008B50021034A815011464158009100BF3E
:1036500008BD0000007000400121014A8150704700
:10366000007000400246505808B101207047002009
:10367000FCE708B5002242504258009200BF08BD46
:10368000C0F808137047C0F8041370470122425075
:1036900070470146D1F8C404C1F8C404704702461B
:1036A000505808B1012070470020FCE708B50022FF
:1036B00042504258009200BF08BDC0F8081370473E
:1036C000C0F804137047C0F834154FF4A7631A50BC
:1036D0007047014640F23C5040587047C0F8001215
:1036E0007047012242507047C0F844154FF4A96357
:1036F0001A507047014640F24C50405870470146FE
:10370000D1F88004C1F8800470470246505808B1CF
:10371000012070470020FCE708B5002242504258C3
:10372000009200BF08BDC0F80815C0F8102570470A
:10373000C0F808137047C0F8041370470246D2F867
:103740000403084008B1012070470020FCE7012273
:1037500042507047C0F81425C0F80C157047014658
:10376000D1F88004C1F8800470470246505808B16F
:10377000012070470020FCE708B500224250425863
:10378000009200BF08BDC0F808154FF4A2631A509C
:103790007047C0F808137047C0F80413704701461B
:1037A00040F23C504058704740F20C53195040F2E0
:1037B00014531A507047000010B502460A23002027
:1037C00012E00C4C04EB001464688C420AD2094CE1
:1037D00004EB0014646804F580548C4202D9002381
:1037E000108003E0441CA0B20228EADB00BF1846A8
:1037F00010BD0000B00300200389CA1C1A440281D6
:103800004389CA1C9A1A42817047000038B50446A1
:1038100000200223034A214600900348FEF778F96E
:1038200038BD0000F8510000D800002008B5002085
:10383000009004480223044A01680448FEF768F92E
:1038400008BD000048000020F0510000D800002012
:103850002DE9F04704462079314901EB4010007F03
:1038600020B3206840F20C510D5800BF206840F290
:1038700014510E5800BF2068D0F8087500BF2068AA
:10388000D0F8108500BFD4F800904FF0FF321146F9
:103890004846FFF789FF00BFD4F800904FF0FF3291
:1038A00011464846FFF76FFF00BF22E02068D0F8BE
:1038B0000C5500BF2068D0F8146500BF2068D0F810
:1038C000087500BF2068D0F8108500BFD4F80090BC
:1038D0004FF0FF3211464846FFF73CFF00BFD4F8D7
:1038E00000904FF0FF3211464846FFF71CFF00BF23
:1038F00000BF681C10B12846FFF7E8FB701C10B130
:103900003046FFF7E3FB08F1010010B14046FFF736
:10391000DDFB781C10B13846FFF7D8FBBDE8F08717
:10392000F40100200A490968096809B9012100E089
:10393000002121B14FF0FF31064A116006E0044931
:103940000968C968C868034A416811607047000087
:10395000040000203400002070B5002409480A4902
:103960000860002201460948FFF750F8044600BFEE
:10397000254625B100BF2846FDF796FC00BF00BFD5
:1039800070BD0000C8000020B4000020900000209E
:103990002DE9F0472DED088B07460C464FF0000847
:1039A000C14600250026642F04DD0120BDEC088BF4
:1039B000BDE8F087642C03DB42F21070844201DD25
:1039C0000220F3E7642094FBF0F100FB114008B102
:1039D0000220EBE7642094FBF0F01FFA80F942F23A
:1039E000107090FBF9F086B235461D4805802846D8
:1039F000FCF78DFE41EC190B3846FCF788FE41ECD4
:103A00001B0B9FED180B53EC102BFCF711FE41EC38
:103A10001A0B53EC192BFCF799FD41EC180BFCF732
:103A200083FE1FFA80F801211048FFF7A3F80F4822
:103A3000FFF7BAF80E480068058100220C480168BB
:103A40000A48FEF7E3FF48F400400A4908800223D1
:103A5000012209490548FFF74BF80020A6E70000BE
:103A6000BA00002000000000000059409000002033
:103A7000B4000020A80000207C52000070B5002493
:103A800009480A490860002201460948FEF7BEFFBE
:103A9000044600BF254625B100BF2846FDF704FCBB
:103AA00000BF00BF70BD0000BC000020B0000020BF
:103AB000980000202DE9F0472DED088B07460C46B5
:103AC0004FF00008C14600250026642F04DD0120C8
:103AD000BDEC088BBDE8F087642C03DB42F210706C
:103AE000844201DD0220F3E7642094FBF0F100FB47
:103AF000114008B10220EBE7642094FBF0F01FFABC
:103B000080F942F2107090FBF9F086B235461D48FC
:103B100005802846FCF7FBFD41EC190B3846FCF705
:103B2000F6FD41EC1B0B9FED180B53EC102BFCF733
:103B30007FFD41EC1A0B53EC192BFCF707FD41EC10
:103B4000180BFCF7F1FD1FFA80F801211048FFF770
:103B500011F80F48FFF728F80E4800680581002289
:103B60000C4801680A48FEF751FF48F400400A4932
:103B700008800223012209490548FEF7B9FF002009
:103B8000A6E70000B8000020000000000000594037
:103B900098000020B0000020AA0000208C520000F5
:103BA00010B51049096FC1EBC1010E4A02EB81004B
:103BB0001C21FCF7C0FC0B48406F58B1094890F835
:103BC0007000401C00F00300064908670846406F7B
:103BD000401E48670348406F08B1012010BD002017
:103BE000FCE70000F002002070B504461748406E64
:103BF000042801D1002070BD1448006E1349496E9D
:103C00000844042805D21148006E1049496E084442
:103C100005E00E48006E0D49496E0844001F054638
:103C20000A48406E401C0949486605EB4501074AB1
:103C300002EBC1001821FCF77EFC05EB45000349AF
:103C400001EBC00020600120D5E70000EC0300205C
:103C500070B586B006462648006FC0EBC000244908
:103C600001EB8005287807281ED2DFE800F01D044C
:103C70000A0B1112180029463046FEF7E1F90446F6
:103C800014E000BF2946304601F076F904460DE005
:103C900000BF29463046FDF7DCFC044606E030460E
:103CA000FDF780FF044601E00F2400BF00BFE4B130
:103CB00041F61D50844202D10020029003E002949C
:103CC0002846FDF71BFC01A92846FDF741FE01A887
:103CD000FDF77AFEFFF764FF18B10020FFF7B8FF89
:103CE00002E00420FDF7B0FE00BF06B070BD00008A
:103CF000F002002070B51848006E00EB4000164935
:103D000001EBC0050846406EF8B1287A012802D0C0
:103D100002280AD104E0284600F0A8FD044606E087
:103D20002846FDF719FD044601E0092400BF00BF45
:103D3000112C0BD10948007820F0020007490870C7
:103D40000846007840F00400087004E01CB1092126
:103D5000284600F0A4FA70BDEC0300205A000020B1
:103D600010B50948007800F0020060B906480078F4
:103D700000F0040038B90448007840F0020002491D
:103D80000870FFF7B7FF10BD5A0000202DE9F04181
:103D900006460F4615461C460220FDF75DFE10B98B
:103DA0000220BDE8F08105B10CB90520F9E728E053
:103DB000A088164901EB0010007800B11EE015E064
:103DC000216826B188883288904200D00EE027B161
:103DD00008883A88904200D008E088682860206807
:103DE00068600B48008928810020DAE7A088214616
:103DF00000F06CF80028E3D1206000BFA088401CD0
:103E0000A080A0880228D3DB0A20CAE7B0030020E4
:103E1000D00300207FB5044600200090019002905E
:103E2000E068009003A9684600F012F858B1019EBE
:103E3000B188E18031882181BDF80C10019800F033
:103E400075F8054600E00A25284604B070BD00005C
:103E500038B504460D466068FDF7C4F990B1208975
:103E60001949098988420DD1D4E90001896888423D
:103E700008D128466168FFF79FFC08B9012038BDCA
:103E80000020FCE70020288018E0002000900CE0D3
:103E9000009988682268904206D1009860600A48BC
:103EA000008920810120EAE700BF2888694600F0E8
:103EB0000DF80028ECD12888401C2880288802288A
:103EC000E3DB0020DBE70000D00300202DE9F04118
:103ED00006460F463C682CB125466888C01C04EB9A
:103EE000800405E0104800EB0610406800F108046B
:103EF0000CE025462846FDF7FCFF18B13C60012088
:103F0000BDE8F0816888C01C04EB8004064800EB23
:103F10000610406800F58050A04203D92068401C7C
:103F20000028E6D10020EBE7B0030020F8B50446F6
:103F30000D4600200123084A214600900748FDF75E
:103F4000E7FD06460EB10E20F8BD0120044901EB45
:103F5000051188730020F7E7EC510000D80000201D
:103F6000B0030020F8B504460D4600200123221DB1
:103F7000294600900548FDF7CBFD06460221217435
:103F80000EB90020F8BD0E20FCE70000D80000208C
:103F9000F8B504460D460020012304F10802291D4E
:103FA00000900848FDF7B4FD06462078032801D1AB
:103FB000052100E0062121740EB90020F8BD0E2075
:103FC000FCE70000D8000020F8B504460D460020AC
:103FD000012304F10C0205F1080100900748FDF7E8
:103FE00097FD0646A07D08B1032100E00121217460
:103FF0000EB90020F8BD0E20FCE70000D80000201C
:104000007CB504460D460020019001A8FDF75EFA3C
:1040100000200090019883880268A08A05EB800147
:104020000A48FDF775FD0646A08A0199898808446B
:10403000A082A07D401EA075A07D08B90121217439
:104040000EB900207CBD0E20FCE70000D800002047
:104050001CB50446072200216846FCF765FA00BF3C
:1040600000BF07226946042000F045F808B104208B
:104070001CBD9DF8000000F07F0020709DF801003D
:1040800040B260709DF8020040B2A0709DF803003D
:1040900040B2E0709DF8040040B220719DF8050028
:1040A00040B260719DF8060040B2A07100BF00BF31
:1040B0000020DDE71CB5002400200190009000BF27
:1040C00000BFAA200190012201A9032000F094F86A
:1040D00008B100201CBD01226946032000F00BF846
:1040E00008B10120F6E79DF80000AA2801D10120BF
:1040F000F0E70020EEE7FEB504460F461546112C0A
:1041000001DD0220FEBD072D01DD0320FAE70722B5
:1041100000210DF10500FCF707FA8DF804403B463D
:10412000012201A951200095FDF7F0FE06460EB9C7
:104130000020E7E70420E5E73EB5044600200090B4
:104140000722002101A8FCF7EFF900BF00BF00BF64
:1041500000BF002000902120009000BF00BF01227E
:104160006946002000F048F808B104203EBD2078E0
:1041700000F07F008DF80400607800F07F008DF87B
:104180000500A07800F03F008DF80600E07800F010
:104190003F008DF80700207900F007008DF8080037
:1041A000607900F01F008DF80900A0798DF80A00F1
:1041B00000BF00BF00BF00BF00BF00BF00BF00BF07
:1041C00000BF00BF00BF00BF00BF00BF072201A9A2
:1041D000042000F011F808B10420C7E70020009087
:1041E000009000BF00BF0122694600F005F808B149
:1041F0000420BBE70020B9E72DE9FC4104460F4647
:10420000154617B90120BDE8FC81112C01DD022003
:10421000F9E7072D01DD0320F5E78DF800402A4678
:1042200039460DF10100FCF76DF9681CC2B2694610
:104230005120FDF78DFE06460EB90020E3E704206D
:10424000E1E770B505460C46E07D40B94FF4847156
:104250002846FFF761FA00BFD5F8180570BD4FF486
:1042600084712846FFF758FA00BFD5F81805C0B288
:10427000627EE1688854607E401C607600BFEDE796
:104280007FB504460D46164601208DF800008DF8D6
:10429000085001966846D4E9001290477FBD7FB56B
:1042A00004460D4600200090019002900390207A71
:1042B000012802D0022816D108E000208DF8000065
:1042C00020690290A18AADF80C100DE001208DF854
:1042D0000000A189E089081A80B2ADF80800A18920
:1042E000ADF80A1000E000BF00BF606801902068D0
:1042F00029468268684690477FBD3EB50446002047
:10430000029001900090052101A800F06BF90223B2
:104310006A46194601A800F0C9F808B105203EBD5B
:104320009DF8010002909DF80800217860F30001DB
:1043300021709DF808004008217860F34101217048
:104340009DF808008008217860F3820121709DF8B3
:104350000800C008217860F3C30121709DF80800AF
:104360000009217860F3041121709DF808004009CC
:10437000217860F3451121709DF80800C00921786B
:1043800060F3C71121700020C9E70000F8B50646A8
:104390000C46154600200090B4F1807F01D3022026
:1043A000F8BDF02D01D90420FAE70DB90420F7E794
:1043B0000EB90120F4E76846FFF79FFF08B105201A
:1043C000EEE79DF8000000F0010008B10820E7E7E3
:1043D000F82200211048FCF7A7F8F82200210F4826
:1043E000FCF7A2F803200C490870200C4870200A42
:1043F0008870CC70281DC3B2C1B2084A064800F0CC
:1044000055F808B10520CBE72A460449091D304676
:10441000FCF778F80020C3E76C080020640900204E
:1044200038B5044600200090B4F1807F01D302200B
:1044300038BD6846FFF761FF08B10520F8E79DF831
:10444000000000F0010008B10820F1E7F822002187
:104450001448FCF769F8F82200211348FCF764F8C7
:10446000202010490870200C4870200A8870CC70F9
:10447000002000F032F808B10520D9E7012000F053
:104480002CF808B10520D3E76846FFF736FF042370
:10449000054A1946034800F009F808B10520C7E7A6
:1044A0000020C5E76C080020640900202DE9F041D8
:1044B00004460D4616461F464FF000083B4632465E
:1044C0002946204600F0F8F88046B8F1000F02D0E7
:1044D0000520BDE8F0810020FBE71CB50446002064
:1044E00001900090012C04D1062101A800F07AF877
:1044F00007E024B9042101A800F074F801E00620C7
:104500001CBD01236A46194601A8FFF7CFFF08B179
:104510000520F5E70A20FEF79DF90020F0E70000EE
:10452000F8B506460C461546002000900027E7B275
:10453000B4F1807F01D30220F8BDF02D01D9042011
:10454000FAE77819B0F5807F01D90920F4E70DB9B1
:104550000420F1E70EB90120EEE76846FFF7CDFE33
:1045600008B10520E8E79DF8000000F0010008B15F
:104570000820E1E7F82200211848FBF7D5FFF822D0
:1045800000211748FBF7D0FF022014490870200CC7
:104590004870200A8870CC702A4631460F48001DAA
:1045A000FBF7B0FF0020FFF798FF08B10520C3E735
:1045B0000120FFF792FF08B10520BDE76846FFF72D
:1045C0009CFE281DC3B2C1B2054A0448FFF76EFF26
:1045D00008B10520B0E70020AEE700006C0800201D
:1045E000640900200170704710B501460B4800783F
:1045F00008B9002010BD072901DD0220FAE7084AAA
:10460000505C00BF4FF0A0421346012404FA00F2B0
:10461000C3F8082500BF00BF0120EBE78F00002092
:10462000880000202DE9FF410024214B0FCB8DE8AD
:104630000F0004208DF8000006208DF802000520F0
:104640008DF80100FF208DF8030000208DF80C008C
:104650004FF000400290032001210A4600231D462E
:104660001E4600BF4FF0A04C674641EA420C4CEAA0
:10467000830C4CEA052C4CEA064807F5E06C4CF834
:10468000208000BF00BFFEF7B9FD00231A4669462F
:104690000848FEF7ABFA044600BF254625B100BF27
:1046A0002846FCF701FE00BF00BFBDE8FF81000007
:1046B000C0520000B85200002DE9F84304460D46F0
:1046C00016461F464FF00008032000BF4FF0A041E0
:1046D0000A46012303FA00F1C2F80C1500BF00BF1F
:1046E00033462A46214605480097FEF72BFB8046B5
:1046F0000320FEF783FD4046BDE8F883B852000072
:104700002DE9F04704460E4615461F46286818B1A5
:104710002868FEF770F928B1A86850B1A868FEF7BC
:104720006AF930B9002070774FF010084046BDE8B4
:10473000F08729792868C4F844054FF4A96211511B
:1047400000BF287BA968C4F834154FF4A762105144
:1047500000BF4FF48C712046FEF78BFF2046394690
:1047600001F0010232B100BF01234FF4AA621350DD
:1047700000BF06E000BF00234FF4AA62135000BF41
:1047800000BF01F0020232B100BF01234FF4A86262
:10479000135000BF06E000BF00234FF4A86213507F
:1047A00000BF00BF00BF07F0080018B91021204665
:1047B000FEF76CFF306870B900BF4FF48C71204673
:1047C000FEF750FF0028F8D0B07FFF2815D0B07F4B
:1047D000FEF709FD11E0A146012020EA970ABAF18F
:1047E000000F04D140214846FEF74AFF03E0402174
:1047F0004846FEF748FF00BF00BF4FF000084046A4
:1048000095E72DE9F04105460F4614461E46022065
:1048100038717C713868A8B14FF0820804F0040048
:1048200008B148F0100804F0080008B148F020086A
:1048300004F0100008B128F0800841462868FEF70F
:10484000BBFE00BF4FF482712868FEF7AEFE04F095
:10485000800028B12868821911460846BDE8F08119
:1048600031462868FEF7CFFE0020F7E770B5044612
:10487000A18AE08A081AB0F5806F04DAA18AE08A7A
:10488000081A85B201E04FF48065E28AE36803EB21
:104890008201236903EB82002A4629DF70BD0000F4
:1048A00070B5044640F20C612248226840F822109C
:1048B000626840F822102068FEF78AFC6068FEF704
:1048C00087FC40F20D611B48226840F822106268A4
:1048D00040F822100420FDF725FF00251BE060684A
:1048E00000BF4FF0A042114600BFD1F81025C240D2
:1048F00002F0010212B105B970BD0EE02068FEF7AA
:104900003BFC0420FDF70EFF2068FEF761FC04204D
:10491000FDF708FF6D1C092DE1DB00BF6068FEF7A5
:104920002BFC0420FDF7FEFE6068FEF751FC00BF83
:10493000E2E70000000700500146032001F00102F9
:104940000AB14FF4024001F002020AB148F201201C
:1049500001F004020AB148F2022070472DE9F05F2D
:1049600005460F4614461E464FF000084FF0080952
:104970004FF4827A6068FEF734F820B94FF01008DF
:104980004046BDE8F09F4FF0FF313846FEF795FEF8
:1049900095F8240038B1A9683846FEF791FE4FF02B
:1049A00011084046EDE706F0040020B906F01000BB
:1049B00008B9012000E0002085F8240094E80700F1
:1049C000C5E90412E860C6F3001085F82500607898
:1049D000C7F8880500BF4FF482713846FEF766FEBF
:1049E0004FF492713846FEF761FE3846314601F0C9
:1049F000010232B100BF01234FF4AA62135000BF7D
:104A000006E000BF00234FF4AA62135000BF00BFAE
:104A100001F0020232B100BF01234FF4A86213502B
:104A200000BF06E000BF00234FF4A862135000BF90
:104A300000BF00BF207800285ED0012873D0022874
:104A40003FD0032870D1A068FDF7CBFF18B94FF015
:104A50001008404695E74FF480713846FEF73EFE59
:104A6000A27838466168FEF73FFE4FF4A8713846D9
:104A7000FEF71CFE4FF4B0713846FEF717FE4FF4F8
:104A8000A4713846FEF712FE20213846FEF729FEB3
:104A900008213846FEF725FE00BF4FF4A8713846BE
:104AA000FEF7FDFD0028F8D04FF4A8713846FEF758
:104AB000FDFDE2783846A168FEF716FE4F48A86073
:104AC00057E0A27838466168FEF70EFEA068FDF751
:104AD00088FF18B94FF01008404652E7E278384690
:104AE000A168FEF7F0FD4FF484513846FEF7F6FD5D
:104AF00040F20220A8603CE0A27838466168FEF7E8
:104B0000F3FD06F0200080B14FF480713846FEF7C7
:104B1000E5FD3A48A8604FF4A4713846FEF7C6FD9B
:104B20004FF4A47A09E00DE020E04FF4007138461C
:104B3000FEF7D4FD40F20220A86020213846FEF79F
:104B4000D0FD16E0A27838466168FEF7BCFD4FF450
:104B500080513846FEF7C2FD40F20220A8604FF0B7
:104B6000000920213846FEF7BCFD02E04FF007089F
:104B700000BF00BF06F0080030B92078032803D03A
:104B800049463846FEF7ADFD286850B106F00400EE
:104B900010B14FF40070A860A9683846FEF790FD88
:104BA0002AE014E04FF492713846FEF778FD70B1B8
:104BB0004FF492713846FEF779FD20213846FEF712
:104BC00090FD14213846FEF78CFD4FF4827A514651
:104BD0003846FEF764FD0028E4D03846FEF759FD5C
:104BE0008346002085F82400BBF1000F03D058460F
:104BF000FFF7A2FE804600BF4046C2E60002040066
:104C000070B505460C464FF48E712846FEF784FDBC
:104C1000A18AA068465CA08A401CA0823046C5F8E4
:104C20001C0500BF70BD7FB504460D4600208DF801
:104C300000008DF80850A06801900020A07568461B
:104C4000D4E9001290477FBD0278012A01D1014BBF
:104C50001A707047660000202DE9FF4105460C469A
:104C60004FF400712846FEF769FD48B34FF4927186
:104C70002846FEF74AFD18B34FF492712846FEF716
:104C80004BFD4FF401712846FEF752FDA07E18B986
:104C900004212846FEF75BFD02208DF8000028461F
:104CA000FEF72DFD0390E17D8DF80810E06801907E
:104CB0000020E07520766846D4E90012904736E07F
:104CC00004212846FEF73AFD002830D04FF48471C5
:104CD0002846FEF71AFD50B321462846FFF7B1FAE1
:104CE000E07D617E884222D1207E70B1E668677ED9
:104CF000207EE0752069E0600020207660763246F4
:104D000039462046FFF7BCFA11E0A07E18B904210D
:104D10002846FEF71CFD4FF401712846FEF708FDFA
:104D20000020E075617EE2682046FFF7A9FA4FF4A3
:104D30008E712846FEF7E9FC98B1A08AA17D8842D1
:104D400004DA21462846FFF75BFF0AE04FF48E7134
:104D50002846FEF7E1FCA07D18B1A17D2046FFF7B3
:104D600062FF4FF4A2712846FEF7CFFC98B14FF4D2
:104D7000A2712846FEF7D0FCA07E18B1002128467B
:104D8000FEF7E5FCE07D30B10020E075617EE26871
:104D90002046FFF775FABDE8FF812DE9FF41054682
:104DA0000C464FF492712846FEF7DFFCD8B14FF461
:104DB00092712846FEF7E0FC02208DF8000028469C
:104DC000FEF7CDFC03902846FEF7E9FCC1B28DF852
:104DD0000810E06801900020E07520766846D4E96C
:104DE000001290472FE04FF488712846FEF7BDFC73
:104DF00048B34FF488712846FEF7BEFC2846FEF7FC
:104E0000CEFCC6B2E07DB0421CD1207E98B1E768EE
:104E10002020D5F800128143C5F8001200BF207E83
:104E2000E0752069E060002020763A463146204651
:104E3000FFF726FA06E00020E07531462046E268DA
:104E4000FFF71EFA00BF4FF4A2712846FEF78DFC53
:104E500088B14FF4A2712846FEF78EFCE07D50B178
:104E60000020E0752846FEF79AFCC6B2314620467F
:104E7000E268FFF705FA4FF490712846FEF775FCDB
:104E800078B14FF490712846FEF776FCA07D40B1D2
:104E900000BF40F24C504059C6B231462046FFF7A1
:104EA000C2FEBDE8FF8101460A69D1E90130986080
:104EB000D1E9010358605068884201D18868506088
:104EC000002008611068401E10601068704770B5BF
:104ED00004460D4600BF0420FCF7E6F900BF70BD94
:104EE00042684A6093688B6093685960916008617A
:104EF00003685B1C0360704710B51A48006818B15E
:104F00000120194908602BE0002017490860174864
:104F10000068006815490968096B884205D813487C
:104F2000016834310068FFF7D2FF11480068B0FA19
:104F300080F0C0F11F0101EB81020E4B03EB8200F8
:104F400042685268426000F108024368934202D10D
:104F50004268526842604268D268044B1A6000BFDF
:104F600010BD0000380000202800002000000020B4
:104F70001C000020E80000202DE9F04107460D4606
:104F8000688A2A4901EB001637B1E9883046FEF7F6
:104F900033FC0120BDE8F0813189706800EB8108A5
:104FA000287C072837D2DFE800F01123171D0429D9
:104FB000330000201E494860A86908601D491C484C
:104FC000FEF746FF08B90A20E4E700BF414628463D
:104FD000FEF7C8FF044620E041462846FEF7F4FFEE
:104FE00004461AE041462846FFF70AF8044614E052
:104FF00041462846FEF7CCFF04460EE00C494868BF
:105000000C490988FEF792FF04460621297404E042
:1050100041F61D5401E00F2400BF00BF1CB1E98818
:105020003046FEF7E9FB2046B4E70000B00300205D
:10503000E0030020580000200549096809B9012053
:1050400005E00449096809B9022000E00020704722
:105050002000002038000020014908687047000047
:10506000180000202DE9F04100273548006800288D
:105070005AD134480068401C324908600846066826
:105080008EB93148D0F80080304800682E49086059
:105090002E48C0F800802E480068401C2C4908604B
:1050A000FEF740FC00BF2B48006886423BD300BFA0
:1050B00025480068006808B9012000E0002020B100
:1050C0004FF0FF30234908602CE01F480068C0689B
:1050D000C4686568AE4202D21E48056022E0201D09
:1050E000FFF7E1FEA06A18B104F11800FFF7DBFE3C
:1050F00094F82C1001208840174909680843164984
:105100000860E16A01EB8101144A02EB8100211D74
:10511000FFF7E6FE1249E06A0968C96A8842C7D308
:105120000127C5E700BF04E00E480068401C0D4998
:1051300008600D48006800B101273846BDE8F081DD
:105140003800002018000020040000200800002083
:105150002C000020340000201C000020E80000206B
:105160000000002024000020280000200000005043
:105170006E72665F6472765F6770696F74655F698F
:105180006E6974006E72665F6472765F6770696FD5
:1051900074655F6F75745F696E6974006E72665FC7
:1051A0006472765F6770696F74655F696E5F696E60
:1051B000697400006E72665F6472765F7477695F0F
:1051C000696E6974007477696D5F78666572006EE8
:1051D00072665F6472765F7477695F786665720085
:1051E0000100000000000000000000000000FFFFC0
:1051F000DEC0ADDEFF011EF1DEC0ADDEFE011EF140
:105200001B5B306D00000000FFFFFFFFFFFFFFFF93
:10521000FFFFFFFFFFFFFFFF000000000000000096
:105220000000D60107010000290000000100000075
:10523000010000000100000001000000010000006A
:1052400001000000010000000200000000300040EA
:105250000001000000400040010100000B000000C0
:105260000C000000000068060200000001000000C1
:10527000000000000000680602000000A8000020F6
:10528000010000000000000000000000AA00002053
:10529000010000000000000000000000AC00002041
:1052A00001000000000000000000000007FFFFFFF9
:1052B000000100005B0000000030024023000100FC
:1052C000FFFFFFFF07FF000000000040000000009C
:1052D0004F766572666C6F770D0A0000FC52000015
:1052E00000000020E800000054110000E45300001A
:1052F000E8000020581300006411000000000000C6
:10530000000000000000000000000000000000009D
:10531000000000000000000000000000000000008D
:10532000000000000000000000000000000000007D
:10533000FFFFFFFF00000000000000000000000071
:10534000000000000000000000000000000000005D
:1053500000000000000000000020004000000000ED
:1053600000000000D052000000000000000000001B
:10537000000000000000000000000000000000002D
:10538000000000001011121314090A0000C00140AF
:105390000000000000100240010000000020024058
:1053A00002000000000000000000000000000000FB
:1053B00000000000E803E8030EFFFFFF0004000008
:1053C000E803000018FFFFFF00040000E8030000EE
:1053D0000090D0030000000000000000011B00004E
:0453E00003FF0000C7
:0400000500000401F2
:00000001FF
