:020000040001F9
:10F00000A0B50020E9F40100F1F40100B5F401001D
:10F01000F5F40100F7F40100F9F40100000000002C
:10F0200000000000000000000000000015F40100D6
:10F03000FDF401000000000059F4010001F5010099
:10F04000F1FC010003F50100A9050200D102020054
:10F05000E502020003F50100B9F90100FDFD010020
:10F0600003F5010003F5010003F5010003F50100BC
:10F0700003F5010003F5010003F5010003F50100AC
:10F0800003F501007DFD010003F5010003F501001A
:10F0900003F5010003F501001103020003F501006F
:10F0A00003F5010003F5010003F5010003F501007C
:10F0B00041FD010003F50100000000000000000018
:10F0C00003F5010055FD010069FD0100F902020090
:10F0D00003F5010003F5010003F501000000000045
:10F0E0000000000000000000000000000000000020
:10F0F0000000000000000000000000000000000010
:10F1000000000000000000000000000000000000FF
:10F1100000000000000000000000000000000000EF
:10F40000DFF80CD000F08CFA00480047618F020052
:10F41000A0B50020264B19680868B0E8F04F80F3CB
:10F420000988BFF36F8F4FF0000080F31188704799
:10F43000000000000748006880F3088862B661B6E3
:10F44000BFF34F8FBFF36F8F4FF4F07080F31188CD
:10F4500000DF000000F00100EFF30980BFF36F8FC1
:10F46000134B1A681EF0100F08BF20ED108A20E918
:10F47000F04F106008B44FF0200080F31188BFF304
:10F480004F8FBFF36F8F16F049F84FF0000080F3F5
:10F49000118808BC19680868B0E8F04F1EF0100F1A
:10F4A00008BFB0EC108A80F30988BFF36F8F7047F4
:10F4B00064260020094B1EF0040F1CBFEFF30980E7
:10F4C0001847EFF308800649064A884201D890425F
:10F4D00002D88D464FF0000018470000F1FB0100F4
:10F4E000A0B50020A0AD0020064880470648004790
:10F4F000FEE7FEE7FEE7FEE7FEE7FEE7FEE7FEE7E4
:10F50000FEE7FEE75103020001F4010000487047E6
:10F51000306A030040EA01039B0703D009E008C9F1
:10F52000121F08C0042AFAD203E011F8013B00F8C8
:10F53000013B521EF9D27047D2B201E000F8012B14
:10F54000491EFBD270470022F6E710B513460A4663
:10F5500004461946FFF7F0FF204610BD421C10F884
:10F56000011B0029FBD1801A704730B504460020EA
:10F57000034600E05B1C934203D2E05CCD5C401B81
:10F58000F8D030BD034611F8012B00F8012B002AFA
:10F59000F9D11846704730B505460020034600E013
:10F5A0005B1C934205D2EC5CC85C201A01D1002C94
:10F5B000F6D130BD2DE9FE4F81EA030404F000448A
:10F5C00021F0004100944FF0000B23F0004350EA7B
:10F5D00001045ED052EA03045BD0C3F30A54C1F3C2
:10F5E0000A552C44A4F2F3340194A0FB0254C1F355
:10F5F000130141F48011C3F3130343F4801301FB9F
:10F60000024400FB034E840A970A44EA815447EA05
:10F610008357A4FB076802958D0A05FB07854FEA0F
:10F62000932C04FB0C542705029D4FEA065847EA29
:10F630001637B5EB08056EEB070C870E920E47EAFE
:10F64000811742EA8312A7FB0201B6EB0B0164EBC0
:10F6500000042B0D43EA0C335E1844EB1C50DA46D1
:10F660005146E7FB0201C5F313044FEA0B3343EAAB
:10F6700014534FEA0432019C43EA0603A4F10C043C
:10F680000294009CCDE900B400F0FCF803B0BDE8A2
:10F69000F08F00200146F9E72DE9F04D81EA0304DF
:10F6A00004F0004B21F0004514464FF0000A23F00F
:10F6B000004150EA050220D054EA01021DD0C5F3F2
:10F6C0000A570246C5F31303C1F31300C1F30A56E8
:10F6D00040F4801543F48013A7EB0608101BD646B0
:10F6E00008F2FD3873EB050002D308F1010801E0D0
:10F6F00092185B41B8F1000F03DA00200146BDE823
:10F70000F08D00204FF48011064684460EE0171B52
:10F7100073EB050705D3121B63EB050306434CEAA5
:10F72000010C49084FEA300092185B4150EA01078A
:10F73000EDD152EA030012D082EA040083EA050107
:10F74000084305D0101BAB4106D20122002306E07E
:10F7500000224FF0004302E06FF0010253101AEB59
:10F7600006004CEB085110EB0A0041EB0B01BDE821
:10F77000F04D00F078B80EB5C10F80EAE070084493
:10F78000CA07002140F233438DE80E000A460B46BB
:10F7900000F078F803B000BD0EB540F2334102919D
:10F7A0000021CDE900110A460B4600F06BF803B0CA
:10F7B00000BDC1F30A5210B5C1F3130140F2FF338B
:10F7C00041F480119A4201DA002010BD40F2334327
:10F7D0009A42A2F2334203DC524200F034F810BDE8
:10F7E000904010BD2DE9F05F0546002092469B46F3
:10F7F00088460646814640241BE028464146474647
:10F80000224600F020F853465A46C01A914110D3C0
:10F8100011461846224600F095F82D1A67EB0108AC
:10F820004F4622460120002100F08CF817EB00091A
:10F830004E41201EA4F10104DFDC484631462A4631
:10F840004346BDE8F09F202A04DB203A21FA02F06B
:10F850000021704721FA02F3D040C2F1200291400A
:10F8600008431946704710B5141E73F1000408DAF6
:10F87000401C41F1000192185B411A4301D120F074
:10F88000010010BD2DE9F04D92469B4611B1B1FA31
:10F8900081F202E0B0FA80F22032904600F052F895
:10F8A00004460F4640EA0A0041EA0B0153465A4615
:10F8B000084313D0114653EA010019D0C8F14002A1
:10F8C0005046FFF7C0FF05460E4650465946424691
:10F8D00000F038F8084305D0012004E020463946FE
:10F8E000BDE8F08D0020054346EAE0762C4337431F
:10F8F0000A986305E40AA0EB08000022FD0A44EA26
:10F9000047540A3002D500200146E9E701051019E5
:10F910006941DDE9084500196941BDE8F04DA2E7FC
:10F92000064C074D06E0E06840F0010394E807004C
:10F9300098471034AC42F6D3FFF766FD746D0300B0
:10F94000946D0300202A04DB203A00FA02F1002023
:10F9500070479140C2F1200320FA03F3194390400D
:10F96000704770B58C1810F8015B15F0070301D1D2
:10F9700010F8013B2A1106D110F8012B03E010F812
:10F98000016B01F8016B5B1EF9D12B0705D4002335
:10F99000521E0DD401F8013BFAE710F8013BCB1AD7
:10F9A000921C03E013F8015B01F8015B521EF9D5CC
:10F9B000A142D8D3002070BD2DE9F04F89B04FF09F
:10F9C0000008002008904FF4807007900126002462
:10F9D00013E007980CF086F848B100BF8148006832
:10F9E000304020B107980CF06FF848EA060876001E
:10F9F0000798001D80B20790641C082CE9D34FF4CF
:10FA0000BE700CF06FF850B14FF4BE700CF05CF8A3
:10FA100048F0004808AA012100200CF03BF808F04B
:10FA2000FF0000B3012600241BE006EA0800B0B185
:10FA300000BF6D4850F82400C0F30420074600BF03
:10FA4000694850F82400C0F301408146204605F083
:10FA500039FC054615B149463846A84700BF76002F
:10FA6000641C082CE1D308F0004000287ED0002060
:10FA700006900590002505E04FF0FF3004A941F8FD
:10FA800025006D1C002DF7D000BF0020069000243B
:10FA90006FE05648005D0390039820F0C00753487C
:10FAA0000057401C002863D004A938460AF056FDD0
:10FAB00000285DD003984FEA901A384605F04AFCBA
:10FAC000814605F0FFFB0290029810B9BAF1030FCE
:10FAD0004BD1BAF1030F11D1394605A80246CB0824
:10FAE00001F0070112F803C04FF0010E0EFA01FEFB
:10FAF0004CEA0E0C02F803C000BF00BF00BF00BFFD
:10FB00004FF0A041084600F5E06151F82710C1F31D
:10FB1000014900BF08A938460AF020FD8346BBF121
:10FB2000000F02D0B9F1020F05D0BBF1000F1BD1BD
:10FB3000B9F1030F18D1BAF1030F0FD1B9F1020FC8
:10FB400001D1032000E002200190384601990BF01A
:10FB5000E6FE0698401CC0B2069000BF029818B19D
:10FB600051463846029A904700BF00E036E000BF99
:10FB7000641C042C8DD3069858B3012703AA0121D5
:10FB800000200BF087FF00250AE003A850F82500AD
:10FB900008A951F82510884201D0002702E06D1C09
:10FBA000002DF2D000BF17B10020069010E0002514
:10FBB0000CE003A850F8250008A941F8250005A885
:10FBC00050F8250004A941F825006D1C002DF0D047
:10FBD00000BF069800287FF458AF00BF09B0BDE809
:10FBE000F08F00000463004010650040D8610020E1
:10FBF000044609A10120A2690CF066FA00BF0CF0CE
:10FC00003DF900BF00BF0CF03FF90028FBD100BF59
:10FC100000BF204600F012F8484152444641554C7E
:10FC2000543A4552524F523A486172646661756C5B
:10FC3000742050433A25780D0A00000000BF00BF31
:10FC400000BF00BF00BFBFF34F8F00BF00BF00BFAA
:10FC50000948006800F4E06008490843001D0649AF
:10FC6000086000BF00BF00BFBFF34F8F00BF00BFE1
:10FC700000BF00BF00BFFDE70CED00E00000FA058B
:10FC800000F01F0201219140024A430942F823106B
:10FC90007047000080E100E000F01F020121914068
:10FCA0004209920002F1E022C2F800117047000000
:10FCB00000BF00BF00BFBFF34F8F00BF00BF00BF3A
:10FCC0000948006800F4E06008490843001D06493F
:10FCD000086000BF00BF00BFBFF34F8F00BF00BF71
:10FCE00000BF00BF00BFFDE70CED00E00000FA051B
:10FCF00010B54FF480700AF0B3FC60B14FF480701F
:10FD00000AF0B7FC01200AF0BDFC01200B49487045
:10FD1000002005F09FFC4FF482700AF0A1FC58B15E
:10FD20004FF482700AF0A5FC02200AF0ABFC01201F
:10FD30000249887005F08EFC10BD0000746100203F
:10FD400010B50249024807F0E3FF10BDA46200208D
:10FD500000C0014010B50249024807F0D9FF10BDAC
:10FD6000AC6200200010024010B50249024807F0C2
:10FD7000CFFF10BDB4620020002002402DE9F04109
:10FD80004FF4A0711A480CF02DFB002400BF00BFF7
:10FD9000EFF311800546202000F032FE00BF2E4612
:10FDA00000BF1448006807464FF4807110480CF0FB
:10FDB00019FB16F031FA381A20F07F45012D04D9CD
:10FDC00016F01AFA022800D0012502E016F030FAE7
:10FDD0000443281EA5F10105F8D124B14FF080504D
:10FDE0000549086040BF304600F00AFEBDE8F081DA
:10FDF000001001400415014004ED00E0FEB54FF491
:10FE000082700CF013FB002837D04FF482700CF096
:10FE100017FB6C4890F82E0018B16A4890F82F0034
:10FE200058B300208DF8000066484068019065488E
:10FE30000189ADF80810C06818B90020614908743C
:10FE400012E06048008B5F4948830846C0684860FC
:10FE50000846008B08810020C860084690F82E00F4
:10FE600010B900200CF004FB56480168684688472A
:10FE70000020544981F82F0000BF524890F82E000E
:10FE8000002852D04FF480700CF0D0FA00284CD0EB
:10FE90004FF480700CF0D4FA4A48408B494991F8ED
:10FEA0002D10884216DD4748408B464991F82D10A9
:10FEB000401A444948830A4612890B465B8BD21A82
:10FEC0000B465B6803EB42000A4692F82D100CF0DB
:10FED00099FA23E03B48408B3A4991F82D1088422B
:10FEE0000FD13848C06860B10120364981F82F0031
:10FEF000002048830A4692F82D10D0680CF082FA50
:10FF00000CE03048408B2F4991F82D10884205D1E4
:10FF100001202C4981F82F00002048834FF4827083
:10FF20000CF08EFA04200CF0A3FA4FF488700CF059
:10FF30007DFA70B14FF488700CF082FA00202149EC
:10FF4000087402208DF8000008460168684688475A
:10FF500000BF4FF48A700CF069FA38B14FF48A7020
:10FF60000CF06EFA0020174908742AE0154845691C
:10FF700024E0B5FA85F64FF00040F0408543B0002C
:10FF800000F58C7420460CF051FAB8B120460CF004
:10FF900057FA01208DF80000A4F58C70C0F3C7005B
:10FFA0008DF80400A4F58C70012121EA90018DF8F0
:10FFB0000510044801686846884700BF002DD8D165
:10FFC00000BFFEBD506200202DE9FC4104460D46F5
:10FFD000164600BF0C48007808B900F0F7FA00BFD9
:10FFE000002001900090684601F09AFD32462946B3
:10FFF000204600F00BF8074600BF9DF8000001F016
:020000040002F8
:1000000095FD3846BDE8FC81688600202DE9F04763
:10001000074688461646C24607EB47011B4800EBD9
:10002000C109D9F8140020B1012811D0022826D125
:100030001EE0484600F000FB0546B54201D2002410
:1000400005E0344632465146484600F04AFC18E086
:10005000484600F0F1FA0546B54201D2284600E0D4
:100060003046044622465146484600F03AFC08E035
:1000700032465146484600F0FBFB044601E00024AE
:1000800000BF00BF2046BDE8F0870000808600204A
:1000900070B505460C462046FFF760FA0646324624
:1000A00021462846FFF790FF70BD0FB438B50446CF
:1000B00006A800906A462046059900F003F838BC6F
:1000C0005DF814FB2DE9F04F99B082460D461446B9
:1000D00003A814904020159000201690CDF860A041
:1000E000179000BF2E786D1C06B9DDE0252E79D162
:1000F00000274FF0010900BF2E78232E12D02B2E9F
:100100000CD02D2E02D0302E10D103E047F0010785
:100110006D1C0EE047F002076D1C0AE047F0040773
:100120006D1C06E047F008076D1C02E04FF0000967
:1001300000BF00BFB9F1000FDED14FF0000800BFD3
:100140002E78302E01DB392E00DD07E06D1CA6F184
:10015000300008EB880100EB4108F1E700BF002008
:1001600013902E782E2E12D16D1C00BF2E78302EBB
:1001700001DB392E00DD09E06D1CA6F1300013997A
:1001800001EB810100EB41001390EFE700BF2E78F7
:1001900000BF6C2E01D0682E02D12E786D1C00E0BD
:1001A00000E0F6E700BF702E5DD008DC252E6AD097
:1001B000582E35D0632E09D0642E69D113E0732EEA
:1001C0003CD0752E1DD0782E62D128E02168081D04
:1001D0002060D1F8009009F0FF0B594614A800F0F8
:1001E00025FB56E058E02168081D2060D1F80090FA
:1001F000CDE900870A22494614A8139B00F02AFA89
:1002000047E02168081D2060D1F80090CDE9008703
:100210000A22494614A8139B00F092FA39E000BF65
:100220002168081D2060D1F80090CDE900871022D8
:10023000494614A8139B00F083FA2AE02168081DA0
:100240002060D1F800B000BF9BF800600BF1010BFB
:1002500006B906E0314614A800F0E8FA179800281D
:10026000F2DA00BF15E02168081D2060D1F8009087
:10027000002008210B461022CDE90010494614A8A1
:1002800000F05EFA05E0252114A800F0CFFA00E0A6
:1002900000BF00BF6D1C03E0314614A800F0C6FA91
:1002A00017980028BFF61EAF00BF179800280ADD78
:1002B000169820B103A95046169AFFF785FEDDE98E
:1002C000161008441790179819B0BDE8F08F000079
:1002D00010B50249024807F07FFD10BD0062002002
:1002E0000030004010B503494FF0402007F074FD86
:1002F00010BD00002862002010B5034C21460348C1
:1003000007F058FD10BD0000806200200030024060
:1003100070B50A48006868B108480068804704461C
:1003200000BF254625B100BF284601F0EAFA00BF0C
:1003300000BF01E007F0F4FB70BD0000AC27002017
:1003400001480249086070470090D003242A002029
:1003500010B505F047FC10B186488749486705F09D
:1003600059FC28B185480068C0F3423084490860D0
:1003700005F07AFC28B18348006820F0807081493C
:10038000086005F089FC48B100207F4908604FF003
:100390008041C1F810017A49091F086005F0A6FCE8
:1003A00018B1032076496431086005F0B7FC68B1E4
:1003B00005207649086001207449783108600020E2
:1003C0007249083108603F20091F086005F0BEFC33
:1003D000002855D06E4800686E4908606C48001DC2
:1003E0000068091D08606A4808300068091D086037
:1003F00067480C300068091D0860654810300068C7
:10040000091D0860624814300068091D08606048D2
:10041000183000685F49203108605D481C30006872
:10042000091D08605A4820300068091D08605848B6
:1004300024300068091D0860554828300068091DEF
:10044000086053482C300068091D0860504830305F
:1004500000685049403108604D4834300068091D3B
:1004600008604B4838300068091D086048483C3037
:100470000068091D0860464840300068091D086092
:1004800005F086FB30B13D481430006800F04F00A5
:10049000414908603B487438006840F470003949AD
:1004A0007439086000BF00BF00BFBFF34F8F00BFAB
:1004B00000BF00BF00BF00BF00BFBFF36F8F00BF12
:1004C00000BF00BF3548006800F00100F0B1012016
:1004D0003349086000BF334800680028FBD02F482C
:1004E000006820F001004FF01021C1F80C0200BF9D
:1004F0002C4800680028FBD000202949086000BF74
:10050000284800680028FBD0FFF7D2FB23480C38AE
:10051000006800F0004028B920480838006800F062
:10052000004018B301201E49086000BF1D48006844
:100530000028FBD0152019490C39086000BF194864
:1005400000680028FBD0152114480838016000BF5E
:10055000144800680028FBD000201149086000BF43
:10056000104800680028FBD0FFF7A2FBFFF7E8FE69
:1005700010BD00000DF0ADBA00C0074044020010ED
:100580003C050040FCED00E00C010040105600402E
:100590000404001020C50040E40E00400C120010BE
:1005A00004E5014000E4014010B50648007F20B199
:1005B0000449054814F0C9F803E00249024814F060
:1005C00023F810BDE06100200020004010B5114C60
:1005D00002202061606110A0A0611249E161402108
:1005E00021620021A1626162E1620BA0A0640E4958
:1005F000E164102121650021A1656165E1650BA120
:10060000E01DFEF7BFFF0AA12046FEF7BBFF20203A
:10061000A07110BD688600205465726D696E616CB2
:100620000000000018860020588600205254540014
:10063000534547474552000010B501460A69CB684B
:100640009A4204D88C68641EE41AA01801E0D41AF7
:10065000601E10BD2DE9FC5F06460F469246984687
:10066000DDE90C45002F01DA784200E03846834688
:100670004FF0010903E09BFBFAFB09F10109D345A7
:10068000F9DAC84500D9C14634B1002F03DB05F0C3
:100690000400042800D1641E05F0020010B1B8F176
:1006A000000F11D005F0010070B96CB108E0641EB4
:1006B0002021304600F0BAF8F068002800DA02E0A5
:1006C0000CB1A145F3D300BFF068002836DB002F42
:1006D00005DA7F422D21304600F0A8F807E005F04A
:1006E0000400042803D12B21304600F09FF8F06865
:1006F000002823DB05F00200022814D105F00100D8
:1007000088B9B8F1000F0ED16CB108E0641E302139
:10071000304600F08BF8F068002800DA02E00CB1F7
:10072000A145F3D300BFF068002807DB43465246DB
:1007300039463046CDE9004500F002F8BDE8FC9F9F
:100740002DE9FC5F8046894615461E460C9CCDF877
:1007500004900127BB4605E00198B0FBF5F001903D
:100760000BF1010B0198A842F6D25E4500D9B346C1
:100770000D9800F00100D0B9CCB10D9800F0020046
:10078000022803D116B93020009001E0202000900B
:1007900009E0641E4046009900F048F8D8F80C00C3
:1007A000002800DA02E00CB1A345F2D300BFD8F86C
:1007B0000C00002835DB09E0012E01D9761E04E08B
:1007C000B9FBF7FAAA4500D201E06F43F4E700BF96
:1007D00000BFB9FBF7FA0AFB1799134810F80A1083
:1007E000404600F023F8D8F80C00002800DA03E0B7
:1007F000B7FBF5F7002FECD100BF0D9800F001001A
:1008000078B174B109E0641E2021404600F00EF872
:10081000D8F80C00002800DA02E00CB1A345F2D3AE
:1008200000BFBDE8FC9F00009068030070B504465F
:100830000E46A568681C6168814206D3206846554B
:10084000681CA060E068401CE060D4E901108842A8
:100850000DD1A26821682069FFF7B6FBA168884224
:1008600003D04FF0FF30E06001E00020A06070BDD9
:100870002DE9F0470446894617464FF0000AE5681F
:1008800000BFD4F81080A84503D9A8EB0500461E88
:1008900004E0A5EB0800401CA1680E1AA068401BEC
:1008A000B04201D9304601E0A068401B0646BE4276
:1008B00001D2304600E038460646616848193246A3
:1008C0004946FEF727FEB244B144BF1B3544A06839
:1008D000A84200D10025E560002FD2D15046BDE8E6
:1008E000F0872DE9F047044689461546E668A0687A
:1008F000871BAF4208D9616888192A464946FEF726
:1009000009FE7019E06010E0B84661688819424637
:100910004946FEF7FFFDA5EB070809EB0701424634
:100920006068FEF7F7FDC4F80C80BDE8F0870000B2
:100930000FB41CB50246002007AC00290BD0491E9D
:10094000CDE90021054B6A462146069800F064F87F
:10095000009A002111701CBC5DF814FB7B0E020094
:100960000FB4084B10B504A902AA039800F054F87C
:10097000044602A9002000F08BFA204610BC5DF866
:1009800014FB0000910E020002E008C8121F08C10B
:10099000002AFAD170477047002001E001C1121F00
:1009A000002AFBD1704700000146202908DA012007
:1009B00088400A4A104008B1012070470020FCE737
:1009C000402909DAA1F12000012202FA00F008B161
:1009D0000120F2E70020F0E70120EEE7FC06FFBD72
:1009E00000BFEFF31081084672B6704700BFEFF307
:1009F0001081084672B67047C1B281F31188704702
:100A0000C1B281F311887047C1B281F31188704778
:100A1000C1B281F3118870472DE9FF4F8DB00F46A9
:100A20000546002606E025280BD0DDE90F12904789
:100A30006D1C761C28780028F5D111B03046BDE831
:100A4000F08F0024A246A1460122EC4900E00443B5
:100A500015F8013F203B02FA03F00842F7D128784D
:100A60002A2810D06FF02F022878A0F13001092930
:100A700014D80AEB8A0102EB410144F0020400EBB6
:100A8000010A6D1CF0E701CF5FEA000A03D544F4C8
:100A90000054CAF1000A44F002046D1C28782E2884
:100AA00017D115F8010F44F004042A280ED06FF076
:100AB0002F022878A0F1300109290AD809EB890111
:100AC00002EB410100EB01096D1CF2E757F8049BB2
:100AD0006D1C28786C280FD006DC4C2817D06828AD
:100AE0000DD06A2814D104E0742810D07A280FD1D0
:100AF0000DE044F400140AE044F4801401E044F4EE
:100B000040146978814202D104F580146D1C6D1C7B
:100B10002A786E2A1FD00CDC632A31D004DC002A2C
:100B20008BD0582A11D1A3E0642A68D0692A0CD14D
:100B300065E0732A2ED004DC6F2A73D0702A04D1AA
:100B40009BE0752A6FD0782A6ED01046DDE90F122F
:100B50009047761C50E1C4F30250022806D00328C7
:100B600009D0042801CF09D0066045E101CFF11773
:100B7000C0E9006140E101CF06803DE106703BE144
:100B800017F8040B8DF8000000208DF80100EB46EB
:100B9000012003E057F804BB4FF0FF3061074FF02E
:100BA000000102D40DE008F10101884649450FDA41
:100BB0008045F8DB1BF808100029F4D108E008F1A3
:100BC000010188468142FADB1BF808100029F6D1A2
:100BD000DDE90F23AAEB08008146214600F036F933
:100BE000304400EB080604E0DDE90F121BF8010BAE
:100BF0009047B8F10108F7D221464846F7E00A21AC
:100C0000C4F302534FF0000B0891022B04D001CF24
:100C1000C117032B09D00AE0FF1D27F00707F7E8EB
:100C2000020108E032E01FE020E000B2C117042B0F
:100C300001D140B2C117031E71F1000307DA4FF072
:100C4000000CD0EB0C006CEB01012D2302E023051E
:100C500004D52B238DF82430012303E0E30701D0D2
:100C60002023F7E7984658E00A2110E010210EE013
:100C700010204FF0000B08900CE010214FF0000BFB
:100C800044F004044FF00809089103E008214FF0F4
:100C9000000B0891C4F30253022B04D001CF0021B2
:100CA000032B06D006E0FF1D27F00707F7E8020137
:100CB00003E080B2042B00D1C0B24FF0000823073C
:100CC0002BD5702A07D0DDF820C08CF0100C5CEA20
:100CD0000B0C05D00EE040238DF82430012308E0F2
:100CE00050EA010306D030238DF824308DF82520FA
:100CF00002239846DDF820C08CF0080C5CEA0B0C4F
:100D00000BD150EA010301D1630706D530238DF8DA
:100D100024304FF00108A9F10109582A04D038A263
:100D20000B9208AA0A920BE03AA2F9E75B46089AEE
:100D3000FEF758FD0B9B9B5C0A9A521E0A92137099
:100D400050EA0102F2D10A98ADEB000000F1200B4D
:100D5000600702D524F4803401E04FF00109D94541
:100D600002DDA9EB0B0000E0002000EB0B01414489
:100D70000890AAEB010AE00306D4DDE90F2321461F
:100D8000504600F063F806444FF0000908E009A956
:100D900011F80900DDE90F12904709F10109761CED
:100DA000C145F4DBE0030CD5DDE90F2321465046B5
:100DB00000F04CF8064404E0DDE90F1230209047C3
:100DC000761C0899481E08900029F5DC08E00A986E
:100DD0000A990078491C0A91DDE90F129047761CA8
:100DE000BBF10001ABF1010BF1DC21465046DDE91E
:100DF0000F2300F019F806446D1C1BE609280100BA
:100E00003031323334353637383961626364656680
:100E10000000000030313233343536373839414242
:100E200043444546000000002DE9F04104460025FA
:100E30001E461746880404D405E039462020B047F2
:100E40006D1C641EF9D52846BDE8F0812DE9F041FE
:100E5000044600251E469046C80301D5302700E011
:100E60002027880404D505E041463846B0476D1C6C
:100E7000641EF9D52846BDE8F0814A68002A06D0EC
:100E80000A68531C0B6010704868401E4860704729
:100E90000A68531C0B6010707047000010B509F011
:100EA000FFFF08B909F0CCFF044A05491C2009F0EE
:100EB0004FFF01211C2009F0F5FE10BDED0E0200D0
:100EC0004469030010B509F0EBFF08B909F0B8FF59
:100ED000044A05491B2009F03BFF01211B2009F0B2
:100EE000E1FE10BDEF0E020048690300704770B5C7
:100EF00005460E461B2D15D1022E13D10CF098FE7F
:100F000001280FD00CF06EFE044694F83D000A3024
:100F100084F83D0094F83D00642802DA322184F818
:100F20003D1000BF00F001F870BD08B50020009032
:100F3000012269461E2000F012F808B1042008BD05
:100F40000020FCE708B5002000900122694622201D
:100F500000F005F808B1042008BD0020FCE7F0B55A
:100F600087B004460F461546782C02DD022007B0F4
:100F7000F0BD102D01DD0320F9E7102200210DF155
:100F80000900FEF7D9FA8DF808403B46012202A974
:100F90001E20009506F0DCFA06460EB90020E6E7B2
:100FA0000420E4E7F0B585B004460F46154617B9AE
:100FB000012005B0F0BD782C01DD0220F9E7102DED
:100FC00001DD0320F5E78DF800402A4639460DF192
:100FD0000100FEF79FFA681CC2B269461E2006F0A7
:100FE000D9FA06460EB90020E3E70420E1E708B588
:100FF0000020009000909DF80000009000BF00BF0E
:10100000012269462A20FFF7CDFF08B1012008BD63
:1010100000200090009000BF00BF012269465B20C5
:10102000FFF7C0FF08B10120F1E7002000909DF814
:10103000000000909DF8000040F00100009000BF0B
:1010400000BF012269460E20FFF7ACFF08B1012066
:10105000DDE7002000909DF8000040F001000090C6
:101060009DF8000000909DF8000040F00400009002
:101070009DF8000040F0200000909DF800000090D6
:1010800000BF00BF012269462A20FFF78BFF08B18D
:101090000120BCE70020BAE708B5002000900090CE
:1010A0009DF80000009000BF00BF012269462A2081
:1010B000FFF778FF08B1012008BD002000909DF8DF
:1010C000000040F0020000909DF8000040F0080091
:1010D00000909DF8000040F0200000909DF8000076
:1010E00040F0400000909DF8000040F0800000902B
:1010F00000BF00BF012269462120FFF753FF08B15E
:101100000120D9E7002000909DF8000040F00A007F
:10111000009000BF00BF012269462320FFF742FF75
:1011200008B10120C8E7002000909DF8000040F0C1
:101130000A00009000BF00BF012269462420FFF78B
:1011400031FF08B10120B7E7002000909DF80000B2
:1011500040F00A00009000BF00BF01226946252030
:10116000FFF720FF08B10120A6E7002000909DF8BE
:10117000000040F00C00009000BF00BF0122694653
:101180002620FFF70FFF08B1012095E7002000900F
:101190009DF8000040F01400009000BF00BF012245
:1011A00069462720FFF7FEFE08B1012084E70020F2
:1011B00000909DF8000040F01E00009000BF00BFAE
:1011C000012269462820FFF7EDFE08B1012073E7F0
:1011D000002000909DF8000040F00800009000BF43
:1011E00000BF012269462D20FFF7DCFE08B1012077
:1011F00062E7002000909DF80000009000BF00BF53
:10120000012269462E20FFF7CDFE08B1012053E7E9
:10121000002000909DF8000040F0010000909DF833
:10122000000000909DF8000040F0040000909DF840
:10123000000040F0200000909DF80000009000BFEA
:1012400000BF012269462A20FFF7ACFE08B1012049
:1012500032E700BF00BFFFF735FEFFF773FE002047
:101260002AE708B50020009000909DF8000000904B
:1012700000BF00BF012269462A20FFF793FE08B194
:10128000012008BD002000909DF8000000909DF80E
:10129000000040F0020000909DF8000040F00400C3
:1012A00000909DF8000040F0080000909DF80000BC
:1012B00040F01000009000BF00BF012269461D20D1
:1012C000FFF770FE08B10120DBE7002000909DF8D9
:1012D000000040F0060000909DF8000040F0800003
:1012E000009000BF00BF012269461F20FFF75AFE91
:1012F00008B10120C5E7002000909DF8000040F0F3
:101300000300009000BF00BF012269462020FFF7C4
:1013100049FE08B10120B4E7002000909DF80000CC
:1013200040F020000090012269462D20FFF73AFE90
:1013300008B10120A5E700BF00BF002000909DF884
:10134000000040F020000090012269462E20FFF7A7
:1013500029FE08B1012094E700BF00BF00200090E3
:10136000009000BF00BF012269465B20FFF71AFE14
:1013700008B1012085E7002000909DF80000009052
:101380009DF8000040F00100009000BF00BF012266
:1013900069460E20FFF706FE08B1012071E7002024
:1013A00000909DF8000040F0010000909DF80000C2
:1013B00000909DF8000040F0040000909DF80000AF
:1013C00040F0200000909DF80000009000BF00BF9A
:1013D000012269462A20FFF7E5FD08B1012050E708
:1013E000FFF75CFDFFF7A1FD00204AE710B51A20CA
:1013F0000AF012FB012009F05EF91A200AF0C9FA7E
:10140000012009F058F9FFF7F2FD10BD10B51A20C0
:101410000AF002FB012009F04EF91A200AF0B9FA8D
:10142000012009F048F9FFF737FE10BD10B51A206A
:101430000AF0F2FA012009F03EF91A200AF0A9FA9E
:10144000012009F038F9FFF70CFF10BD30B5034655
:1014500000220024002000BF05E033F8125025448C
:101460002CB2551CEAB28A42F7DB94FBF1F528B2A4
:1014700030BDF0B585B00546002600240027022DBA
:1014800002DB002005B0F0BD0A216846FEF75BF8DC
:1014900000240BE0684600EB4401284609F018FEE2
:1014A00006460EB10020EDE7601CC4B20A2CF1DB49
:1014B0000A216846FFF7CAFF07463846E2E770B5DB
:1014C00005460C4605B10CB9002070BD28784008CF
:1014D0002178B0EB510F01D00020F6E70622611C05
:1014E000681CFEF742F808B90120EEE70020ECE79F
:1014F0000246002104E0505C08B101207047491CFD
:101500000629F8D30020F9E710B504466CB1084865
:101510000068A04209D806484068A04205D320468A
:1015200006F052FD08B1012010BD0020FCE70000CC
:10153000282A00202DE9FC4104468846164600254D
:1015400037880020308094F82D0058B13A46314653
:10155000404602F0B1F9054600BF15B12846BDE886
:10156000FC8100BFA07850B13A463146404600F0B9
:1015700001FB054600BF0DB12846F0E700BFE0784B
:1015800060B1E17848B23B463246414604F0ECFF98
:10159000054600BF0DB12846E1E700BF606868B1AD
:1015A000616891F900003B463246414613F008F865
:1015B000054600BF0DB12846D1E700BF20890028AD
:1015C0000EDD43460622022104F10800CDE9006742
:1015D00013F074FB054600BF0DB12846BFE700BFFE
:1015E000208A00280EDD43460722032104F1100063
:1015F000CDE9006713F062FB054600BF0DB1284638
:10160000ADE700BF208B00280EDD434615221421D4
:1016100004F11800CDE9006713F050FB054600BF48
:101620000DB128469BE700BF206A58B13B463246C1
:101630004146206A04F0C2F8054600BF0DB12846B5
:101640008DE700BF606A58B13B4632464146606A4A
:1016500007F03CFD054600BF0DB128467FE700BFFF
:1016600094F82C0000280BDD3B46324641462046CC
:1016700010F008FD054600BF0DB128466FE700BF1A
:10168000207858B13B4632464146204607F059FD86
:10169000054600BF0DB1284661E700BF28465EE75A
:1016A00070B504461448FFF723FF0546012C06D009
:1016B000022C0BD0032C10D0042C1AD113E00F48AD
:1016C000407810B10DB1012070BD00BF0B4880788B
:1016D00010B10DB10220F7E700BF0848C07808B18B
:1016E0000320F1E700BF0548007908B10420EBE7CB
:1016F00000BF0020E8E70000D6260020105B002095
:101700000146481C052290FBF2F302FB1300C0B215
:1017100070470146C87800F0040008B907207047F8
:101720000020FCE730B5A7B03C2118A8FDF70BFF5F
:1017300002208DF8600000208DF8620005208DF8F1
:1017400063003C2109A8FDF7FEFE0120ADF834003E
:1017500010490E91202101A8FDF7F5FE01208DF81A
:1017600007004FF496700590B420069000200A4BB5
:1017700001AA09A9009018A801F0BAFC044600BF0C
:10178000254625B100BF284600F0BBF800BF00BFCA
:1017900027B030BD38280020D5C5020070B50446FA
:1017A000012C02D104F026F90DE0032001F0CAFD5E
:1017B000054600BF2E4626B100BF304600F0A1F816
:1017C00000BF00BF00BF70BD70B58CB004460D46B1
:1017D0001646002005E0C0F10F01615C0DF8001015
:1017E000401C1028F7D30D2104A8FDF7ACFE002003
:1017F00005E02A5CC0F10F0304A9CA54401C032869
:10180000F7D3684643DF002005E0C0F10F0208A9C6
:10181000895C3154401C0328F7D30CB070BD10B55F
:101820000446022002F01AFB10BD000010B500248F
:1018300007E00749096811F83400012109F032FA7C
:10184000641C044800788442F3D3002010BD0000DB
:10185000682700206C2700202DE9F84306460C4637
:101860001746052F02D20720BDE8F88309F018FBC0
:1018700038B909F0E5FA054600BF0DB12846F3E78F
:1018800000BF16480660164804701648076000201E
:10189000154908601549086015E006EBC4081448AE
:1018A0000068009098F802008DF8010098F8000098
:1018B000104A694609F04CFA054600BF0DB12846AA
:1018C000D2E700BF00BF201EA4F10101CCB2E4D1D9
:1018D000094A0021094800F02FF8C5E768270020D1
:1018E0006C27002070270020742700207827002014
:1018F000BC6703005D7102007D5A0200B8670300F7
:1019000070473EB50446002000900190029002947A
:101910006A46002144F20100FFF7F2FF3EBD70B5B8
:10192000054628460EF064FE0446207B10B1A168EF
:101930002068884770BD00002DE9F84305468846B9
:1019400016462C684FF0000906B115B90720BDE80E
:10195000F883207B08B10820F9E76068D0B900203F
:1019600020606060A060E060B8F1000F01D1002746
:1019700000E00127A660094823463A464FF47A71F1
:10198000009007A014F0E0FD6060606820B94FF09F
:101990000E0901E00820DAE74846D8E71F190200DF
:1019A00020000000002070472DE9FC4705460E4648
:1019B00017462C46D4F80480B8F1000F02D1082055
:1019C000BDE8FC87207B002806D0404614F03AFE94
:1019D000002801D00020F3E7276000BFEFF3058067
:1019E000A8B30020019001AB324609210090404687
:1019F00014F0F2FD012801D00420E1E714F012FCFC
:101A00008146002001AB4A4606210090404614F072
:101A1000E3FD012801D00420D2E70198B0B100BF56
:101A20004FF080501A49086040BF00BF00BF00BFA0
:101A3000BFF34F8F00BF00BF00BF00BF00BF00BF9C
:101A4000BFF36F8F00BF00BF00BF00BF1BE0FFE709
:101A500002200023324604210090404614F0BCFDD1
:101A6000012801D00420ABE714F0D6FB8146022008
:101A700000234A4601210090404614F0ADFD0128A4
:101A800001D004209CE701202073002098E700008B
:101A900004ED00E07CB5044625466E68002E01D1B9
:101AA00008207CBD00BFEFF3058030B3002001901B
:101AB00001AB024608210090304614F08DFD01284C
:101AC00001D00420EDE70198B0B100BF4FF0805085
:101AD0001249086040BF00BF00BF00BFBFF34F8F77
:101AE00000BF00BF00BF00BF00BF00BFBFF36F8FCC
:101AF00000BF00BF00BF00BF0BE0022000231A465A
:101B000003210090304614F067FD012801D0042025
:101B1000C7E70020287300BFC3E7000004ED00E022
:101B200010B5044620460FF0DBFC10BD70B504462E
:101B300025460E488068B0B1ADB9FEF757FF06469E
:101B40000A4800680A490860084840684FF0E021E8
:101B5000C1F804010020054988601EB900BF62B6C3
:101B600000BF00BF00BF00BF70BD0000DC620020EE
:101B700000E100E0F8B505460C4617462088001D38
:101B8000B84201D90C20F8BD684679DF064600BF8F
:101B90000EB13046F7E700BF032021886854208843
:101BA000401C20801920218868542088401C2080F7
:101BB00020884119BDF8000012F053FE2188084426
:101BC00020800020DFE7000070B51748407801282A
:101BD00029D103200CF016F8044604F116052888D4
:101BE000B0F57A7F0CD1104890F8BA0040B9A07CCB
:101BF00000F00400042803D101200B4981F8BB0048
:101C0000288841F2883188420CD1074890F8BC00FE
:101C100040B9A07C00F00400042803D1012002494F
:101C200081F8BD0000BF70BDBC87002070B58AB0D0
:101C300004460025142105A8FDF785FC14216846FB
:101C4000FDF781FC66883246211D05A8FDF762FC80
:101C50000F488278C11C6846FDF75CFC00208DF8B7
:101C600027008DF813001322694605A8FDF793FCA1
:101C700058B9012506488278C11C0648FDF74AFC80
:101C800000210448C83880F8DB1028460AB070BD2F
:101C90009888002084880020704700002DE9F041DA
:101CA00000262048C4694FF0050800F0A1FB6468D5
:101CB00031E0002700254FF480511B48FDF743FC1D
:101CC000206801784FF4805217480FF057FF804684
:101CD000B8F1000F1ED1144F3D46AD1D2846FFF749
:101CE000A5FF0646AEB10F480462AA78291DC83088
:101CF000FDF710FC384680780A49A1F8C60008466E
:101D0000B0F8C6003946C97840EA01200549A1F873
:101D1000C600646800BF0EB9002CCAD13046BDE8C9
:101D2000F0810000BC870020789D002010B504469B
:101D300014212046FDF707FC142203492046FDF735
:101D4000E9FB0020E07410BD848800202DE9F041FB
:101D5000002700261448406A406818B11248406ABB
:101D600047681DE0114C1048B0F8C6500AE02078D2
:101D7000482804D16078412801D1012602E0641C82
:101D8000681E85B20EB9002DF1DC002D07DD012E95
:101D900005D127460449486A21460CF067F800BF80
:101DA0003846BDE8F0810000BC870020789D002007
:101DB0000148407870470000BC87002010B50446F9
:101DC0000548006830B10023022219460248006825
:101DD00014F0A2F910BD0000E027002008B5094862
:101DE000002301220A21009007A014F0ADFB07494F
:101DF00008600846006820B900BF0420FFF781FD95
:101E000000BF08BDBD1D020041504C00E827002066
:101E100038B500241448006814F014FC044614BBC0
:101E200012480068002802DD00201049086010A157
:101E30000020FEF72DF914F0EFF9054602200023EB
:101E40002A46012100900848006814F0C5FB0128CB
:101E500004D000BF0420FFF754FD00BF0348006812
:101E6000401C0249086038BDE8270020F027002008
:101E700053544152545F54494D4552530D0A00008A
:101E800008B508A10020FEF703F9022000231A4636
:101E9000032100900748006814F09EFB00200649CB
:101EA000086008BD53544F505F54494D4552530D7F
:101EB0000A000000E8270020F02700202DE9F0416B
:101EC00007461548406A4468002600250CB31248AE
:101ED0008462204600F0E6F9204600F051F92046E1
:101EE00000F074F90C48B0F8C20010B1204600F0C0
:101EF000A9F925680BE02878542807D168784D287F
:101F000004D1012604486968816100E06D1C002E3F
:101F1000F1D0BDE8F0810000BC8700202DE9F0473A
:101F200082463D48406BD0F8048000270025B8F178
:101F3000000F6ED0D8F8005069E02878552865D198
:101F40006878432862D105F1020900242E467E21DB
:101F500031483C30FDF7F7FA002011E0317855297F
:101F60000CD17178522909D1311DB1F90020002A14
:101F700002DD0B88284AD387012700BF761C401C4E
:101F8000B9F90010814201DD002FE7D0012F00D107
:101F900035462C1D002033E034F8022B00EB4003C3
:101FA0001D49423121F8232034F8022B00EB400375
:101FB00001EB83014A8034F8022B00EB4003164901
:101FC000423101EB83018A8034F8022B00EB40039D
:101FD0001149423101EB8301CA8034F8022B00EB36
:101FE00040030D49423101EB83010A8134F8022B91
:101FF00000EB40030849423101EB83014A81401C58
:102000000549B1F93E108142C6DC00E06D1C002F8D
:1020100093D0BDE8F0870000BC87002008B1012103
:1020200000E00021014A82F8BC107047BC87002004
:102030003EB500250424002001900290FFF786FEA3
:1020400005462846FFF73AFF01A80FF008F80446B6
:10205000002C28D19DF9060000909DF905309DF9CE
:10206000042012A10020FEF720F81648407E8DF8CB
:1020700005001448807E8DF8060000208DF80400CD
:1020800001A80FF08AF804466CB99DF9060000908B
:102090009DF905309DF9042004A10020FEF705F804
:1020A00001200849087020463EBD0000532025301D
:1020B0003258204D202530325820482025303258C3
:1020C0000D0A0000BC87002010B54FF6FF740C49C4
:1020D000C86A00210BF0EDFE044609E014B1204669
:1020E0000BF072FF0649C86A21460BF0E2FE044677
:1020F000002CF3D10020024981F8BE0010BD000081
:10210000BC8700207047000010B5044614480068E2
:1021100020B30023012219461148006813F008FD7E
:1021200001281BD1207B0F490870607B4870A07A82
:10213000801E88706089821E04F10E010948C01C4F
:10214000FDF7E8F901200849087000231A461946EE
:102150000348006813F008FE00F080F910BD00008D
:10216000D827002098880020E427002008B101210A
:1021700000E00021014A82F8BA107047BC870020B5
:1021800070B5014600230020E1B100240022086858
:102190000446628812E00578532D0CD145784E2D07
:1021A00009D1012305790DB1012500E00025064E76
:1021B00086F8BA5002E0401C551EAAB20BB9002A9C
:1021C000E9DC00BF70BD0000BC8700202DE9F041B4
:1021D000054600240626002D30D0A04600272C6896
:1021E000A046B8F8027024E02078502802D1607828
:1021F000482811D020784D2802D1607848280BD08B
:1022000020785A2802D16078482805D020784C28B8
:102210000CD16078482809D1062E01D10848046302
:10222000761E0749C86A21460BF020FE641C781E02
:1022300087B2002E01D9002FD6DC00BFBDE8F081A7
:10224000BC8700202DE9F0410546002403262DB36C
:10225000A04600272C68A046B8F8027019E0207844
:10226000552813D16078482810D1032E05D10C4889
:10227000846301200A4981F8BF00761E0849486B33
:1022800021460BF0F3FD2046FFF748FE641C781E44
:1022900087B2002E01D9002FE1DC00BFBDE8F0813C
:1022A000BC87002010B501460022002081B30868D9
:1022B00018E00378572B14D14378442B11D1012215
:1022C0000379164CA4F8C2302346B3F8C230C3EBEE
:1022D00003134FF6FF7404EA8303104CA4F8C230D2
:1022E00000E0401C002AE4D0012A15D10B4BB3F8C2
:1022F000C2306BB108460DE00378572B09D1437803
:10230000492B06D101220379044CA4F8C03001E026
:1023100002E0401C002AEFD010BD0000BC87002066
:1023200010B50120024981F8BE0000F0DFF910BDB0
:10233000BC87002010B54FF4807303A20449054800
:102340000BF00AFC10BD000041505054000000008A
:1023500079240200E027002070B504460EF00AFE42
:10236000054685B9012C0ED10949486A0BF092FD4A
:102370000749C86A0BF08EFD0549486B0BF08AFDD2
:1023800000200349087000F0CFF9284670BD000016
:10239000BC87002010B5082009F078FF044624B15E
:1023A0000020206060601148C461082009F06EFFC1
:1023B000044624B10020206060600C48446208207C
:1023C00009F064FF044624B10020206060600748E3
:1023D000C462082009F05AFF044624B1002020609E
:1023E00060600248446300F003F810BDBC87002021
:1023F0002DE9F041082009F049FF8046002400251E
:102400007F261449C8690BF045FD00BF4FF4805189
:102410001148FDF798F84FF4805221460E480FF00E
:10242000ADFB074687B90C480078412809D10A4816
:102430004078482805D10749C86921460BF016FDA8
:102440006D1C761E04F58054082D01DA002EDDDCAB
:10245000BDE8F081BC870020789D002010B50548BC
:10246000006830B10023022219460248006813F0C8
:1024700053FE10BDE027002008B5FFF78BFF0120B9
:1024800013F00CFB744908600846006820B900BFCF
:102490000420FFF736FA00BF00F00EF9FFF79EFCAC
:1024A0006E480021016041600181D4E04FF0FF31AE
:1024B000012012F0EDF96A4890F8BE0001280ED113
:1024C00067494870084690F8BB0008B9FFF7FCFD63
:1024D000634890F8BF00012801D1FFF713FE604860
:1024E000407801280CD15E48B0F8C200401E5C491B
:1024F000A1F8C2000846B0F8C20008B900F014F90B
:1025000056480078012868D1002056490871487162
:10251000524841880022534803F02AFA06464F48A1
:102520008388324650A10020FDF7BFFD4B488088CC
:10253000B04247D102274FA10020FDF7A9FD082096
:102540000BF060FB0446207A000300904AA10020B3
:10255000009AFDF7AAFDFA02424800990FF00EFB1F
:10256000074677BB3F480078FF282AD13B4842887E
:102570003C48009911F046F9074617BB40A10020DE
:10258000FDF786FD0C2009F081FE0546C5B1207AD5
:10259000401C2072207A042801DD002020720AA845
:1025A00028602E484088A8800098A8602C48C06900
:1025B0002060294620680BF059FC01203249087040
:1025C00000BF00BF254800210160416001814FF438
:1025D00080512448FCF7B7FF00BF2C480078012841
:1025E00039D11D480068B0B30023012219461A48AA
:1025F000006813F09DFA01282DD1002023490870AE
:102600002348007850B900240120FFF7A5FEFFF70A
:1026100045FB04460CB1FFF70BFD15E01C480078A4
:10262000012804D11A494878FFF736FB0CE0184816
:102630000078022808D11649497809B1012100E043
:1026400000210846FFF788FE00231A461946024873
:10265000006813F089FB29E7D8270020AC88002008
:10266000BC870020788D0020432025582025580D58
:102670000A000000570D0A0025580D0A000000004E
:1026800057430D0A00000000F4270020E427002033
:10269000988800201CB50446002000900190054851
:1026A000006830B10023022219460248006813F086
:1026B00033FD1CBDE027002008B509480023012296
:1026C0009102009007A013F03FFF074908600846F9
:1026D000006820B900BF0420FFF713F900BF08BD50
:1026E0009526020053544D00DC27002038B5002405
:1026F0000C48006813F0A6FF044694B913F08CFD53
:102700000546022000232A46012100900548006862
:1027100013F062FF012804D000BF0420FFF7F1F896
:1027200000BF38BDDC27002008B5022000231A4670
:10273000032100900248006813F04EFF08BD00001E
:10274000DC27002038B513F067FD04460220002383
:102750002246012100900648006813F03DFF012841
:1027600004D000BF0420FFF7CCF800BF38BD000044
:102770002C28002070B504460D462646FFF748FB7E
:102780001A48408878B9A01C0188184A5180801CDA
:10279000018891807188142291FBF2F1491D09B2E0
:1027A000124A118100BF1149C988114A88182A4666
:1027B0002146FCF7AFFE0D48C08828440B49C8806D
:1027C0000846C088498888420EDBFFF759FB094854
:1027D000006848B10120054908700023022219460B
:1027E0000448006813F098FC002070BDAC880020FD
:1027F000788D0020E027002070B505460C46206843
:10280000401C28B1206809F0E6F8206809F057F864
:102810006068401C18B10021606809F043F828790D
:102820002D4901EB4010007F50B32868A169C0F822
:10283000241500BF617D227D286841EA0203C0F8AB
:102840006C3500BFD4E90012286809F0BCFE207D79
:1028500001283FD1A068401C18B10021A06809F0F0
:1028600021F8E068401C28B1E06809F0B4F8E0689D
:1028700009F025F8D4E90221286809F090FE29E042
:102880002868A169C0F8241500BF617D227D2868F1
:1028900041EA0203C0F86C3500BFD4E90012286891
:1028A00009F064FE207D012814D1A068401C18B1F5
:1028B0000021A06808F0F6FFE068401C28B1E0683D
:1028C00009F089F8E06808F0FAFFD4E902212868E5
:1028D00009F035FE70BD0000E061002030B5A3B006
:1028E0001348007800F0B2FF054628460EF02CFE93
:1028F000D8B101A800F00AFF442201A912A8FCF7F0
:1029000009FE00240DE013A931F8140008490978E4
:1029100000F0AAFF20B113A931F8140005F080FDE2
:10292000641C1298A042EED800BF23B030BD000056
:102930000E27002010B592B00020019000BF9DF836
:10294000040020F00F00401C8DF804009DF80400E6
:1029500020F0F00010308DF8040000BF00BF9DF89B
:10296000050020F00F00401C8DF805009DF80500C3
:1029700020F0F00010308DF8050000BF9DF8060033
:1029800020F00100401C8DF806009DF8060020F0A4
:102990000600801C8DF806001C210AA8FCF7D3FD58
:1029A00000200290039004208DF808004FF41C5082
:1029B000ADF80A009DF8280020F0400040308DF866
:1029C00028009DF8280020F0080008308DF8280025
:1029D0009DF8280020F00200801C8DF828009DF84A
:1029E000280020F0100010308DF828003D480068C5
:1029F0000B903C480068FCF7B1FD80B2ADF83200A6
:102A000038480068FCF7AAFD80B2ADF8300002A893
:102A10000D9001A80F9000201090049000BF9DF829
:102A2000100020F00F00401C8DF810009DF81000E1
:102A300020F0F00010308DF8100000BF00BF9DF8AE
:102A4000110020F00F00401C8DF811009DF81100BE
:102A500020F0F00010308DF8110000BF9DF812003A
:102A600020F00600801C8DF812009DF8120020F066
:102A700008008DF812009DF8120020F010008DF86B
:102A800012009DF8120020F00100401C8DF8120089
:102A9000142105A8FCF757FD00BF01208DF8460062
:102AA00045F20100ADF8440000BF11A8059004A84C
:102AB00006901420ADF81C000020ADF81E00142074
:102AC000ADF820000020099007490968088A0649E6
:102AD0000B68083305AA0AA9A2DF0446204612B0F3
:102AE00010BD0000DC280020E828002010B592B0BE
:102AF00007240020019000BF9DF8040020F00F0083
:102B0000401C8DF804009DF8040020F0F000103007
:102B10008DF8040000BF00BF9DF8050020F00F00F5
:102B2000401C8DF805009DF8050020F0F0001030E5
:102B30008DF8050000BF9DF8060020F00100401C44
:102B40008DF806009DF8060020F00600801C8DF828
:102B500006001C210AA8FCF7F6FC00200290039056
:102B600004208DF808004FF41C50ADF80A0002A8AC
:102B70000D909DF8280020F0400040308DF828008E
:102B80009DF8280020F0080008308DF828009DF8F6
:102B9000280020F00200801C8DF828009DF82800F5
:102BA00020F0100010308DF828003B4800680B9092
:102BB00039480068FCF7D2FC80B2ADF832003648E4
:102BC0000068FCF7CBFC80B2ADF8300001A80F9094
:102BD00000BF01208DF8460045F20200ADF8440028
:102BE00000BF0020049000BF9DF8100020F00F00EF
:102BF000401C8DF810009DF8100020F0F0001030FF
:102C00008DF8100000BF00BF9DF8110020F00F00EC
:102C1000401C8DF811009DF8110020F0F0001030DC
:102C20008DF8110000BF9DF8120020F00600801CF6
:102C30008DF812009DF8120020F008008DF81200A7
:102C40009DF8120020F010008DF812009DF812007F
:102C500020F00100401C8DF81200142105A8FCF79B
:102C600072FC11A8059004A806901420ADF81C0071
:102C70000020ADF81E001420ADF8200000200990BF
:102C800006490968088A054905AA0B680AA9A2DF4E
:102C90000446204612B010BDD8280020E8280020A5
:102CA00010B504462088102804D0112807D05028D9
:102CB0000FD10AE0A0880849096848820AE04FF667
:102CC000FF7005490968488204E020460AF00EF9C1
:102CD00000E000BF00BF10BDE82800201CB50424A0
:102CE0000020009002208DF806004FF6FF70164974
:102CF000096848821A211548FCF725FC1448002170
:102D000001600171002001906946124862DF0446AB
:102D10000CB120461CBD4FF4A040ADF804009DF856
:102D200000008DF8060008480268103201A9012051
:102D3000A0DF044614B9FFF7FDFD044614B9FFF700
:102D4000D5FE04462046E5E7E82800208C8A0020CE
:102D5000E0280020B468030010B50446637903F04E
:102D600003022179208805F0E5FA10BD10B504466C
:102D7000207918B9204600F007F803E02046FFF755
:102D8000EBFF00BF00BF10BD2DE9F04188B0044645
:102D90000025208800F02CFD0746208804F0CEFD99
:102DA0000646A0680790607A069020880022234992
:102DB000097800F06DFD17B908B0BDE8F0816079C1
:102DC000C0F3800090B1072130460BF01FFC054690
:102DD000BDB108208DF800002088ADF80200ADF8E4
:102DE00004600295684603F07FF80AE020881449E1
:102DF000097800F039FD20B1304604F089FD8046A5
:102E000000BF03208DF80C002088ADF80E0060791B
:102E1000C0F380008DF81000A079C0F380018DF818
:102E200011109DF81C108DF812109DF818108DF8D7
:102E3000131003A803F058F800BFBDE74E27002089
:102E40005027002030B591B0044600255520019050
:102E500060480068807ED0B30020099000BF9DF8D4
:102E6000240020F00F00401C8DF824009DF8240061
:102E700020F0F00010308DF8240000BF00BF9DF856
:102E8000250020F00F00401C8DF825009DF825003E
:102E900020F0F00010308DF8250000BF00BF4E4834
:102EA000007C20F00F00401C4B4908740846007C51
:102EB00020F0F0001030087400BF207C8DF8250051
:102EC0009DF8260020F00600801C8DF826001C21AD
:102ED0000AA8FCF738FB9DF8280020F00200801CAF
:102EE0008DF828009DF8280020F0100010308DF893
:102EF000280000200B900D900E9009A80F90002044
:102F0000109000BF01208DF80E0042F61920ADF898
:102F10000C0000BF0020029000BF2F48407C20F032
:102F20000F00401C2C4948740846407C20F0F000FB
:102F30001030487400BF00BF0846807C20F00F00AE
:102F4000401C88740846807C20F0F00010308874A3
:102F500000BF607C8DF80800A07C8DF809009DF80A
:102F60000A0020F00600801C8DF80A009DF80A0077
:102F700020F008008DF80A009DF80A0020F01000EB
:102F80008DF80A009DF80A0020F001008DF80A0073
:102F9000207B0190142104A8FCF7D5FA03A8049023
:102FA00002A805900220ADF818000020ADF81A0024
:102FB0000220ADF81C0001A808900649096888881D
:102FC00004490B689B1D04AA0AA9A2DF05462846EE
:102FD00011B030BD50280020E089002010B503F06A
:102FE00095FF02490968486110BD00005028002083
:102FF00008B50948002301220849009008A013F0F1
:10300000A3FA094908600846006820B900BF0420F7
:10301000FEF777FC00BF08BDB534020020BF0200F8
:1030200042415454000000005828002038B513F0E5
:10303000F3F80446022000232246012100900648AE
:10304000006813F0C9FA012804D000BF0420FEF77D
:1030500058FC00BF38BD0000582800202DE9F04181
:1030600092B080460D461F2011901090B8F1000FCD
:1030700017D04046FEF74DFB044600BF1CB120466A
:1030800012B0BDE8F08100BF11AA08A94046FEF7C2
:1030900051FA044600BF0CB12046F1E700BF08AE6C
:1030A00002E0002600201190ADB1284610F0B3FCDC
:1030B000044600BF0CB12046E2E700BF10AA6946F3
:1030C0002846FEF737FA044600BF0CB12046D7E782
:1030D00000BF6F4602E0002700201090BDF84000BE
:1030E000C3B2BDF84400C1B23A46304672DFC7E70A
:1030F0002DE9F04704460F4615461E46DDF82080B0
:1031000004B115B90E20BDE8F087012049490870C7
:10311000002049490870202229464848FCF7FAF95E
:10312000002047490870474806604748C0F80080BB
:103130004FF6FF70454908804548002101608180B5
:1031400081713C214348FCF7FEF920784149087021
:10315000A0788870E078C870607848700846D4E934
:103160000412C0E90412D4E90212C0E90212D4E93F
:103170000612C0E90612606AD8B13748354948627C
:1031800036498160606A00883249496A0880606A0D
:1031900080883049496A8880002005E0616A896832
:1031A000095C2E4A1154401C2A49496A8988814287
:1031B000F4D8A06A20B32A492A4881602549886248
:1031C00027492448806A8160A06A80882149896AE9
:1031D0008880A06A00881F49896A0880002005E06D
:1031E000A16A8968095C1E4A1154401C1949896A00
:1031F00089888142F4D894F82C00164981F82C0073
:10320000206A58B1184813490862206A4088096A40
:103210004880206A00880F49096A0880606810B1F8
:103220000C496068486039460A48FFF717FF814635
:10323000484668E7D0260020D3260020105B0020F7
:10324000D4260020E4260020E8260020E2260020E4
:10325000D5260020305B00206C5B0020785B0020CE
:10326000A45B0020985B0020DE26002010B50446F9
:103270002088102804D0112806D01B280CD107E084
:10328000204609F0BDFA08E0204609F073FB04E08F
:10329000204609F05BFC00E000BF00BF10BD00004D
:1032A00070B50546022D02D0032D15D100E000BFF8
:1032B0000B48007878B10020094908700948007867
:1032C00000F040F8044634B10748006818B12046C1
:1032D00005490968884700E000BF00BF70BD0000D5
:1032E000D1260020D3260020E826002010B574DF68
:1032F00001200F49087000200E49087006200E4971
:10330000C87000210C48FFF7A9FE04460CB1204606
:1033100010BD0A48007800F015F8044634B108489A
:10332000006818B120460649096888470020EFE781
:10333000EC260020EE260020305B0020D326002063
:10334000E82600207FB505464E48007810B90820D1
:1033500004B070BD4C48057003F070F920B1012035
:103360004A4908700020F3E7494800210160818044
:1033700081714848407818B14348007801280DD041
:103380004448807818B140480078012806D0414868
:10339000807888B13C48007802280DD13E4800680A
:1033A00038B101203D49087008203B490968884729
:1033B00002E00020394908702846FEF771F93249C9
:1033C000087035480068C0B108460078032803D06B
:1033D00008460078042810D12E48007868B130489B
:1033E000007850B900202F49087001202E4908703C
:1033F000072029490968884702E000202A49087007
:10340000002000900190029003908DF800008DF84C
:1034100008001D48007805281CD2DFE800F01703DB
:10342000080D120068460FF0B9F9044613E068462B
:103430000FF0C4F904460EE068460FF0D5F90446D3
:1034400009E068460FF000FA044604E0002017493E
:10345000087000E000BF00BF0B48007838B1144886
:103460000178684673DF04460CB1204670E70A48CD
:10347000006820B10D480078074909688847002096
:1034800066E70000D0260020D3260020D1260020A9
:10349000D5260020105B0020E4260020DC2600203A
:1034A000EC260020EE260020ED260020D22600206B
:1034B000D426002030B587B005462B48006808B9EF
:1034C00007B030BD28480068406927490968096984
:1034D000884246D0244800684069002841D0002036
:1034E000059006900220ADF814000020ADF81600FB
:1034F0001D480068143006901B48006840691A494E
:103500000968086118480068008B4FF6FF7188420F
:1035100027D015480068807E18B30AF019FB0446CE
:10352000002001900290039004900F490968022244
:10353000486921460AF028FB0B480068C088ADF8AE
:10354000040001208DF80600BDF81600ADF8080053
:1035500005A80390049404490968088B01A9A6DF13
:1035600000BF00BFACE70000502800202DE9F84361
:1035700007242548006800682449096808604FF658
:10358000FF702249096808831F48006800791F49B5
:103590000968887600201D490968086100BF01207C
:1035A0008DF8020041F60F00ADF8000000BF17488B
:1035B0000268121D69460120A0DF044614B12046AE
:1035C000BDE8F8831248FFF73DFC044602200121C4
:1035D0000D4600221646134600BF4FF0A04C67462A
:1035E00041EA450C4CEA820C4CEA062C4CEA0348B2
:1035F00007F5E06C4CF8208000BF00BFFFF7F8FC37
:10360000FFF714FD2046DBE7542800205028002057
:10361000E089002010B5044614B10F48006800B9D5
:1036200010BD2088102804D0112807D050280FD1B1
:103630000AE0A0880849096808830AE04FF6FF708D
:1036400005490968088304E0204609F0C1FA00E052
:1036500000BF00BF00BFE3E75028002070B505465B
:103660001C2229461248FBF755FF0020114908701B
:10367000286850B1104829680A68026049684160AA
:103680007ADF04463CB1204670BD0B487BDF044620
:103690000CB12046F8E74FF6FF700849088000207B
:1036A00007490870074A00210748FEF745F9EBE78C
:1036B000C45B002004270020F0260020FA2600200A
:1036C000F8260020FD4B03009C66030010B504465D
:1036D0002088102806D0112808D012280ED0502893
:1036E00010D107E0204609F06FF80CE0204609F001
:1036F00021F908E0204609F045FA04E0204609F0E7
:1037000057F800E000BF00BF10BD000010B5044630
:103710000348011D426C20460DF092FF10BD0000D1
:10372000005C002010B5044603482246016D001DD0
:103730000DF06FFF10BD0000005C002010B50446C6
:1037400003482246416D001D0DF063FF10BD0000CF
:10375000005C002070B504462088102804D0112891
:103760001DD01A2840D11EE00DF09CFBA0880DF062
:1037700013FA20B900BF0420FEF7C3F80EE0E07B87
:10378000022801D1012000E000200546A2882B4636
:103790001649A1F148000DF074FF00BF24E0A08895
:1037A0000DF0A2FB20E0207A0121B1EB101F01DA1D
:1037B000012000E000200346A2880C49091DA1F168
:1037C0004C000DF05EFF207A0221B1EB101F01DAF0
:1037D000012000E000200346A28804490831A1F13D
:1037E00050000DF04EFF00BF00BF70BD4C5C0020CC
:1037F00070B5044600250B482246416C001D0DF0B3
:1038000008FF60B107482246C16C001D0DF001FFA2
:1038100006460EB1022000E00120054600BF284602
:1038200070BD0000005C002010B500240AE02046B6
:1038300011F036FA20B9204611F028FA204610BDC2
:10384000601CC4B2182CF2DB1820F8E710B504464F
:10385000204611F025FA18B1024850F8240010BD96
:103860000020FCE7585C002070B505460C46204659
:1038700011F016FA38B1054850F824102A46543889
:103880000DF0C7FE70BD0020FCE70000585C002072
:1038900070B505460C461646204611F001FA38B1BF
:1038A000044800EB840133462A4654380DF0E9FE03
:1038B00070BD0000585C00202DE9FC4105460C4617
:1038C000174620880930B84202D90C20BDE8FC8197
:1038D00068466DDF064600BF0EB13046F6E700BF12
:1038E0000820218868542088401C20801B202188C3
:1038F00068542088401C208020882844DDF801106E
:103900000160BDF8051081802088801D20809DF811
:103910000000400818B900202188685402E0012006
:10392000218868542088401C20800020CEE70000B9
:1039300030B587B0774C0725774903C9CDE9040135
:1039400004A8A06300BF01208DF81A0041F60A0008
:10395000ADF8180000BF714A06A90120A0DF054696
:10396000002D44D140212046FBF7EDFD6CA12046FF
:1039700000F06AF973A104F1080000F065F974A180
:1039800004F1100000F060F973A104F1180000F0D8
:103990005BF974A104F1200000F056F974A104F160
:1039A000280000F051F900BF204690F83C0020F0BC
:1039B0000F00401C214681F83C00084690F83C006E
:1039C00020F0F000103081F83C0000BF00BF084636
:1039D00090F83D0020F00F01204680F83D1090F84F
:1039E0003D0020F0F001204680F83D1000BF6DB989
:1039F000208800280ADD60480090228804F13C03FA
:103A000042F62920616801F0ABFC05466DB92089BA
:103A100000280ADD59480090228904F13C0342F64F
:103A20002420E16801F09CFC05466DB9208A00283D
:103A30000ADD53480090228A04F13C0342F6252017
:103A4000616901F08DFC05466DB9208B00280ADD07
:103A50004C480090228B04F13C0342F62720E16998
:103A600001F07EFC05466DB9208C00280ADD464831
:103A70000090228C04F13C0342F62620616A01F09A
:103A80006FFC05466DB9208D00280ADD3F48009087
:103A9000228D04F13C0342F62820E16A01F060FC2B
:103AA00005468DB9206B78B102A8216B10F01EF885
:103AB000374804F13C03082202A9009042F6232073
:103AC00001F04EFC054600BF6DB9606B58B131483E
:103AD0000090606B027904F13C03016842F62A20F1
:103AE00001F03EFC05468DB9A06B78B102A8A16B30
:103AF0000CF080F8284804F13C03072202A900904A
:103B000042F6502001F02CFC054600BF002007B013
:103B100030BD0000F4890020D0680300A4280020F4
:103B20004265686176696F72616C20546563686E86
:103B30006F6C6F67792047726F75702C20496E63C8
:103B40002E0000005061766C6F6B2D53000000005A
:103B50005320554E4B0000003035323738312D3967
:103B6000420000005320414C5048412034000000E6
:103B7000563A332E350000005C28002064280020CF
:103B80006C280020742800207C2800208428002035
:103B90008C280020942800209C28002010B5044682
:103BA0002046FFF7D7FD20460BF0D0FD2046FFF75B
:103BB00031FD2046FFF78AFD204608F037FD2046FC
:103BC000FFF754FB21460B4806F0EEFC20460FF0B1
:103BD00097FB204600F0AEFF204606F0C7FA2046CD
:103BE00004F0CEFE204610F069FA2046FFF758F8A0
:103BF00010BD00005889002008B5002000906946DB
:103C00000F48006812F099F90098B0B100BF4FF06A
:103C100080500C49086040BF00BF00BF00BFBFF329
:103C20004F8F00BF00BF00BF00BF00BF00BFBFF38A
:103C30006F8F00BF00BF00BF00BF002008BD0000A5
:103C40002028002004ED00E070B504460D4628460B
:103C5000FBF784FC2080656070BD70B5044620468B
:103C600010F0F9FD054605F0010070BD70B586B095
:103C700049480068059000BF484B5022484905A8B4
:103C80000FF040F9054600BF2E4626B100BF304672
:103C9000FDF737FE00BF00BF00BF0020049004A85E
:103CA0000FF090F8044600BF254625B100BF284616
:103CB000FDF727FE00BF00BF002001900290039097
:103CC00001900290039001208DF8040001A9049A4C
:103CD00069DF044600BF254625B100BF2846FDF731
:103CE00010FE00BF00BF00200190029003904FF42F
:103CF0004060019001A9A120049A69DF044600BF39
:103D0000254625B100BF2846FDF7FBFD00BF00BFDB
:103D1000002001900290039001208DF80400002003
:103D20008DF805008DF8060001A94020049A69DF8E
:103D3000044600BF254625B100BF2846FDF7E1FD3A
:103D400000BF00BF04A80FF053F8044600BF25468B
:103D500025B100BF2846FDF7D4FD00BF00BF1148C4
:103D60000FF03AF8044600BF254625B100BF2846AB
:103D7000FDF7C7FD00BF00BF0B480FF019F904465F
:103D800000BF254625B100BF2846FDF7BAFD00BF9C
:103D900000BF06B070BD0000C4680300F93B02001C
:103DA000748900209D3B0200DB3A030008B50FF048
:103DB000E3FE684600F0F0FB04F0BFFEFFF756FF9D
:103DC00002F0B2FD02F02AFE0EF07AFCFDF7AAFC2A
:103DD00001F030FD0AF08CFFFEF7B4FC9DF8000006
:103DE000FDF7DCFC0BE000BF00235A1E1946044817
:103DF000006811F09DFE0028F6D003F091FEF2E776
:103E0000202800201CB504466A4601A9204603F07C
:103E10004BF90648019950F821000121009A914080
:103E200088430249019A41F822001CBDEC80002021
:103E30001CB504466A4601A9204603F035F9064838
:103E4000019950F821000121009A9140084302494C
:103E5000019A41F822001CBDEC80002010B50246FA
:103E60000949885C00BF4FF0A0442146D1F80435D1
:103E7000012484409C43C1F80845012484401C402F
:103E8000C1F80C4500BF10BD9066030010B5044694
:103E90000249085D012107F0E0FD10BD90660300B6
:103EA00010B504460249085D002107F0D6FD10BD9B
:103EB0009066030010B50146094B585C00BF4FF0F7
:103EC000A044234600BFD3F80445C44004F00104D5
:103ED0000CB1012000E00020024682F0010010BD7C
:103EE000906603007CB500240CE00948055D0020C5
:103EF00000900346012211460190284607F076FC07
:103F000000BF641C052CF0D300F004F87CBD000059
:103F10009066030010B5002403E02046FFF7B6FFCB
:103F2000641C052CF9D310BD10B5002403E0204615
:103F3000FFF7B6FF641C052CF9D310BD02464FF005
:103F4000FF30002106E0054B5B5C934201D108463F
:103F500002E0491C0029F6D000BF704795660300B7
:103F60002DE9F04106460C46002500273046FFF7B4
:103F7000E5FF07463FB91CB1012C03D1162501E02E
:103F8000172500BF00BF35B10448006818B12846A6
:103F9000024909688847BDE8F0810000D027002069
:103FA0002DE9F04106460A2E2DD004DC042E2DD03A
:103FB000072E51D13BE0162E02D0172E4CD102E035
:103FC00000F09CFA49E0002700F0B4FA24490860A8
:103FD0000846006809F090FD0746032009F012FE2C
:103FE000054605F11608A8F8007006202870FDF7B0
:103FF000DFFE28B905F11401032009F093FF01E069
:10400000FDF7E2FD29E00EF06FFC26E013211548D4
:10401000008876DF0446082C08D000BF254625B16D
:1040200000BF2846FDF76DFC00BF00BF15E00D483E
:1040300000884FF6FF7188420DD1FFF757F904460B
:10404000082C08D000BF254625B100BF2846FDF743
:1040500058FC00BF00BF00E000BF00BFBDE8F0811A
:10406000342800201C28002070B50446002505488F
:10407000007800F0010018B1204600F049F805462C
:10408000284670BDC827002070B505460E4600249E
:10409000164805601648066005F0020088B12CB984
:1040A000332201211348FDF7D7FB044614B9FDF76D
:1040B000BDFB04462CB9104A00211048FDF73CFC1A
:1040C000044605F0010008B1FFF70CFF2CB90C4ABB
:1040D00000210C48FDF730FC04462CB90A4A0121A6
:1040E0000A48FDF729FC0446204670BDC827002079
:1040F000D0270020AC68030079450200A8680300BF
:1041000031800200A06803001F180200A4680300A9
:104110002DE9F041044600260025C248007820B170
:104120000020C049087003F06FFF182C77D2DFE839
:1041300004F00C11123E6A98C3D0D6F2F0EFEEED07
:10414000ECEBEAE9E8E7E6E5E4E303F05DFFB64817
:10415000047063E100BF0020FFF7ACFE58B10020FF
:10416000FFF794FE022C02D14FF4E16001E04FF41E
:104170007A60054609E00020FFF792FE022C01D18B
:10418000C82001E04FF4C8700546A74804704FF4FA
:10419000FA7000EB85204FF47A71B0FBF1F7002242
:1041A0003946A2480068FDF7FFFB064636E10020CD
:1041B000FFF780FE58B10020FFF768FE032C02D104
:1041C0004FF4487001E04FF47A60054609E00020A2
:1041D000FFF766FE032C01D1C82001E04FF4C87040
:1041E0000546914804704FF4FA7000EB85204FF4B7
:1041F0007A71B0FBF1F7002239468C480068FDF770
:10420000D3FB06460AE10020FFF754FE60B1002010
:10421000FFF73CFE042C03D14FF47A6002E0FCE08F
:104220004FF47A6005460AE00020FFF739FE042CBF
:1042300002D14FF4C87001E04FF4C87005467A48C7
:1042400004704FF4FA7000EB85204FF47A71B0FBE4
:10425000F1F70022394675480068FDF7A5FB0646D0
:10426000DCE00020FFF726FE50B10020FFF70EFE35
:10427000052C01D1C82001E04FF47A60054609E021
:104280000020FFF70DFE052C01D1C82001E04FF4FE
:10429000C8700546644804704FF4FA7000EB85203E
:1042A0004FF47A71B0FBF1F7002239465F4800689D
:1042B000FDF77AFB0646B1E00020FFF7CFFD5A4834
:1042C00004700022662159480068FDF76DFB064620
:1042D000A4E00020FFF7E4FD534804709EE00120B5
:1042E00050490870FFF7BAFD002266214F48006868
:1042F000FDF75AFB064691E08AE088E07CE073E037
:104300006AE064E039E037E035E033E031E02BE0AB
:104310001CE00EE0FFE7012042490870FFF79EFD18
:1043200000224FF4007141480068FDF73DFB06464E
:1043300074E001203B490870FFF790FD00226621E0
:104340003A480068FDF730FB064667E00120354932
:104350000870FFF783FD00224FF4007133480068B6
:10436000FDF722FB064659E0FFF7DEFD2E480470FC
:1043700054E000BF00BF00BF00BF2D480068FDF73C
:1043800089FB0646C4F11105D5B1CEB9012D10D96E
:10439000A8B2C82148434FF4FA7101EB80204900CC
:1043A00090FBF1F70022394621480068FDF7FCFA3E
:1043B00006460220FFF774FD01201E49087005E043
:1043C0000220FFF763FD00201A49087026E003F081
:1043D0001BFE1548047021E003F016FE0020FFF7D5
:1043E0005FFD1148047019E003F00EFE0120FFF795
:1043F00057FD0D48047011E003F006FE0020FFF7A2
:104400004FFD0120FFF74CFD0748047006E000BF98
:10441000FFF78AFD0448047000E000BF00BF30468B
:10442000BDE8F081C5270020C4270020A068030054
:10443000A4680300CC2700200246002901DA0020EE
:1044400003E013680B441360012070472DE9FC471B
:1044500004460D46641C0127B8460020019001A8BF
:10446000FDF75EFB1C48006828601B4800681A497D
:104470004968411A18488068401C461A04EB07092D
:10448000B1451CD9C6B115480068009014480068B1
:10449000009960F39F2100910F48009A00680E492F
:1044A0000968491C0C4B196019468968084003F1DA
:1044B0000C0141F8202000BF4FF0000804E006483E
:1044C00000682044044908609DF80400FDF72EFBB5
:1044D0004046BDE8FC870000008200206C680300B5
:1044E000A82700200448406803490968884201D190
:1044F000012070470020FCE70082002038B500242E
:1045000000200A4908600A48006812F09BF8044637
:104510005CB911F081FE0546022000232A460121E4
:1045200000900348006812F057F838BD302800208A
:104530002C28002038B500240D48006812F082F8BD
:104540000446012C0FD1022000231A4603210090BB
:104550000748006812F040F8012804D000BF04208A
:10456000FDF7CFF900BF034800686421484338BD18
:104570002C2800203028002010B504462078022185
:10458000FFF7EEFC10BD000002490968491C014A12
:10459000116070473028002070B504460A49022097
:1045A000FFF772FD054600BF2E4626B100BF30461C
:1045B000FDF7A7F900BF00BF022F01D1012000E0E5
:1045C0000020207070BD0000A13F020030B50246FF
:1045D0000B4602210EE08C0042FA04F404F00F00B6
:1045E000092802DD00F1370401E000F13004C1F1D7
:1045F00001055C550C1EA1F10101ECD130BD014655
:104600008879012809D10879012806D1488842F61D
:104610000212904201D1012070470020FCE7000007
:1046200010B590B01C2108A8FAF78DFF002000906B
:10463000019004208DF800004FF41C50ADF80200EA
:10464000CDF82CD09DF8200020F0400040308DF8AF
:1046500020009DF8200020F0080008308DF8200090
:104660009DF8200020F00200801C8DF820003B48BF
:10467000006809903A480068FAF770FF80B2ADF818
:104680002A0037480068FAF769FF80B2ADF82800C1
:104690000020029000BF9DF8080020F00F00401C91
:1046A0008DF808009DF8080020F0F00010308DF81B
:1046B000080000BF00BF9DF8090020F00F00401C5B
:1046C0008DF809009DF8090020F0F00010308DF8F9
:1046D000090000BF9DF80A0020F00600801C8DF83C
:1046E0000A009DF80A0020F008008DF80A009DF8E5
:1046F0000A0020F010008DF80A009DF80A0020F052
:104700000100401C8DF80A00142103A8FAF71BFFD2
:1047100000BF01208DF83E0041F20800ADF83C00DA
:1047200000BF0FA8039002A804900220ADF8140067
:104730000020ADF816000220ADF818000020079008
:1047400008490968B1F8480006490B68383303AADC
:1047500008A9A2DF0446204610B010BDC4280020DE
:10476000C0280020D028002010B590B01C2108A837
:10477000FAF7E9FE00200090019004208DF8000077
:104780004FF41C50ADF80200CDF82CD09DF820005D
:1047900020F0400040308DF820009DF8200020F0EF
:1047A000080008308DF820009DF8200020F002005D
:1047B000801C8DF820003B4800680990394800684B
:1047C000FAF7CCFE80B2ADF82A0036480068FAF756
:1047D000C5FE80B2ADF828000020029000BF9DF811
:1047E000080020F00F00401C8DF808009DF808001C
:1047F00020F0F00010308DF8080000BF00BF9DF8D9
:10480000090020F00F00401C8DF809009DF80900F8
:1048100020F0F00010308DF8090000BF9DF80A006C
:1048200020F00600801C8DF80A009DF80A0020F098
:1048300008008DF80A009DF80A0020F010008DF89D
:104840000A009DF80A0020F00100401C8DF80A00C3
:10485000142103A8FAF777FE00BF01208DF83E006F
:1048600041F20900ADF83C0000BF0FA8039002A878
:1048700004900720ADF814000020ADF816000720C2
:10488000ADF818000020079007490968B1F8480002
:1048900005490B68403303AA08A9A2DF0446204655
:1048A00010B010BDC4280020D028002010B590B052
:1048B0001C2108A8FAF747FE002000900190042070
:1048C0008DF800004FF41C50ADF80200CDF82CD04C
:1048D0009DF8200020F0400040308DF820009DF829
:1048E000200020F0080008308DF820009DF82000FE
:1048F00020F00200801C8DF820003B4800680990E1
:1049000039480068FAF72AFE80B2ADF82A00364826
:104910000068FAF723FE80B2ADF82800002002906C
:1049200000BF9DF8080020F00F00401C8DF8080023
:104930009DF8080020F0F00010308DF8080000BF4E
:1049400000BF9DF8090020F00F00401C8DF8090001
:104950009DF8090020F0F00010308DF8090000BF2C
:104960009DF80A0020F00600801C8DF80A009DF8D2
:104970000A0020F008008DF80A009DF80A0020F0D7
:1049800010008DF80A009DF80A0020F00100401C7C
:104990008DF80A00142103A8FAF7D5FD00BF012005
:1049A0008DF83E0041F20600ADF83C0000BF0FA8B4
:1049B000039002A804900220ADF814000020ADF886
:1049C00016000220ADF8180000200790074909687A
:1049D000B1F8480005490B68283303AA08A9A2DFEB
:1049E0000446204610B010BDB8280020D028002072
:1049F00010B590B01C2108A8FAF7A5FD0020009082
:104A0000019004208DF800004FF41C50ADF8020016
:104A1000CDF82CD09DF8200020F0400040308DF8DB
:104A200020009DF8200020F0080008308DF82000BC
:104A30009DF8200020F00200801C8DF820003B48EB
:104A40000068099039480068FAF788FD80B2ADF82F
:104A50002A0036480068FAF781FD80B2ADF82800D8
:104A60000020029000BF9DF8080020F00F00401CBD
:104A70008DF808009DF8080020F0F00010308DF847
:104A8000080000BF00BF9DF8090020F00F00401C87
:104A90008DF809009DF8090020F0F00010308DF825
:104AA000090000BF9DF80A0020F00600801C8DF868
:104AB0000A009DF80A0020F008008DF80A009DF811
:104AC0000A0020F010008DF80A009DF80A0020F07E
:104AD0000100401C8DF80A00142103A8FAF733FDE9
:104AE00000BF01208DF83E0041F20400ADF83C000B
:104AF00000BF0FA8039002A804900520ADF8140091
:104B00000020ADF816000520ADF818000020079031
:104B100007490968B1F8480005490B68183303AA2A
:104B200008A9A2DF0446204610B010BDB42800201A
:104B3000D028002010B504462088102804D0112861
:104B400008D0502811D10CE0A08809490968A1F8C3
:104B50004A000BE04FF6FF7005490968A1F84A00CA
:104B600004E0204608F058F800E000BF00BF10BD88
:104B7000D028002010B590B01C2108A8FAF7E3FC5B
:104B800000200090019004208DF800004FF41C508C
:104B9000ADF80200CDF82CD09DF8200020F04000A8
:104BA00040308DF820009DF8200020F008000830EB
:104BB0008DF820009DF8200020F00200801C8DF868
:104BC00020003B480068099039480068FAF7C6FCA5
:104BD00080B2ADF82A0036480068FAF7BFFC80B210
:104BE000ADF828000020029000BF9DF8080020F0DA
:104BF0000F00401C8DF808009DF8080020F0F00020
:104C000010308DF8080000BF00BF9DF8090020F0AB
:104C10000F00401C8DF809009DF8090020F0F000FD
:104C200010308DF8090000BF9DF80A0020F0060042
:104C3000801C8DF80A009DF80A0020F008008DF80D
:104C40000A009DF80A0020F010008DF80A009DF877
:104C50000A0020F00100401C8DF80A00142103A86E
:104C6000FAF771FC00BF01208DF83E0041F202000E
:104C7000ADF83C0000BF0FA8039002A804900520E7
:104C8000ADF814000020ADF816000520ADF81800AE
:104C90000020079007490968B1F8480005490B68EA
:104CA000083303AA08A9A2DF0446204610B010BDAD
:104CB000AC280020D028002070B586B00446072517
:104CC0004A480068B0F84A004FF6FF7188427DD02C
:104CD00000200190009002900390049005905CB930
:104CE00043480068401C0190404800680088ADF8C7
:104CF0000800052000904AE0012C0BD13C480068D8
:104D0000801D0190394800680089ADF80800052031
:104D100000903CE0022C0BD1354800680B3001902C
:104D200032480068008AADF80800022000902EE0AA
:104D3000032C0BD12E4800680D3001902B480068E1
:104D4000008BADF808000520009020E0052C0BD169
:104D5000274800681230019024480068008DADF8A3
:104D600008000220009012E0042C0BD120480068BB
:104D7000183001901D480068008CADF8080007202D
:104D8000009004E000BF0820FCF7BBFD00BF0198C5
:104D900058B108F0DDFE0646BDF80000C2B231464B
:104DA00001A808F0F1FE059600BF01208DF80A0069
