:020000040001F9
:10F0000088C50020E9F40100F1F40100B5F4010025
:10F01000F5F40100F7F40100F9F40100000000002C
:10F0200000000000000000000000000015F40100D6
:10F03000FDF401000000000059F4010001F5010099
:10F04000F1FC010003F50100A9050200D102020054
:10F05000E502020003F50100B9F90100FDFD010020
:10F0600003F5010003F5010003F5010003F50100BC
:10F0700003F5010003F5010003F5010003F50100AC
:10F0800003F501007DFD010003F5010003F501001A
:10F0900003F5010003F501001103020003F501006F
:10F0A00003F5010003F5010003F5010003F501007C
:10F0B00041FD010003F50100000000000000000018
:10F0C00003F5010055FD010069FD0100F902020090
:10F0D00003F5010003F5010003F501000000000045
:10F0E0000000000000000000000000000000000020
:10F0F0000000000000000000000000000000000010
:10F1000000000000000000000000000000000000FF
:10F1100000000000000000000000000000000000EF
:10F40000DFF80CD000F08CFA00480047998F02001A
:10F4100088C50020264B19680868B0E8F04F80F3D3
:10F420000988BFF36F8F4FF0000080F31188704799
:10F43000000000000748006880F3088862B661B6E3
:10F44000BFF34F8FBFF36F8F4FF4F07080F31188CD
:10F4500000DF000000F00100EFF30980BFF36F8FC1
:10F46000134B1A681EF0100F08BF20ED108A20E918
:10F47000F04F106008B44FF0200080F31188BFF304
:10F480004F8FBFF36F8F15F093FF4FF0000080F3A5
:10F49000118808BC19680868B0E8F04F1EF0100F1A
:10F4A00008BFB0EC108A80F30988BFF36F8F7047F4
:10F4B0006C260020094B1EF0040F1CBFEFF30980DF
:10F4C0001847EFF308800649064A884201D890425F
:10F4D00002D88D464FF0000018470000F1FB0100F4
:10F4E00088C5002088BD00200648804706480047A0
:10F4F000FEE7FEE7FEE7FEE7FEE7FEE7FEE7FEE7E4
:10F50000FEE7FEE75103020001F4010000487047E6
:10F51000C468030040EA01039B0703D009E008C95F
:10F52000121F08C0042AFAD203E011F8013B00F8C8
:10F53000013B521EF9D27047D2B201E000F8012B14
:10F54000491EFBD270470022F6E710B513460A4663
:10F5500004461946FFF7F0FF204610BD421C10F884
:10F56000011B0029FBD1801A704730B504460020EA
:10F57000034600E05B1C934203D2E05CCD5C401B81
:10F58000F8D030BD034611F8012B00F8012B002AFA
:10F59000F9D11846704730B505460020034600E013
:10F5A0005B1C934205D2EC5CC85C201A01D1002C94
:10F5B000F6D130BD2DE9FE4F81EA030404F000448A
:10F5C00021F0004100944FF0000B23F0004350EA7B
:10F5D00001045ED052EA03045BD0C3F30A54C1F3C2
:10F5E0000A552C44A4F2F3340194A0FB0254C1F355
:10F5F000130141F48011C3F3130343F4801301FB9F
:10F60000024400FB034E840A970A44EA815447EA05
:10F610008357A4FB076802958D0A05FB07854FEA0F
:10F62000932C04FB0C542705029D4FEA065847EA29
:10F630001637B5EB08056EEB070C870E920E47EAFE
:10F64000811742EA8312A7FB0201B6EB0B0164EBC0
:10F6500000042B0D43EA0C335E1844EB1C50DA46D1
:10F660005146E7FB0201C5F313044FEA0B3343EAAB
:10F6700014534FEA0432019C43EA0603A4F10C043C
:10F680000294009CCDE900B400F0FCF803B0BDE8A2
:10F69000F08F00200146F9E72DE9F04D81EA0304DF
:10F6A00004F0004B21F0004514464FF0000A23F00F
:10F6B000004150EA050220D054EA01021DD0C5F3F2
:10F6C0000A570246C5F31303C1F31300C1F30A56E8
:10F6D00040F4801543F48013A7EB0608101BD646B0
:10F6E00008F2FD3873EB050002D308F1010801E0D0
:10F6F00092185B41B8F1000F03DA00200146BDE823
:10F70000F08D00204FF48011064684460EE0171B52
:10F7100073EB050705D3121B63EB050306434CEAA5
:10F72000010C49084FEA300092185B4150EA01078A
:10F73000EDD152EA030012D082EA040083EA050107
:10F74000084305D0101BAB4106D20122002306E07E
:10F7500000224FF0004302E06FF0010253101AEB59
:10F7600006004CEB085110EB0A0041EB0B01BDE821
:10F77000F04D00F078B80EB5C10F80EAE070084493
:10F78000CA07002140F233438DE80E000A460B46BB
:10F7900000F078F803B000BD0EB540F2334102919D
:10F7A0000021CDE900110A460B4600F06BF803B0CA
:10F7B00000BDC1F30A5210B5C1F3130140F2FF338B
:10F7C00041F480119A4201DA002010BD40F2334327
:10F7D0009A42A2F2334203DC524200F034F810BDE8
:10F7E000904010BD2DE9F05F0546002092469B46F3
:10F7F00088460646814640241BE028464146474647
:10F80000224600F020F853465A46C01A914110D3C0
:10F8100011461846224600F095F82D1A67EB0108AC
:10F820004F4622460120002100F08CF817EB00091A
:10F830004E41201EA4F10104DFDC484631462A4631
:10F840004346BDE8F09F202A04DB203A21FA02F06B
:10F850000021704721FA02F3D040C2F1200291400A
:10F8600008431946704710B5141E73F1000408DAF6
:10F87000401C41F1000192185B411A4301D120F074
:10F88000010010BD2DE9F04D92469B4611B1B1FA31
:10F8900081F202E0B0FA80F22032904600F052F895
:10F8A00004460F4640EA0A0041EA0B0153465A4615
:10F8B000084313D0114653EA010019D0C8F14002A1
:10F8C0005046FFF7C0FF05460E4650465946424691
:10F8D00000F038F8084305D0012004E020463946FE
:10F8E000BDE8F08D0020054346EAE0762C4337431F
:10F8F0000A986305E40AA0EB08000022FD0A44EA26
:10F9000047540A3002D500200146E9E701051019E5
:10F910006941DDE9084500196941BDE8F04DA2E7FC
:10F92000064C074D06E0E06840F0010394E807004C
:10F9300098471034AC42F6D3FFF766FDF86B03002E
:10F94000186C0300202A04DB203A00FA02F10020A0
:10F9500070479140C2F1200320FA03F3194390400D
:10F96000704770B58C1810F8015B15F0070301D1D2
:10F9700010F8013B2A1106D110F8012B03E010F812
:10F98000016B01F8016B5B1EF9D12B0705D4002335
:10F99000521E0DD401F8013BFAE710F8013BCB1AD7
:10F9A000921C03E013F8015B01F8015B521EF9D5CC
:10F9B000A142D8D3002070BD2DE9F04F89B04FF09F
:10F9C0000008002008904FF4807007900126002462
:10F9D00013E007980CF034F848B100BF8148006884
:10F9E000304020B107980CF01DF848EA0608760070
:10F9F0000798001D80B20790641C082CE9D34FF4CF
:10FA0000BE700CF01DF850B14FF4BE700CF00AF847
:10FA100048F0004808AA012100200BF0E9FF08F097
:10FA2000FF0000B3012600241BE006EA0800B0B185
:10FA300000BF6D4850F82400C0F30420074600BF03
:10FA4000694850F82400C0F301408146204605F083
:10FA50004BFC054615B149463846A84700BF76001D
:10FA6000641C082CE1D308F0004000287ED0002060
:10FA700006900590002505E04FF0FF3004A941F8FD
:10FA800025006D1C002DF7D000BF0020069000243B
:10FA90006FE05648005D0390039820F0C00753487C
:10FAA0000057401C002863D004A938460AF036FDF0
:10FAB00000285DD003984FEA901A384605F05CFCA8
:10FAC000814605F011FC0290029810B9BAF1030FBB
:10FAD0004BD1BAF1030F11D1394605A80246CB0824
:10FAE00001F0070112F803C04FF0010E0EFA01FEFB
:10FAF0004CEA0E0C02F803C000BF00BF00BF00BFFD
:10FB00004FF0A041084600F5E06151F82710C1F31D
:10FB1000014900BF08A938460AF000FD8346BBF141
:10FB2000000F02D0B9F1020F05D0BBF1000F1BD1BD
:10FB3000B9F1030F18D1BAF1030F0FD1B9F1020FC8
:10FB400001D1032000E002200190384601990BF01A
:10FB50007AFE0698401CC0B2069000BF029818B109
:10FB600051463846029A904700BF00E036E000BF99
:10FB7000641C042C8DD3069858B3012703AA0121D5
:10FB800000200BF035FF00250AE003A850F82500FF
:10FB900008A951F82510884201D0002702E06D1C09
:10FBA000002DF2D000BF17B10020069010E0002514
:10FBB0000CE003A850F8250008A941F8250005A885
:10FBC00050F8250004A941F825006D1C002DF0D047
:10FBD00000BF069800287FF458AF00BF09B0BDE809
:10FBE000F08F00000463004010650040E4610020D5
:10FBF000044609A10120A2690CF014FA00BF0CF020
:10FC0000EBF800BF00BF0CF0EDF80028FBD100BFFF
:10FC100000BF204600F012F8484152444641554C7E
:10FC2000543A4552524F523A486172646661756C5B
:10FC3000742050433A25780D0A00000000BF00BF31
:10FC400000BF00BF00BFBFF34F8F00BF00BF00BFAA
:10FC50000948006800F4E06008490843001D0649AF
:10FC6000086000BF00BF00BFBFF34F8F00BF00BFE1
:10FC700000BF00BF00BFFDE70CED00E00000FA058B
:10FC800000F01F0201219140024A430942F823106B
:10FC90007047000080E100E000F01F020121914068
:10FCA0004209920002F1E022C2F800117047000000
:10FCB00000BF00BF00BFBFF34F8F00BF00BF00BF3A
:10FCC0000948006800F4E06008490843001D06493F
:10FCD000086000BF00BF00BFBFF34F8F00BF00BF71
:10FCE00000BF00BF00BFFDE70CED00E00000FA051B
:10FCF00010B54FF480700AF093FC60B14FF480703F
:10FD00000AF097FC01200AF09DFC01200B49487085
:10FD1000002005F0B1FC4FF482700AF081FC58B16C
:10FD20004FF482700AF085FC02200AF08BFC01205F
:10FD30000249887005F0A0FC10BD00008061002021
:10FD400010B50249024807F0FFFF10BDB062002065
:10FD500000C0014010B50249024807F0F5FF10BD90
:10FD6000B86200200010024010B50249024807F0B6
:10FD7000EBFF10BDC0620020002002402DE9F041E1
:10FD80004FF4A0711A480CF0DBFA002400BF00BF4A
:10FD9000EFF311800546202000F032FE00BF2E4612
:10FDA00000BF1448006807464FF4807110480CF0FB
:10FDB000C7FA16F07BF9381A20F07F45012D04D9D7
:10FDC00016F064F9022800D0012502E016F07AF955
:10FDD0000443281EA5F10105F8D124B14FF080504D
:10FDE0000549086040BF304600F00AFEBDE8F081DA
:10FDF000001001400415014004ED00E0FEB54FF491
:10FE000082700CF0C1FA002837D04FF482700CF0E9
:10FE1000C5FA6C4890F82E0018B16A4890F82F0087
:10FE200058B300208DF8000066484068019065488E
:10FE30000189ADF80810C06818B90020614908743C
:10FE400012E06048008B5F4948830846C0684860FC
:10FE50000846008B08810020C860084690F82E00F4
:10FE600010B900200CF0B2FA56480168684688477D
:10FE70000020544981F82F0000BF524890F82E000E
:10FE8000002852D04FF480700CF07EFA00284CD03D
:10FE90004FF480700CF082FA4A48408B494991F83F
:10FEA0002D10884216DD4748408B464991F82D10A9
:10FEB000401A444948830A4612890B465B8BD21A82
:10FEC0000B465B6803EB42000A4692F82D100CF0DB
:10FED00047FA23E03B48408B3A4991F82D1088427D
:10FEE0000FD13848C06860B10120364981F82F0031
:10FEF000002048830A4692F82D10D0680CF030FAA2
:10FF00000CE03048408B2F4991F82D10884205D1E4
:10FF100001202C4981F82F00002048834FF4827083
:10FF20000CF03CFA04200CF051FA4FF488700CF0FD
:10FF30002BFA70B14FF488700CF030FA0020214990
:10FF4000087402208DF8000008460168684688475A
:10FF500000BF4FF48A700CF017FA38B14FF48A7072
:10FF60000CF01CFA0020174908742AE0154845696E
:10FF700024E0B5FA85F64FF00040F0408543B0002C
:10FF800000F58C7420460CF0FFF9B8B120460CF057
:10FF900005FA01208DF80000A4F58C70C0F3C700AD
:10FFA0008DF80400A4F58C70012121EA90018DF8F0
:10FFB0000510044801686846884700BF002DD8D165
:10FFC00000BFFEBD5C6200202DE9FC4104460D46E9
:10FFD000164600BF0C48007808B900F0F7FA00BFD9
:10FFE000002001900090684601F0C4FD3246294689
:10FFF000204600F00BF8074600BF9DF8000001F016
:020000040002F8
:10000000BFFD3846BDE8FC81748600202DE9F0472D
:10001000074688461646C24607EB47011B4800EBD9
:10002000C109D9F8140020B1012811D0022826D125
:100030001EE0484600F000FB0546B54201D2002410
:1000400005E0344632465146484600F04AFC18E086
:10005000484600F0F1FA0546B54201D2284600E0D4
:100060003046044622465146484600F03AFC08E035
:1000700032465146484600F0FBFB044601E00024AE
:1000800000BF00BF2046BDE8F08700008C8600203E
:1000900070B505460C462046FFF760FA0646324624
:1000A00021462846FFF790FF70BD0FB438B50446CF
:1000B00006A800906A462046059900F003F838BC6F
:1000C0005DF814FB2DE9F04F99B082460D461446B9
:1000D00003A814904020159000201690CDF860A041
:1000E000179000BF2E786D1C06B9DDE0252E79D162
:1000F00000274FF0010900BF2E78232E12D02B2E9F
:100100000CD02D2E02D0302E10D103E047F0010785
:100110006D1C0EE047F002076D1C0AE047F0040773
:100120006D1C06E047F008076D1C02E04FF0000967
:1001300000BF00BFB9F1000FDED14FF0000800BFD3
:100140002E78302E01DB392E00DD07E06D1CA6F184
:10015000300008EB880100EB4108F1E700BF002008
:1001600013902E782E2E12D16D1C00BF2E78302EBB
:1001700001DB392E00DD09E06D1CA6F1300013997A
:1001800001EB810100EB41001390EFE700BF2E78F7
:1001900000BF6C2E01D0682E02D12E786D1C00E0BD
:1001A00000E0F6E700BF702E5DD008DC252E6AD097
:1001B000582E35D0632E09D0642E69D113E0732EEA
:1001C0003CD0752E1DD0782E62D128E02168081D04
:1001D0002060D1F8009009F0FF0B594614A800F0F8
:1001E00025FB56E058E02168081D2060D1F80090FA
:1001F000CDE900870A22494614A8139B00F02AFA89
:1002000047E02168081D2060D1F80090CDE9008703
:100210000A22494614A8139B00F092FA39E000BF65
:100220002168081D2060D1F80090CDE900871022D8
:10023000494614A8139B00F083FA2AE02168081DA0
:100240002060D1F800B000BF9BF800600BF1010BFB
:1002500006B906E0314614A800F0E8FA179800281D
:10026000F2DA00BF15E02168081D2060D1F8009087
:10027000002008210B461022CDE90010494614A8A1
:1002800000F05EFA05E0252114A800F0CFFA00E0A6
:1002900000BF00BF6D1C03E0314614A800F0C6FA91
:1002A00017980028BFF61EAF00BF179800280ADD78
:1002B000169820B103A95046169AFFF785FEDDE98E
:1002C000161008441790179819B0BDE8F08F000079
:1002D00010B50249024807F09BFD10BD0C620020DA
:1002E0000030004010B503494FF0402007F090FD6A
:1002F00010BD00003462002010B5034C21460348B5
:1003000007F074FD10BD00008C6200200030024038
:1003100070B50A48006868B108480068804704461C
:1003200000BF254625B100BF284601F014FB00BFE1
:1003300000BF01E007F010FC70BD0000B4270020F2
:1003400001480249086070470090D003302A00201D
:1003500010B505F083FC10B186488749486705F061
:1003600095FC28B185480068C0F342308449086094
:1003700005F0B6FC28B18348006820F08070814900
:10038000086005F0C5FC48B100207F4908604FF0C7
:100390008041C1F810017A49091F086005F0E2FCAC
:1003A00018B1032076496431086005F0F3FC68B1A8
:1003B00005207649086001207449783108600020E2
:1003C0007249083108603F20091F086005F0FAFCF7
:1003D000002855D06E4800686E4908606C48001DC2
:1003E0000068091D08606A4808300068091D086037
:1003F00067480C300068091D0860654810300068C7
:10040000091D0860624814300068091D08606048D2
:10041000183000685F49203108605D481C30006872
:10042000091D08605A4820300068091D08605848B6
:1004300024300068091D0860554828300068091DEF
:10044000086053482C300068091D0860504830305F
:1004500000685049403108604D4834300068091D3B
:1004600008604B4838300068091D086048483C3037
:100470000068091D0860464840300068091D086092
:1004800005F0C2FB30B13D481430006800F04F0069
:10049000414908603B487438006840F470003949AD
:1004A0007439086000BF00BF00BFBFF34F8F00BFAB
:1004B00000BF00BF00BF00BF00BFBFF36F8F00BF12
:1004C00000BF00BF3548006800F00100F0B1012016
:1004D0003349086000BF334800680028FBD02F482C
:1004E000006820F001004FF01021C1F80C0200BF9D
:1004F0002C4800680028FBD000202949086000BF74
:10050000284800680028FBD0FFF7D2FB23480C38AE
:10051000006800F0004028B920480838006800F062
:10052000004018B301201E49086000BF1D48006844
:100530000028FBD0152019490C39086000BF194864
:1005400000680028FBD0152114480838016000BF5E
:10055000144800680028FBD000201149086000BF43
:10056000104800680028FBD0FFF7A2FBFFF7E8FE69
:1005700010BD00000DF0ADBA00C0074044020010ED
:100580003C050040FCED00E00C010040105600402E
:100590000404001020C50040E40E00400C120010BE
:1005A00004E5014000E4014010B50648007F20B199
:1005B0000449054814F013F803E00249024813F017
:1005C0006DFF10BDEC6100200020004010B5114C03
:1005D00002202061606110A0A0611249E161402108
:1005E00021620021A1626162E1620BA0A0640E4958
:1005F000E164102121650021A1656165E1650BA120
:10060000E01DFEF7BFFF0AA12046FEF7BBFF20203A
:10061000A07110BD748600205465726D696E616CA6
:1006200000000000248600206486002052545400FC
:10063000534547474552000010B501460A69CB684B
:100640009A4204D88C68641EE41AA01801E0D41AF7
:10065000601E10BD2DE9FC5F06460F469246984687
:10066000DDE90C45002F01DA784200E03846834688
:100670004FF0010903E09BFBFAFB09F10109D345A7
:10068000F9DAC84500D9C14634B1002F03DB05F0C3
:100690000400042800D1641E05F0020010B1B8F176
:1006A000000F11D005F0010070B96CB108E0641EB4
:1006B0002021304600F0BAF8F068002800DA02E0A5
:1006C0000CB1A145F3D300BFF068002836DB002F42
:1006D00005DA7F422D21304600F0A8F807E005F04A
:1006E0000400042803D12B21304600F09FF8F06865
:1006F000002823DB05F00200022814D105F00100D8
:1007000088B9B8F1000F0ED16CB108E0641E302139
:10071000304600F08BF8F068002800DA02E00CB1F7
:10072000A145F3D300BFF068002807DB43465246DB
:1007300039463046CDE9004500F002F8BDE8FC9F9F
:100740002DE9FC5F8046894615461E460C9CCDF877
:1007500004900127BB4605E00198B0FBF5F001903D
:100760000BF1010B0198A842F6D25E4500D9B346C1
:100770000D9800F00100D0B9CCB10D9800F0020046
:10078000022803D116B93020009001E0202000900B
:1007900009E0641E4046009900F048F8D8F80C00C3
:1007A000002800DA02E00CB1A345F2D300BFD8F86C
:1007B0000C00002835DB09E0012E01D9761E04E08B
:1007C000B9FBF7FAAA4500D201E06F43F4E700BF96
:1007D00000BFB9FBF7FA0AFB1799134810F80A1083
:1007E000404600F023F8D8F80C00002800DA03E0B7
:1007F000B7FBF5F7002FECD100BF0D9800F001001A
:1008000078B174B109E0641E2021404600F00EF872
:10081000D8F80C00002800DA02E00CB1A345F2D3AE
:1008200000BFBDE8FC9F00002467030070B50446CC
:100830000E46A568681C6168814206D3206846554B
:10084000681CA060E068401CE060D4E901108842A8
:100850000DD1A26821682069FFF7B6FBA168884224
:1008600003D04FF0FF30E06001E00020A06070BDD9
:100870002DE9F0470446894617464FF0000AE5681F
:1008800000BFD4F81080A84503D9A8EB0500461E88
:1008900004E0A5EB0800401CA1680E1AA068401BEC
:1008A000B04201D9304601E0A068401B0646BE4276
:1008B00001D2304600E038460646616848193246A3
:1008C0004946FEF727FEB244B144BF1B3544A06839
:1008D000A84200D10025E560002FD2D15046BDE8E6
:1008E000F0872DE9F047044689461546E668A0687A
:1008F000871BAF4208D9616888192A464946FEF726
:1009000009FE7019E06010E0B84661688819424637
:100910004946FEF7FFFDA5EB070809EB0701424634
:100920006068FEF7F7FDC4F80C80BDE8F0870000B2
:100930000FB41CB50246002007AC00290BD0491E9D
:10094000CDE90021054B6A462146069800F064F87F
:10095000009A002111701CBC5DF814FB7B0E020094
:100960000FB4084B10B504A902AA039800F054F87C
:10097000044602A9002000F08BFA204610BC5DF866
:1009800014FB0000910E020002E008C8121F08C10B
:10099000002AFAD170477047002001E001C1121F00
:1009A000002AFBD1704700000146202908DA012007
:1009B00088400A4A104008B1012070470020FCE737
:1009C000402909DAA1F12000012202FA00F008B161
:1009D0000120F2E70020F0E70120EEE7FC06FFBD72
:1009E00000BFEFF31081084672B6704700BFEFF307
:1009F0001081084672B67047C1B281F31188704702
:100A0000C1B281F311887047C1B281F31188704778
:100A1000C1B281F3118870472DE9FF4F8DB00F46A9
:100A20000546002606E025280BD0DDE90F12904789
:100A30006D1C761C28780028F5D111B03046BDE831
:100A4000F08F0024A246A1460122EC4900E00443B5
:100A500015F8013F203B02FA03F00842F7D128784D
:100A60002A2810D06FF02F022878A0F13001092930
:100A700014D80AEB8A0102EB410144F0020400EBB6
:100A8000010A6D1CF0E701CF5FEA000A03D544F4C8
:100A90000054CAF1000A44F002046D1C28782E2884
:100AA00017D115F8010F44F004042A280ED06FF076
:100AB0002F022878A0F1300109290AD809EB890111
:100AC00002EB410100EB01096D1CF2E757F8049BB2
:100AD0006D1C28786C280FD006DC4C2817D06828AD
:100AE0000DD06A2814D104E0742810D07A280FD1D0
:100AF0000DE044F400140AE044F4801401E044F4EE
:100B000040146978814202D104F580146D1C6D1C7B
:100B10002A786E2A1FD00CDC632A31D004DC002A2C
:100B20008BD0582A11D1A3E0642A68D0692A0CD14D
:100B300065E0732A2ED004DC6F2A73D0702A04D1AA
:100B40009BE0752A6FD0782A6ED01046DDE90F122F
:100B50009047761C50E1C4F30250022806D00328C7
:100B600009D0042801CF09D0066045E101CFF11773
:100B7000C0E9006140E101CF06803DE106703BE144
:100B800017F8040B8DF8000000208DF80100EB46EB
:100B9000012003E057F804BB4FF0FF3061074FF02E
:100BA000000102D40DE008F10101884649450FDA41
:100BB0008045F8DB1BF808100029F4D108E008F1A3
:100BC000010188468142FADB1BF808100029F6D1A2
:100BD000DDE90F23AAEB08008146214600F036F933
:100BE000304400EB080604E0DDE90F121BF8010BAE
:100BF0009047B8F10108F7D221464846F7E00A21AC
:100C0000C4F302534FF0000B0891022B04D001CF24
:100C1000C117032B09D00AE0FF1D27F00707F7E8EB
:100C2000020108E032E01FE020E000B2C117042B0F
:100C300001D140B2C117031E71F1000307DA4FF072
:100C4000000CD0EB0C006CEB01012D2302E023051E
:100C500004D52B238DF82430012303E0E30701D0D2
:100C60002023F7E7984658E00A2110E010210EE013
:100C700010204FF0000B08900CE010214FF0000BFB
:100C800044F004044FF00809089103E008214FF0F4
:100C9000000B0891C4F30253022B04D001CF0021B2
:100CA000032B06D006E0FF1D27F00707F7E8020137
:100CB00003E080B2042B00D1C0B24FF0000823073C
:100CC0002BD5702A07D0DDF820C08CF0100C5CEA20
:100CD0000B0C05D00EE040238DF82430012308E0F2
:100CE00050EA010306D030238DF824308DF82520FA
:100CF00002239846DDF820C08CF0080C5CEA0B0C4F
:100D00000BD150EA010301D1630706D530238DF8DA
:100D100024304FF00108A9F10109582A04D038A263
:100D20000B9208AA0A920BE03AA2F9E75B46089AEE
:100D3000FEF758FD0B9B9B5C0A9A521E0A92137099
:100D400050EA0102F2D10A98ADEB000000F1200B4D
:100D5000600702D524F4803401E04FF00109D94541
:100D600002DDA9EB0B0000E0002000EB0B01414489
:100D70000890AAEB010AE00306D4DDE90F2321461F
:100D8000504600F063F806444FF0000908E009A956
:100D900011F80900DDE90F12904709F10109761CED
:100DA000C145F4DBE0030CD5DDE90F2321465046B5
:100DB00000F04CF8064404E0DDE90F1230209047C3
:100DC000761C0899481E08900029F5DC08E00A986E
:100DD0000A990078491C0A91DDE90F129047761CA8
:100DE000BBF10001ABF1010BF1DC21465046DDE91E
:100DF0000F2300F019F806446D1C1BE609280100BA
:100E00003031323334353637383961626364656680
:100E10000000000030313233343536373839414242
:100E200043444546000000002DE9F04104460025FA
:100E30001E461746880404D405E039462020B047F2
:100E40006D1C641EF9D52846BDE8F0812DE9F041FE
:100E5000044600251E469046C80301D5302700E011
:100E60002027880404D505E041463846B0476D1C6C
:100E7000641EF9D52846BDE8F0814A68002A06D0EC
:100E80000A68531C0B6010704868401E4860704729
:100E90000A68531C0B6010707047000010B509F011
:100EA00093FF08B909F060FF044A05491C2009F0C6
:100EB000E3FE01211C2009F089FE10BDED0E0200A9
:100EC000D867030010B509F07FFF08B909F04CFF9F
:100ED000044A05491B2009F0CFFE01211B2009F01F
:100EE00075FE10BDEF0E0200DC670300704770B5A1
:100EF00005460E461B2D15D1022E13D10CF02CFEEB
:100F000001280FD00CF002FE044694F83D000A3090
:100F100084F83D0094F83D00642802DA322184F818
:100F20003D1000BF00F001F870BD08B50020009032
:100F3000012269461E2000F012F808B1042008BD05
:100F40000020FCE708B5002000900122694622201D
:100F500000F005F808B1042008BD0020FCE7F0B55A
:100F600087B004460F461546782C02DD022007B0F4
:100F7000F0BD102D01DD0320F9E7102200210DF155
:100F80000900FEF7D9FA8DF808403B46012202A974
:100F90001E20009506F0F8FA06460EB90020E6E796
:100FA0000420E4E7F0B585B004460F46154617B9AE
:100FB000012005B0F0BD782C01DD0220F9E7102DED
:100FC00001DD0320F5E78DF800402A4639460DF192
:100FD0000100FEF79FFA681CC2B269461E2006F0A7
:100FE000F5FA06460EB90020E3E70420E1E708B56C
:100FF0000020009000909DF80000009000BF00BF0E
:10100000012269462A20FFF7CDFF08B1012008BD63
:1010100000200090009000BF00BF012269465B20C5
:10102000FFF7C0FF08B10120F1E7002000909DF814
:10103000000000909DF8000040F00100009000BF0B
:1010400000BF012269460E20FFF7ACFF08B1012066
:10105000DDE7002000909DF8000040F001000090C6
:101060009DF8000000909DF8000040F00400009002
:101070009DF8000040F0200000909DF800000090D6
:1010800000BF00BF012269462A20FFF78BFF08B18D
:101090000120BCE70020BAE708B5002000900090CE
:1010A0009DF80000009000BF00BF012269462A2081
:1010B000FFF778FF08B1012008BD002000909DF8DF
:1010C000000040F0020000909DF8000040F0080091
:1010D00000909DF8000040F0200000909DF8000076
:1010E00040F0400000909DF8000040F0800000902B
:1010F00000BF00BF012269462120FFF753FF08B15E
:101100000120D9E7002000909DF8000040F00A007F
:10111000009000BF00BF012269462320FFF742FF75
:1011200008B10120C8E7002000909DF8000040F0C1
:101130000A00009000BF00BF012269462420FFF78B
:1011400031FF08B10120B7E7002000909DF80000B2
:1011500040F00A00009000BF00BF01226946252030
:10116000FFF720FF08B10120A6E7002000909DF8BE
:10117000000040F00C00009000BF00BF0122694653
:101180002620FFF70FFF08B1012095E7002000900F
:101190009DF8000040F01400009000BF00BF012245
:1011A00069462720FFF7FEFE08B1012084E70020F2
:1011B00000909DF8000040F01E00009000BF00BFAE
:1011C000012269462820FFF7EDFE08B1012073E7F0
:1011D000002000909DF8000040F00800009000BF43
:1011E00000BF012269462D20FFF7DCFE08B1012077
:1011F00062E7002000909DF80000009000BF00BF53
:10120000012269462E20FFF7CDFE08B1012053E7E9
:10121000002000909DF8000040F0010000909DF833
:10122000000000909DF8000040F0040000909DF840
:10123000000040F0200000909DF80000009000BFEA
:1012400000BF012269462A20FFF7ACFE08B1012049
:1012500032E700BF00BFFFF735FEFFF773FE002047
:101260002AE708B50020009000909DF8000000904B
:1012700000BF00BF012269462A20FFF793FE08B194
:10128000012008BD002000909DF8000000909DF80E
:10129000000040F0020000909DF8000040F00400C3
:1012A00000909DF8000040F0080000909DF80000BC
:1012B00040F01000009000BF00BF012269461D20D1
:1012C000FFF770FE08B10120DBE7002000909DF8D9
:1012D000000040F0060000909DF8000040F0800003
:1012E000009000BF00BF012269461F20FFF75AFE91
:1012F00008B10120C5E7002000909DF8000040F0F3
:101300000300009000BF00BF012269462020FFF7C4
:1013100049FE08B10120B4E7002000909DF80000CC
:1013200040F020000090012269462D20FFF73AFE90
:1013300008B10120A5E700BF00BF002000909DF884
:10134000000040F020000090012269462E20FFF7A7
:1013500029FE08B1012094E700BF00BF00200090E3
:10136000009000BF00BF012269465B20FFF71AFE14
:1013700008B1012085E7002000909DF80000009052
:101380009DF8000040F00100009000BF00BF012266
:1013900069460E20FFF706FE08B1012071E7002024
:1013A00000909DF8000040F0010000909DF80000C2
:1013B00000909DF8000040F0040000909DF80000AF
:1013C00040F0200000909DF80000009000BF00BF9A
:1013D000012269462A20FFF7E5FD08B1012050E708
:1013E000FFF75CFDFFF7A1FD00204AE710B51A20CA
:1013F0000AF0BFFA012009F03EF91A200AF076FA45
:10140000012009F038F9FFF7F2FD10BD10B51A20E0
:101410000AF0AFFA012009F02EF91A200AF066FA54
:10142000012009F028F9FFF737FE10BD10B51A208A
:101430000AF09FFA012009F01EF91A200AF056FA64
:10144000012009F018F9FFF70CFF10BD30B5034675
:1014500000220024002000BF05E033F8125025448C
:101460002CB2551CEAB28A42F7DB94FBF1F528B2A4
:1014700030BDF0B585B00546002600240027022DBA
:1014800002DB002005B0F0BD0A216846FEF75BF8DC
:1014900000240BE0684600EB4401284609F0ACFD4F
:1014A00006460EB10020EDE7601CC4B20A2CF1DB49
:1014B0000A216846FFF7CAFF07463846E2E770B5DB
:1014C00005460C4605B10CB9002070BD28784008CF
:1014D0002178B0EB510F01D00020F6E70622611C05
:1014E000681CFEF742F808B90120EEE70020ECE79F
:1014F0000246002104E0505C08B101207047491CFD
:101500000629F8D30020F9E710B504466CB1084865
:101510000068A04209D806484068A04205D320468A
:1015200006F06EFD08B1012010BD0020FCE70000B0
:10153000342A00202DE9FC41044688461646002541
:1015400037880020308094F82D0058B13A46314653
:10155000404602F085F9054600BF15B12846BDE8B2
:10156000FC8100BFA07850B13A463146404600F0B9
:101570002BFB054600BF0DB12846F0E700BFE07821
:1015800060B1E17848B23B463246414605F028F862
:10159000054600BF0DB12846E1E700BF606868B1AD
:1015A000616891F900003B463246414612F052FF15
:1015B000054600BF0DB12846D1E700BF20890028AD
:1015C0000EDD43460622022104F10800CDE9006742
:1015D00013F0BEFA054600BF0DB12846BFE700BFB5
:1015E000208A00280EDD43460722032104F1100063
:1015F000CDE9006713F0ACFA054600BF0DB12846EF
:10160000ADE700BF208B00280EDD434615221421D4
:1016100004F11800CDE9006713F09AFA054600BFFF
:101620000DB128469BE700BF206A58B13B463246C1
:101630004146206A04F0D4F8054600BF0DB12846A3
:101640008DE700BF606A58B13B4632464146606A4A
:1016500007F04EFD054600BF0DB128467FE700BFED
:1016600094F82C0000280BDD3B46324641462046CC
:1016700010F096FC054600BF0DB128466FE700BF8D
:10168000207858B13B4632464146204607F06BFD74
:10169000054600BF0DB1284661E700BF28465EE75A
:1016A00070B504461448FFF723FF0546012C06D009
:1016B000022C0BD0032C10D0042C1AD113E00F48AD
:1016C000407810B10DB1012070BD00BF0B4880788B
:1016D00010B10DB10220F7E700BF0848C07808B18B
:1016E0000320F1E700BF0548007908B10420EBE7CB
:1016F00000BF0020E8E70000DE2600201C5B002081
:101700000146481C052290FBF2F302FB1300C0B215
:1017100070470146C87800F0040008B907207047F8
:101720000020FCE710B501220221002002F0FEFC9F
:10173000044600BF1CB1072C01D0204610BD00BFDD
:1017400007220221012002F0F1FC044600BF1CB177
:10175000072C01D02046F1E700BF0A2200210846ED
:1017600002F0E4FC044600BF1CB1072C01D0204667
:10177000E4E700BF0020E1E730B5A7B03C2118A89E
:10178000FDF7E1FE02208DF8600000208DF8620078
:1017900005208DF863003C2109A8FDF7D4FE012047
:1017A000ADF8340010490E91202101A8FDF7CBFEC1
:1017B00001208DF807004FF496700590B420069034
:1017C00000200A4B01AA09A9009018A801F064FCA6
:1017D000044600BF254625B100BF284600F0BBF8EF
:1017E00000BF00BF27B030BD4428002031C5020033
:1017F00070B50446012C02D104F038F90DE0032045
:1018000001F074FD054600BF2E4626B100BF3046EC
:1018100000F0A1F800BF00BF00BF70BD70B58CB074
:1018200004460D461646002005E0C0F10F01615C3C
:101830000DF80010401C1028F7D30D2104A8FDF767
:1018400082FE002005E02A5CC0F10F0304A9CA54FF
:10185000401C0328F7D3684643DF002005E0C0F1B1
:101860000F0208A9895C3154401C0328F7D30CB03F
:1018700070BD10B50446022002F0E4FA10BD00006D
:1018800010B5002407E00749096811F83400012168
:1018900009F09CF9641C044800788442F3D30020CA
:1018A00010BD000070270020742700202DE9F843A8
:1018B00006460C461746052F02D20720BDE8F883DE
:1018C00009F082FA38B909F04FFA054600BF0DB1A8
:1018D0002846F3E700BF164806601648047016480D
:1018E00007600020154908601549086015E006EBFF
:1018F000C40814480068009098F802008DF80100B0
:1019000098F80000104A694609F0B6F9054600BF8C
:101910000DB12846D2E700BF00BF201EA4F101018F
:10192000CCB2E4D1094A0021094800F02FF8C5E7FC
:101930007027002074270020782700207C270020B3
:1019400080270020506603007D710200F55A0200D6
:101950004C66030070473EB504460020009001909D
:10196000029002946A46002144F20100FFF7F2FF60
:101970003EBD70B5054628460EF0DEFD0446207BD0
:1019800010B1A1682068884770BD00002DE9F843B8
:101990000546884616462C684FF0000906B115B971
:1019A0000720BDE8F883207B08B10820F9E76068CC
:1019B000D0B9002020606060A060E060B8F1000F46
:1019C00001D1002700E00127A660094823463A46D6
:1019D0004FF47A71009007A014F000FD6060606819
:1019E00020B94FF00E0901E00820DAE74846D8E7B1
:1019F0007319020020000000002070472DE9FC4709
:101A000005460E4617462C46D4F80480B8F1000F60
:101A100002D10820BDE8FC87207B002806D0404684
:101A200014F05AFD002801D00020F3E7276000BF22
:101A3000EFF30580A8B30020019001AB32460921E5
:101A40000090404614F012FD012801D00420E1E787
:101A500014F032FB8146002001AB4A46062100907B
:101A6000404614F003FD012801D00420D2E701987C
:101A7000B0B100BF4FF080501A49086040BF00BFAE
:101A800000BF00BFBFF34F8F00BF00BF00BF00BF4C
:101A900000BF00BFBFF36F8F00BF00BF00BF00BF1C
:101AA0001BE0FFE70220002332460421009040465D
:101AB00014F0DCFC012801D00420ABE714F0F6FAA6
:101AC0008146022000234A4601210090404614F03E
:101AD000CDFC012801D004209CE7012020730020C8
:101AE00098E7000004ED00E07CB5044625466E68EA
:101AF000002E01D108207CBD00BFEFF3058030B37C
:101B00000020019001AB024608210090304614F0FD
:101B1000ADFC012801D00420EDE70198B0B100BF71
:101B20004FF080501249086040BF00BF00BF00BFA7
:101B3000BFF34F8F00BF00BF00BF00BF00BF00BF9B
:101B4000BFF36F8F00BF00BF00BF00BF0BE00220DC
:101B500000231A4603210090304614F087FC012828
:101B600001D00420C7E70020287300BFC3E70000AE
:101B700004ED00E010B5044620460FF067FC10BDF0
:101B800070B5044625460E488068B0B1ADB9FEF781
:101B90002DFF06460A4800680A4908600848406860
:101BA0004FF0E021C1F804010020054988601EB90A
:101BB00000BF62B600BF00BF00BF00BF70BD000025
:101BC000E862002000E100E0F8B505460C46174643
:101BD0002088001DB84201D90C20F8BD684679DF85
:101BE000064600BF0EB13046F7E700BF032021884C
:101BF00068542088401C208019202188685420883F
:101C0000401C208020884119BDF8000012F073FDAF
:101C10002188084420800020DFE7000070B58AB0EA
:101C200004460025142105A8FDF78DFC1421684603
:101C3000FDF789FC66883246211D05A8FDF76AFC80
:101C40000A488278C11C6846FDF764FC1322694685
:101C500005A8FDF7A0FC30B9012504488278C11C15
:101C60000348FDF757FC28460AB070BDC088002025
:101C7000AA880020704700002DE9F0410026204886
:101C8000C4694FF0050800F029FB646831E00027C3
:101C900000254FF480511B48FDF755FC2068017862
:101CA0004FF4805217480FF0F7FE8046B8F1000F4E
:101CB0001ED1144F3D46AD1D2846FFF7AFFF064627
:101CC000AEB10F480462AA78291DC630FDF722FC88
:101CD000384680780A49A1F8C4000846B0F8C40024
:101CE0003946C97840EA01200549A1F8C400646872
:101CF00000BF0EB9002CCAD13046BDE8F08100000B
:101D0000E487002088AD00202DE9F041002700265F
:101D10001448406A406818B11248406A47681EE09B
:101D2000114CA0460F48B0F8C4500AE0207848286B
:101D300004D16078412801D1012602E0641C681EAC
:101D400085B20EB9002DF1DC002D07DD012E05D185
:101D500027460449486A21460CF01CF800BF384663
:101D6000BDE8F081E487002088AD0020014840787C
:101D700070470000E48700201CB504460020009056
:101D800001900548006830B100230222194602483C
:101D9000006814F00BF91CBDEC27002008B50948B9
:101DA000002301220A21009007A014F017FB074925
:101DB00008600846006820B900BF0420FFF7CBFD8B
:101DC00000BF08BD791D020041504C00F4270020DF
:101DD00038B500240C48006814F07EFB044694B922
:101DE00014F064F90546022000232A4601210090E0
:101DF0000548006814F03AFB012804D000BF042015
:101E0000FFF7A9FD00BF38BDF427002008B5022068
:101E100000231A46032100900248006814F026FBB4
:101E200008BD0000F42700202DE9F04107461548C1
:101E3000406A4468002600250CB31248846220469C
:101E400000F0B4F9204600F01FF9204600F042F9F6
:101E50000C48B0F8C00010B1204600F077F92568B2
:101E60000BE02878542807D168784D2804D1012642
:101E700004486968816100E06D1C002EF1D0BDE866
:101E8000F0810000E48700202DE9F04180462D48D4
:101E9000406B466800270025002E50D035684CE086
:101EA0002878552848D16878492845D16C1D0127E4
:101EB0007E2124483C30FDF746FB29792148C18723
:101EC000002033E034F8022B00EB40031D4942317F
:101ED00021F8232034F8022B00EB400301EB8301AF
:101EE0004A8034F8022B00EB40031649423101EBE3
:101EF00083018A8034F8022B00EB40031149423100
:101F000001EB8301CA8034F8022B00EB40030D493A
:101F1000423101EB83010A8134F8022B00EB4003CC
:101F20000849423101EB83014A81401C0549B1F95E
:101F30003E108142C6DC00E06D1C002FB0D0BDE831
:101F4000F0810000E48700203EB500250424002035
:101F500001900290FFF7D8FE05462846FFF764FF80
:101F600001A80FF032F80446002C28D19DF9060094
:101F700000909DF905309DF9042012A10020FEF784
:101F800094F81648407E8DF805001448807E8DF840
:101F9000060000208DF8040001A80FF0B4F80446F4
:101FA0006CB99DF9060000909DF905309DF904205B
:101FB00004A10020FEF779F80120084908702046A6
:101FC0003EBD0000532025303258204D20253032B0
:101FD00058204820253032580D0A0000E4870020A0
:101FE00010B54FF6FF740C49C86A00210BF0F5FEDE
:101FF000044609E014B120460BF08EFF0649C86A7A
:1020000021460BF0EAFE0446002CF3D100200249E1
:1020100081F8BC0010BD0000E487002010B500F07E
:1020200021FB10BD10B504461448006820B30023FE
:10203000012219461148006813F0C4FC01281BD185
:10204000207B0F490870607B4870A07A801E8870E2
:102050006089821E04F10E010948C01CFDF75AFA7E
:1020600001200849087000231A46194603480068F1
:1020700013F0C4FD00F068F910BD0000E427002053
:10208000C0880020F027002070B501460023002002
:10209000E1B10024002208680446628812E0057855
:1020A000532D0CD145784E2D09D1012305790DB161
:1020B000012500E00025064E86F8BA5002E0401CDB
:1020C000551EAAB20BB9002AE9DC00BF70BD0000A2
:1020D000E48700202DE9F041054600240626002D66
:1020E00030D0A04600272C68A046B8F8027024E043
:1020F0002078502802D16078482811D020784D28C7
:1021000002D1607848280BD020785A2802D1607814
:10211000482805D020784C280CD16078482809D16F
:10212000062E01D108480463761E0749C86A214675
:102130000BF030FE641C781E87B2002E01D9002FF0
:10214000D6DC00BFBDE8F081E48700202DE9F04136
:102150000546002403262DB3A04600272C68A04680
:10216000B8F8027019E02078552813D16078482813
:1021700010D1032E05D10C48846301200A4981F84F
:10218000BD00761E0849486B21460BF003FE204631
:10219000FFF77AFE641C781E87B2002E01D9002F4B
:1021A000E1DC00BFBDE8F081E487002010B5014606
:1021B0000022002039B308680CE00378572B08D1BF
:1021C0004378442B05D1012203790F4CA4F8C03089
:1021D00000E0401C002AF0D0012A14D10A4BB3F8C9
:1021E000C03083B108460CE00378572B08D1437800
:1021F000492B05D101220379034CA4F8BE3000E03D
:10220000401C002AF0D010BDE487002010B501204A
:10221000024981F8BC0000F097F810BDE487002067
:1022200010B54FF4807303A2044905480BF028FC55
:1022300010BD000041505054000000006523020012
:10224000EC27002070B504460EF04AFE054685B91D
:10225000012C0ED10949486A0BF0B0FD0749C86A44
:102260000BF0ACFD0549486B0BF0A8FD00200349BD
:10227000087000F015FA284670BD0000E4870020C1
:1022800010B5082009F0B0FF044624B100202060FA
:1022900060601148C461082009F0A6FF044624B11B
:1022A0000020206060600C484462082009F09CFF18
:1022B000044624B10020206060600748C462082002
:1022C00009F092FF044624B10020206060600248BB
:1022D000446300F003F810BDE48700202DE9F041CD
:1022E000082009F081FF8046002400257F2614493C
:1022F000C8690BF063FD00BF4FF480511148FDF732
:1023000022F94FF4805221460E480FF0C5FB0746D4
:1023100087B90C480078412809D10A4840784828F4
:1023200005D10749C86921460BF034FD6D1C761EA6
:1023300004F58054082D01DA002EDDDCBDE8F081C3
:10234000E487002088AD002010B50548006830B152
:102350000023022219460248006813F027FE10BD30
:10236000EC27002008B5FFF78BFF012013F0E0FAFF
:10237000624908600846006820B900BF0420FFF7E2
:10238000EAFA00BF00F054F9FFF708FD5C480021AD
:10239000016041600181AFE04FF0FF31012012F098
:1023A000C1F9584890F8BC0001280AD15549487035
:1023B000FFF716FE534890F8BD00012801D1FFF742
:1023C0002DFE5048407801281AD103200BF0AEFBB7
:1023D000054605F116042088B0F57A7F07D14948F3
:1023E00090F8BA00012802D1464981F8BB00208844
:1023F00041F28831884202D10120FFF723FF00BF5C
:102400003F480078012839D100203F4908714871C0
:102410003B48418800223C4803F0E6FA064638482B
:102420008088B04229D108200BF080FB0446207A36
:1024300000030090324842883348009911F012F9A5
:102440000746CFB90C2009F0CFFE05469DB1207A92
:10245000401C20720AA8286029484088A88000985B
:10246000A8602848C0692060294620680BF092FCCB
:1024700000202349087000BF00BF00BF2348007838
:10248000012839D11D480068B0B300230122194644
:102490001A48006813F096FA01282DD100201B4934
:1024A00008701B48007850B900240120FFF7CAFECD
:1024B000FFF7E2FB04460CB1FFF746FD15E01448B8
:1024C0000078012804D112494878FFF7D3FB0CE0CB
:1024D0000F480078022808D10D49497809B1012137
:1024E00000E000210846FFF7ADFE00231A4619461A
:1024F0000248006813F082FB4EE70000E42700204A
:10250000D4880020E4870020889D0020F027002048
:10251000C08800201CB504460020009001903F4870
:102520000068401C3D49086068460EF0CFFABDF9CE
:1025300000103B4890F8400000EB40023848423021
:1025400030F92200814220DBBDF90210344890F8B6
:10255000400000EB40023248423000EB8200B0F90C
:102560000200814211DBBDF904102D4890F84000B3
:1025700000EB40022A48423000EB8200B0F9040030
:10258000814202DB012027490870BDF90010244870
:1025900090F8400000EB40022148423000EB8200FE
:1025A000B0F90600814220DBBDF902101C4890F80A
:1025B000400000EB40021A48423000EB8200B0F9C4
:1025C0000800814211DBBDF90410154890F8400065
:1025D00000EB40021248423000EB8200B0F90A00E2
:1025E000814202DB0120104908700E480078012862
:1025F00013D10D48007801280FD10948C08F401E23
:1026000001B20748C1870948006830B1002302229F
:1026100019460648006813F0C9FC1CBDFC270020C1
:10262000E4870020F8270020F9270020EC2700206D
:1026300008B50948002301229102009007A013F079
:10264000CDFE074908600846006820B900BF042095
:10265000FFF781F900BF08BD1525020053544D0056
:10266000E827002038B500240C48006813F034FF38
:10267000044694B913F01AFD0546022000232A46A9
:10268000012100900548006813F0F0FE012804D0F5
:1026900000BF0420FFF75FF900BF38BDE827002026
:1026A00008B5022000231A46032100900248006862
:1026B00013F0DCFE08BD0000E827002038B513F059
:1026C000F5FC044602200023224601210090064822
:1026D000006813F0CBFE012804D000BF0420FFF7F0
:1026E0003AF900BF38BD00003828002070B5044614
:1026F0000D462646FFF76CFB1948408878B9A01CA8
:102700000188174A5180801C0188918071881422A9
:1027100091FBF2F1491D09B2114A118100BF104924
:10272000C988104A88182A462146FCF7F3FE0C484F
:10273000C08828440A49C880142D0ED2FFF766FBD2
:102740000948006848B101200549087000230222A9
:1027500019460548006813F029FC002070BD0000F0
:10276000D4880020889D0020EC27002070B5054605
:102770000C462068401C28B1206809F0D9F8206870
:1027800009F031F86068401C18B10021606809F058
:102790001DF828792D4901EB4010007F50B32868BF
:1027A000A169C0F8241500BF617D227D286841EA37
:1027B0000203C0F86C3500BFD4E90012286809F0A4
:1027C000B0FE207D01283FD1A068401C18B1002137
:1027D000A06808F0FBFFE068401C28B1E06809F041
:1027E000A7F8E06808F0FFFFD4E90221286809F0A3
:1027F00084FE29E02868A169C0F8241500BF617D26
:10280000227D286841EA0203C0F86C3500BFD4E994
:102810000012286809F058FE207D012814D1A06814
:10282000401C18B10021A06808F0D0FFE068401CEF
:1028300028B1E06809F07CF8E06808F0D4FFD4E93A
:102840000221286809F029FE70BD0000EC6100201B
:1028500030B5A3B01348007800F0CCFF05462846F9
:102860000EF028FED8B101A800F024FF442201A9EF
:1028700012A8FCF74FFE00240DE013A931F8140054
:102880000849097800F0C4FF20B113A931F81400F9
:1028900005F0E2FD641C1298A042EED800BF23B000
:1028A00030BD00001627002010B592B00020019026
:1028B00000BF9DF8040020F00F00401C8DF80400BC
:1028C0009DF8040020F0F00010308DF8040000BFE7
:1028D00000BF9DF8050020F00F00401C8DF805009A
:1028E0009DF8050020F0F00010308DF8050000BFC5
:1028F0009DF8060020F00100401C8DF806009DF8B0
:10290000060020F00600801C8DF806001C210AA895
:10291000FCF719FE00200290039004208DF80800B7
:102920004FF41C50ADF80A009DF8280020F040003C
:1029300040308DF828009DF8280020F0080008306D
:102940008DF828009DF8280020F00200801C8DF8EA
:1029500028009DF8280020F0100010308DF8280085
:102960003D4800680B903C480068FCF7F7FD80B2DA
:10297000ADF8320038480068FCF7F0FD80B2ADF8E1
:10298000300002A80D9001A80F9000201090049034
:1029900000BF9DF8100020F00F00401C8DF81000C3
:1029A0009DF8100020F0F00010308DF8100000BFEE
:1029B00000BF9DF8110020F00F00401C8DF81100A1
:1029C0009DF8110020F0F00010308DF8110000BFCC
:1029D0009DF8120020F00600801C8DF812009DF872
:1029E000120020F008008DF812009DF8120020F06F
:1029F00010008DF812009DF8120020F00100401C1C
:102A00008DF81200142105A8FCF79DFD00BF0120E0
:102A10008DF8460045F20100ADF8440000BF11A852
:102A2000059004A806901420ADF81C000020ADF815
:102A30001E001420ADF82000002009900749096805
:102A4000088A06490B68083305AA0AA9A2DF0446CA
:102A5000204612B010BD0000E8280020F428002015
:102A600010B592B007240020019000BF9DF804002B
:102A700020F00F00401C8DF804009DF8040020F0A9
:102A8000F00010308DF8040000BF00BF9DF8050075
:102A900020F00F00401C8DF805009DF8050020F087
:102AA000F00010308DF8050000BF9DF8060020F002
:102AB0000100401C8DF806009DF8060020F006007D
:102AC000801C8DF806001C210AA8FCF73CFD0020A4
:102AD0000290039004208DF808004FF41C50ADF8CC
:102AE0000A0002A80D909DF8280020F04000403018
:102AF0008DF828009DF8280020F0080008308DF897
:102B000028009DF8280020F00200801C8DF8280085
:102B10009DF8280020F0100010308DF828003B4868
:102B200000680B9039480068FCF718FD80B2ADF8DA
:102B3000320036480068FCF711FD80B2ADF8300075
:102B400001A80F9000BF01208DF8460045F2020059
:102B5000ADF8440000BF0020049000BF9DF81000B5
:102B600020F00F00401C8DF810009DF8100020F0A0
:102B7000F00010308DF8100000BF00BF9DF811006C
:102B800020F00F00401C8DF811009DF8110020F07E
:102B9000F00010308DF8110000BF9DF8120020F0F9
:102BA0000600801C8DF812009DF8120020F008002D
:102BB0008DF812009DF8120020F010008DF8120020
:102BC0009DF8120020F00100401C8DF81200142125
:102BD00005A8FCF7B8FC11A8059004A806901420DD
:102BE000ADF81C000020ADF81E001420ADF8200048
:102BF0000020099006490968088A054905AA0B685A
:102C00000AA9A2DF0446204612B010BDE428002025
:102C1000F428002010B504462088102804D011287C
:102C200007D050280FD10AE0A088084909684882D7
:102C30000AE04FF6FF7005490968488204E0204623
:102C40000AF0E8F800E000BF00BF10BDF428002043
:102C50001CB504240020009002208DF806004FF6D9
:102C6000FF701649096848821A211548FCF76BFC69
:102C7000144800210160017100200190694612484A
:102C800062DF04460CB120461CBD4FF4A040ADF8F5
:102C900004009DF800008DF8060008480268103214
:102CA00001A90120A0DF044614B9FFF7FDFD044689
:102CB00014B9FFF7D5FE04462046E5E7F4280020C6
:102CC0009C8A0020EC2800204867030010B50446C9
:102CD000637903F003022179208805F047FB10BDDA
:102CE00010B50446207918B9204600F007F803E033
:102CF0002046FFF7EBFF00BF00BF10BD2DE9F041FC
:102D000088B004460025208800F046FD074620884C
:102D100004F030FE0646A0680790607A069020888E
:102D200000222349097800F087FD17B908B0BDE8F3
:102D3000F0816079C0F3800090B1072130460BF03C
:102D40000DFC0546BDB108208DF800002088ADF8C7
:102D50000200ADF804600295684603F001F90AE04C
:102D600020881449097800F053FD20B1304604F062
:102D7000EBFD804600BF03208DF80C002088ADF8E5
:102D80000E006079C0F380008DF81000A079C0F3C8
:102D900080018DF811109DF81C108DF812109DF80F
:102DA00018108DF8131003A803F0DAF800BFBDE780
:102DB000562700205827002030B591B00446002542
:102DC0005520019060480068807ED0B300200990B3
:102DD00000BF9DF8240020F00F00401C8DF8240057
:102DE0009DF8240020F0F00010308DF8240000BF82
:102DF00000BF9DF8250020F00F00401C8DF8250035
:102E00009DF8250020F0F00010308DF8250000BF5F
:102E100000BF4E48007C20F00F00401C4B49087456
:102E20000846007C20F0F0001030087400BF207CC1
:102E30008DF825009DF8260020F00600801C8DF8F6
:102E400026001C210AA8FCF77EFB9DF8280020F034
:102E50000200801C8DF828009DF8280020F010004A
:102E600010308DF8280000200B900D900E9009A8CE
:102E70000F900020109000BF01208DF80E0042F648
:102E80001920ADF80C0000BF0020029000BF2F48B1
:102E9000407C20F00F00401C2C4948740846407CC0
:102EA00020F0F0001030487400BF00BF0846807C5E
:102EB00020F00F00401C88740846807C20F0F00051
:102EC0001030887400BF607C8DF80800A07C8DF8FD
:102ED00009009DF80A0020F00600801C8DF80A0009
:102EE0009DF80A0020F008008DF80A009DF80A00FD
:102EF00020F010008DF80A009DF80A0020F0010073
:102F00008DF80A00207B0190142104A8FCF71BFB1C
:102F100003A8049002A805900220ADF81800002034
:102F2000ADF81A000220ADF81C0001A8089006496F
:102F30000968888804490B689B1D04AA0AA9A2DFB6
:102F40000546284611B030BD60280020F8890020D1
:102F500010B503F0EBFF06490968486104480068B2
:102F600004A3E9224169092005F0A0FE10BD00007C
:102F7000602800202E2E5C2E2E5C2E2E5C5061765A
:102F80006C6F6B5F53657276696365735C626C65C9
:102F90005F6261732E63000008B5094800230122B7
:102FA0000849009008A013F019FA0949086008467A
:102FB000006820B900BF0420FEF7CDFC00BF08BDAB
:102FC0005D34020020BF0200424154540000000062
:102FD0006828002038B513F069F804460220002361
:102FE0002246012100900648006813F03FFA0128AC
:102FF00004D000BF0420FEF7AEFC00BF38BD0000C7
:10300000682800202DE9F04192B080460D461F202F
:1030100011901090B8F1000F17D04046FEF779FBE1
:10302000044600BF1CB1204612B0BDE8F08100BFCD
:1030300011AA08A94046FEF77DFA044600BF0CB16C
:103040002046F1E700BF08AE02E000260020119004
:10305000ADB1284610F015FC044600BF0CB1204667
:10306000E2E700BF10AA69462846FEF763FA044665
:1030700000BF0CB12046D7E700BF6F4602E0002733
:1030800000201090BDF84000C3B2BDF84400C1B2AA
:103090003A46304672DFC7E72DE9F04704460F464F
:1030A00015461E46DDF8208004B115B90E20BDE896
:1030B000F087012049490870002049490870202202
:1030C00029464848FCF726FA002047490870474837
:1030D00006604748C0F800804FF6FF7045490880F9
:1030E000454800210160818081713C214348FCF703
:1030F0002AFA207841490870A0788870E078C87072
:10310000607848700846D4E90412C0E90412D4E992
:103110000212C0E90212D4E90612C0E90612606A7E
:10312000D8B137483549486236498160606A0088BD
:103130003249496A0880606A80883049496A8880D3
:10314000002005E0616A8968095C2E4A1154401C20
:103150002A49496A89888142F4D8A06A20B32A4959
:103160002A4881602549886227492448806A81600D
:10317000A06A80882149896A8880A06A00881F49DE
:10318000896A0880002005E0A16A8968095C1E4AF6
:103190001154401C1949896A89888142F4D894F8ED
:1031A0002C00164981F82C00206A58B118481349A0
:1031B0000862206A4088096A4880206A00880F49AE
:1031C000096A0880606810B10C4960684860394637
:1031D0000A48FFF717FF8146484668E7D8260020CF
:1031E000DB2600201C5B0020DC260020EC260020D3
:1031F000F0260020EA260020DD2600203C5B00208F
:10320000785B0020845B0020B05B0020A45B002082
:10321000E626002010B504462088102804D0112886
:1032200006D01B280CD107E0204609F097FA08E0E9
:10323000204609F04DFB04E0204609F035FC00E093
:1032400000BF00BF10BD000070B50546022D02D0C2
:10325000032D15D100E000BF0B48007878B10020A5
:10326000094908700948007800F040F8044634B174
:103270000748006818B1204605490968884700E0FA
:1032800000BF00BF70BD0000D9260020DB26002053
:10329000F026002010B574DF01200F4908700020CF
:1032A0000E49087006200E49C87000210C48FFF72F
:1032B000A9FE04460CB1204610BD0A48007800F073
:1032C00015F8044634B10848006818B1204606498C
:1032D000096888470020EFE7F4260020F626002042
:1032E0003C5B0020DB260020F02600207FB5054651
:1032F0004E48007810B9082004B070BD4C480570E5
:1033000003F0D8F920B101204A4908700020F3E702
:10331000494800210160818081714848407818B196
:103320004348007801280DD04448807818B14048BF
:103330000078012806D04148807888B13C48007860
:1033400002280DD13E48006838B101203D4908707F
:1033500008203B490968884702E000203949087085
:103360002846FEF79DF93249087035480068C0B11B
:1033700008460078032803D008460078042810D1B6
:103380002E48007868B13048007850B900202F49A5
:10339000087001202E4908700720294909688847CC
:1033A00002E000202A49087000200090019002905D
:1033B00003908DF800008DF808001D48007805285E
:1033C0001CD2DFE800F01703080D120068460FF06A
:1033D0000BF9044613E068460FF016F904460EE0B8
:1033E00068460FF027F9044609E068460FF052F9E5
:1033F000044604E000201749087000E000BF00BF49
:103400000B48007838B114480178684673DF0446E9
:103410000CB1204670E70A48006820B10D480078DA
:10342000074909688847002066E70000D826002081
:10343000DB260020D9260020DD2600201C5B002092
:10344000EC260020E4260020F4260020F6260020AA
:10345000F5260020DA260020DC26002030B587B0D3
:1034600005462B48006808B907B030BD28480068F9
:103470004069274909680969884246D0244800689C
:103480004069002841D00020059006900220ADF848
:1034900014000020ADF816001D4800681430069096
:1034A0001B48006840691A490968086118480068A3
:1034B000008B4FF6FF71884227D015480068807E48
:1034C00018B30AF0D9FA0446002001900290039044
:1034D00004900F4909680222486921460AF0E8FA77
:1034E0000B480068C088ADF8040001208DF8060084
:1034F000BDF81600ADF8080005A80390049404492F
:103500000968088B01A9A6DF00BF00BFACE7000077
:10351000602800202DE9F84307242548006800684A
:103520002449096808604FF6FF702249096808833A
:103530001F48006800791F490968887600201D49E6
:103540000968086100BF01208DF8020041F60F00F4
:10355000ADF8000000BF17480268121D694601203F
:10356000A0DF044614B12046BDE8F8831248FFF7F7
:1035700023FC0446022001210D4600221646134674
:1035800000BF4FF0A04C674641EA450C4CEA820C64
:103590004CEA062C4CEA034807F5E06C4CF8208016
:1035A00000BF00BFFFF7F8FCFFF714FD2046DBE784
:1035B0006428002060280020F889002010B5044607
:1035C00014B10F48006800B910BD2088102804D03D
:1035D000112807D050280FD10AE0A08808490968AF
:1035E00008830AE04FF6FF7005490968088304E084
:1035F000204609F09BFA00E000BF00BF00BFE3E7F0
:103600006028002070B505461C2229461248FBF7A9
:1036100081FF002011490870286850B110482968BE
:103620000A680260496841607ADF04463CB120467E
:1036300070BD0B487BDF04460CB12046F8E74FF61F
:10364000FF7008490880002007490870074A0021D8
:103650000748FEF79BF9EBE7D05B00200C27002022
:10366000F82600200227002000270020914A0300AE
:103670003065030010B504462088102806D01128B4
:1036800008D012280ED0502810D107E0204609F0AB
:1036900049F80CE0204609F0FBF808E0204609F064
:1036A0001FFA04E0204609F031F800E000BF00BF37
:1036B00010BD000010B504460348011D426C2046B1
:1036C0000DF074FF10BD00000C5C002010B5044626
:1036D00003482246016D001D0DF051FF10BD000092
:1036E0000C5C002010B5044603482246416D001DC5
:1036F0000DF045FF10BD00000C5C002070B50446C5
:103700002088102804D011281DD01A2840D11EE08E
:103710000DF07EFBA0880DF0F5F920B900BF042064
:10372000FEF719F90EE0E07B022801D1012000E04C
:1037300000200546A2882B461649A1F148000DF04D
:1037400056FF00BF24E0A0880DF084FB20E0207A23
:103750000121B1EB101F01DA012000E00020034637
:10376000A2880C49091DA1F14C000DF040FF207A00
:103770000221B1EB101F01DA012000E00020034616
:10378000A28804490831A1F150000DF030FF00BFBC
:1037900000BF70BD585C002070B5044600250B4882
:1037A0002246416C001D0DF0EAFE60B1074822463A
:1037B000C16C001D0DF0E3FE06460EB1022000E0D4
:1037C0000120054600BF284670BD00000C5C0020AB
:1037D00010B500240AE0204611F0ACF920B92046CB
:1037E00011F09EF9204610BD601CC4B2182CF2DB0B
:1037F0001820F8E710B50446204611F09BF918B1DF
:10380000024850F8240010BD0020FCE7645C002052
:1038100070B505460C46204611F08CF938B10548C4
:1038200050F824102A4654380DF0A9FE70BD00202F
:10383000FCE70000645C002070B505460C461646A7
:10384000204611F077F938B1044800EB8401334683
:103850002A4654380DF0CBFE70BD0000645C002099
:103860002DE9FC4105460C46174620880930B84230
:1038700002D90C20BDE8FC8168466DDF064600BF1A
:103880000EB13046F6E700BF082021886854208832
:10389000401C20801B20218868542088401C2080E8
:1038A00020882844DDF801100160BDF805108180F2
:1038B0002088801D20809DF80000400818B9002055
:1038C0002188685402E00120218868542088401C27
:1038D00020800020CEE7000030B587B0774C072568
:1038E000774903C9CDE9040104A8A06300BF012002
:1038F0008DF81A0041F60A00ADF8180000BF714AB1
:1039000006A90120A0DF0546002D44D14021204614
:10391000FBF719FE6CA1204600F06CF973A104F1CD
:10392000080000F067F974A104F1100000F062F9DA
:1039300073A104F1180000F05DF974A104F12000F6
:1039400000F058F974A104F1280000F053F900BF09
:10395000204690F83C0020F00F00401C214681F8E2
:103960003C00084690F83C0020F0F000103081F850
:103970003C0000BF00BF084690F83D0020F00F015A
:10398000204680F83D1090F83D0020F0F0012046E0
:1039900080F83D1000BF6DB9208800280ADD60481E
:1039A0000090228804F13C0342F62920616801F06E
:1039B000E9FC05466DB9208900280ADD59480090C8
:1039C000228904F13C0342F62420E16801F0DAFC8C
:1039D00005466DB9208A00280ADD53480090228AE6
:1039E00004F13C0342F62520616901F0CBFC054659
:1039F0006DB9208B00280ADD4C480090228B04F121
:103A00003C0342F62720E16901F0BCFC05466DB994
:103A1000208C00280ADD46480090228C04F13C03EB
:103A200042F62620616A01F0ADFC05466DB9208D95
:103A300000280ADD3F480090228D04F13C0342F645
:103A40002820E16A01F09EFC05468DB9206B78B113
:103A500002A8216B0FF093FF374804F13C030822C2
:103A600002A9009042F6232001F08CFC054600BF1D
:103A70006DB9606B58B131480090606B027904F108
:103A80003C03016842F62A2001F07CFC05468DB912
:103A9000A06B78B102A8A16B0CF050F8284804F193
:103AA0003C03072202A9009042F6502001F06AFC74
:103AB000054600BF002007B030BD00000C8A002082
:103AC00064670300B42800204265686176696F72FC
:103AD000616C20546563686E6F6C6F677920477204
:103AE0006F75702C20496E632E0000005061766C5B
:103AF0006F6B2D53000000005320554E4B0000000B
:103B00003035323738312D39420000005320414CD6
:103B10005048412034000000563A332E3500000052
:103B20006C280020742800207C2800208428002095
:103B30008C280020942800209C280020A428002005
:103B4000AC28002010B504462046FFF7D7FD2046DC
:103B50000BF0A0FD2046FFF731FD2046FFF78AFD60
:103B6000204600F007FA204608F00EFD2046FFF739
:103B700051FB21460A4806F0F7FC20460FF0F2FA06
:103B8000204600F0EDFF204606F0D4FA204604F06F
:103B900013FF204610F0DCF92046FFF73BF810BD7C
:103BA0007089002008B50020009069460F48006821
:103BB00012F00DF90098B0B100BF4FF080500C49E1
:103BC000086040BF00BF00BF00BFBFF34F8F00BF02
:103BD00000BF00BF00BF00BF00BFBFF36F8F00BFBB
:103BE00000BF00BF00BF002008BD00002C2800203F
:103BF00004ED00E070B504460D462846FBF7AEFC28
:103C00002080656070BD70B50446204610F06DFDE3
:103C1000054605F0010070BD70B586B049480068E2
:103C2000059000BF484B5022484905A80FF09CF86A
:103C3000054600BF2E4626B100BF3046FDF78BFE7D
:103C400000BF00BF00BF0020049004A80EF0ECFFEE
:103C5000044600BF254625B100BF2846FDF77BFE80
:103C600000BF00BF002001900290039001900290DD
:103C7000039001208DF8040001A9049A69DF04462D
:103C800000BF254625B100BF2846FDF764FE00BFF2
:103C900000BF00200190029003904FF4406001901B
:103CA00001A9A120049A69DF044600BF254625B179
:103CB00000BF2846FDF74FFE00BF00BF0020019067
:103CC0000290039001208DF8040000208DF805007B
:103CD0008DF8060001A94020049A69DF044600BF60
:103CE000254625B100BF2846FDF735FE00BF00BFC1
:103CF00004A80EF0AFFF044600BF254625B100BF63
:103D00002846FDF728FE00BF00BF11480EF096FFC1
:103D1000044600BF254625B100BF2846FDF71BFE1F
:103D200000BF00BF0B480FF075F8044600BF2546E2
:103D300025B100BF2846FDF70EFE00BF00BF06B04C
:103D400070BD000058670300A53B02008C8900206D
:103D5000453B02006D39030008B50FF057FE684679
:103D600000F0C4FC04F005FFFFF756FF02F0ECFD85
:103D700002F064FE0EF0CAFBFDF7FEFC01F06CFDE4
:103D80000AF05EFFFEF79AFC9DF80000FDF730FD9B
:103D90000BE000BF00235A1E19460448006811F0CA
:103DA00011FE0028F6D003F0D7FEF2E72C28002001
:103DB0001CB504466A4601A9204603F085F9064869
:103DC000019950F821000121009A9140884302494D
:103DD000019A41F822001CBDF88000201CB5044661
:103DE0006A4601A9204603F06FF90648019950F888
:103DF00021000121009A914008430249019A41F8AB
:103E000022001CBDF880002001460148405C70473C
:103E10002965030010B50146094B585C00BF4FF0FF
:103E2000A044234600BFD3F81045C44004F0010469
:103E30000CB1012000E00020024682F0010010BD1C
:103E40002965030010B502460949885C00BF4FF0A0
:103E5000A0442146D1F80435012484409C43C1F894
:103E60000845012484401C40C1F80C4500BF10BD2A
:103E70002465030010B504460249085D012107F0DE
:103E800099FD10BD2465030010B504460249085D84
:103E9000002107F08FFD10BD2465030010B5014619
:103EA000094B585C00BF4FF0A044234600BFD3F835
:103EB0000445C44004F001040CB1012000E00020DE
:103EC000024682F0010010BD246503007CB5002489
:103ED0000CE00948055D00200090034601221146D0
:103EE0000190284607F016FC00BF641C052CF0D397
:103EF00000F004F87CBD00002465030010B5002428
:103F000003E02046FFF7B6FF641C052CF9D310BD73
:103F100010B5002403E02046FFF7B6FF641C052C13
:103F2000F9D310BD02464FF0FF30002106E0054BEB
:103F30005B5C934201D1084602E0491C0029F6D09F
:103F400000BF70472965030070B505460C46002682
:103F50000648056014B120460FF0D8FC04480068FC
:103F600010B9FDF7DFFB0646304670BD6026002025
:103F70006426002070B505462888102802D0112834
:103F80002CD115E01748006860B901F003FD044624
:103F900000BF34B11448006818B1204612490968BE
:103FA000884700BF0F480068401C0E49086016E0B3
:103FB0000C480068401E0B4908600846006860B95C
:103FC000FDF7B0FB044600BF34B10748006818B1E4
:103FD000204605490968884700BF00E000BF00BFD0
:103FE00070BD0000642600206026002010B500206F
:103FF00000F0C0FA044600BF1CB1062C01D02046D8
:1040000010BD00BF012000F0B5FA044600BF1CB18E
:10401000062C01D02046F3E700BF0020F0E70000A7
:104020002DE9F04106460C46002500273046FFF7F3
:1040300079FF07463FB91CB1012C03D1162501E0D9
:10404000172500BF00BF35B10448006818B12846E5
:10405000024909688847BDE8F0810000DC2700209C
:1040600010B504462046FFF7D5FE10BD2DE9F041FE
:1040700006460A2E29D004DC042E29D0072E4DD165
:1040800037E0162E02D0172E48D102E000F0E0FAF9
:1040900045E0002700F0F8FA224908600846006869
:1040A00009F0BEFC0746032009F040FD054605F176
:1040B0001608B84606202870FDF758FE20B905F10D
:1040C0001401032009F0C2FE29E00EF033FB26E0C4
:1040D00013211548008876DF0446082C08D000BF5D
:1040E000254625B100BF2846FDF735FC00BF00BFBF
:1040F00015E00D4800884FF6FF7188420DD1FFF79B
:10410000C9F80446082C08D000BF254625B100BFD9
:104110002846FDF720FC00BF00BF00E000BF00BF45
:10412000BDE8F081402800202828002030B5034653
:1041300000201BBB012A07D1012903D103F10E0482
:10414000E4B200E00024224679B1012902D002291C
:1041500011D104E003EB4304094D2A550DE003EBB4
:104160004304074D2C44627007E003EB4304044D05
:104170002C44A27001E0072000BF00E0072030BD02
:10418000E027002070B5044600250548007800F0BF
:10419000010018B1204600F059F80546284670BDC8
:1041A000D42700202DE9F04105460F4600241E4883
:1041B00005601E48076005F00200F0B1002606E029
:1041C000012211463046FFF7B1FF0446761C0EB9B6
:1041D000002CF5D02CB9332201211548FDF766FBE0
:1041E000044614B9FDF74CFB04462CB9114A0021D2
:1041F0001148FDF7CBFB044600BF05F0010008B1F4
:10420000FFF764FE2CB90D4A00210D48FDF7BEFBF7
:1042100004462CB90B4A01210B48FDF7B7FB0446B5
:104220002046BDE8F0810000D4270020DC270020D4
:1042300040670300CD4602003C670300698002002E
:104240003467030073180200386703002DE9F0415A
:10425000044600260025C248007820B10020C0494D
:10426000087003F0EDFE182C77D2DFE804F00C1193
:10427000123E6A98C3D0D6F2F0EFEEEDECEBEAE92D
:10428000E8E7E6E5E4E303F0DBFEB648047063E14B
:1042900000BF0020FFF702FE58B10020FFF7EAFD43
:1042A000022C02D14FF4E16001E04FF47A60054640
:1042B00009E00020FFF7E8FD022C01D1C82001E051
:1042C0004FF4C8700546A74804704FF4FA7000EB2D
:1042D00085204FF47A71B0FBF1F700223946A248ED
:1042E0000068FDF78BFB064636E10020FFF7D6FDA0
:1042F00058B10020FFF7BEFD032C02D14FF44870E7
:1043000001E04FF47A60054609E00020FFF7BCFDAC
:10431000032C01D1C82001E04FF4C8700546914834
:1043200004704FF4FA7000EB85204FF47A71B0FB03
:10433000F1F7002239468C480068FDF75FFB06461E
:104340000AE10020FFF7AAFD60B10020FFF792FD0F
:10435000042C03D14FF47A6002E0FCE04FF47A6061
:1043600005460AE00020FFF78FFD042C02D14FF430
:10437000C87001E04FF4C87005467A4804704FF4E5
:10438000FA7000EB85204FF47A71B0FBF1F7002250
:10439000394675480068FDF731FB0646DCE0002031
:1043A000FFF77CFD50B10020FFF764FD052C01D123
:1043B000C82001E04FF47A60054609E00020FFF7CD
:1043C00063FD052C01D1C82001E04FF4C8700546FB
:1043D000644804704FF4FA7000EB85204FF47A7152
:1043E000B0FBF1F7002239465F480068FDF706FB95
:1043F0000646B1E00020FFF725FD5A480470002270
:10440000662159480068FDF7F9FA0646A4E0002045
:10441000FFF73AFD534804709EE0012050490870B0
:10442000FFF710FD002266214F480068FDF7E6FA0D
:10443000064691E08AE088E07CE073E06AE064E0B0
:1044400039E037E035E033E031E02BE01CE00EE00E
:10445000FFE7012042490870FFF7F4FC00224FF407
:10446000007141480068FDF7C9FA064674E0012072
:104470003B490870FFF7E6FC002266213A480068D5
:10448000FDF7BCFA064667E0012035490870FFF7E2
:10449000D9FC00224FF4007133480068FDF7AEFAF2
:1044A000064659E0FFF734FD2E48047054E000BF83
:1044B00000BF00BF00BF2D480068FDF715FB064692
:1044C000C4F11105D5B1CEB9012D10D9A8B2C821BA
:1044D00048434FF4FA7101EB8020490090FBF1F75B
:1044E0000022394621480068FDF788FA0646022076
:1044F000FFF7CAFC01201E49087005E00220FFF703
:10450000B9FC00201A49087026E003F099FD15480F
:10451000047021E003F094FD0020FFF7B5FC114882
:10452000047019E003F08CFD0120FFF7ADFC0D488D
:10453000047011E003F084FD0020FFF7A5FC0120CA
:10454000FFF7A2FC0748047006E000BFFFF7E0FC9D
:104550000448047000E000BF00BF3046BDE8F081B1
:10456000CD270020CC2700203467030038670300E4
:10457000D827002070B504462046FFF745FC0546C5
:10458000032107F079F9002070BD0246002901DA05
:10459000002003E013680B44136001207047000003
:1045A0002DE9FC4704460D46641C0127B84600204F
:1045B000019001A8FDF7DEFA1C48006828601B483E
:1045C00000681A494968411A18488068401C461A10
:1045D00004EB0709B1451CD9C6B115480068009025
:1045E00014480068009960F39F2100910F48009AD9
:1045F00000680E490968491C0C4B19601946896806
:10460000084003F10C0141F8202000BF4FF00008E2
:1046100004E0064800682044044908609DF804004E
:10462000FDF7AEFA4046BDE8FC8700000C82002092
:1046300000670300B0270020044840680349096868
:10464000884201D1012070470020FCE70C82002045
:1046500038B5002400200A4908600A48006811F0B3
:104660003BFF04465CB911F021FD05460220002302
:104670002A46012100900348006811F0F7FE38BD7A
:104680003C2800203828002038B500240D48006858
:1046900011F022FF0446012C0FD1022000231A46FC
:1046A000032100900748006811F0E0FE012804D0C3
:1046B00000BF0420FDF74FF900BF034800686421E4
:1046C000484338BD382800203C28002010B5044657
:1046D00020780221FFF7A4FC10BD00000249096800
:1046E000491C014A116070473C280020F8B5054676
:1046F00012490220FFF756FD044600BF264626B1A8
:1047000000BF3046FDF727F900BF00BF6946002013
:10471000FFF71AFC044600BF264626B100BF30460C
:10472000FDF719F900BF00BF9DF80000022801D174
:10473000012000E000202870F8BD00006D4002005C
:1047400030B502460B4602210EE08C0042FA04F41A
:1047500004F00F00092802DD00F1370401E000F148
:104760003004C1F101055C550C1EA1F10101ECD131
:1047700030BD01468879012809D10879012806D180
:10478000488842F60212904201D101207047002071
:10479000FCE7000010B590B01C2108A8FAF7D3FE82
:1047A00000200090019004208DF800004FF41C5070
:1047B000ADF80200CDF82CD09DF8200020F040008C
:1047C00040308DF820009DF8200020F008000830CF
:1047D0008DF820009DF8200020F00200801C8DF84C
:1047E00020003B480068099039480068FAF7B6FE97
:1047F00080B2ADF82A0036480068FAF7AFFE80B202
:10480000ADF828000020029000BF9DF8080020F0BD
:104810000F00401C8DF808009DF8080020F0F00003
:1048200010308DF8080000BF00BF9DF8090020F08F
:104830000F00401C8DF809009DF8090020F0F000E1
:1048400010308DF8090000BF9DF80A0020F0060026
:10485000801C8DF80A009DF80A0020F008008DF8F1
:104860000A009DF80A0020F010008DF80A009DF85B
:104870000A0020F00100401C8DF80A00142103A852
:10488000FAF761FE00BF01208DF83E0041F20800FA
:10489000ADF83C0000BF0FA8039002A804900720C9
:1048A000ADF814000020ADF816000720ADF8180090
:1048B0000020079007490968B1F8400005490B68D6
:1048C000383303AA08A9A2DF0446204610B010BD61
:1048D000D0280020DC28002010B590B01C2108A8AA
:1048E000FAF731FE00200090019004208DF80000BE
:1048F0004FF41C50ADF80200CDF82CD09DF82000EC
:1049000020F0400040308DF820009DF8200020F07D
:10491000080008308DF820009DF8200020F00200EB
:10492000801C8DF820003B480068099039480068D9
:10493000FAF714FE80B2ADF82A0036480068FAF79C
:104940000DFE80B2ADF828000020029000BF9DF857
:10495000080020F00F00401C8DF808009DF80800AA
:1049600020F0F00010308DF8080000BF00BF9DF867
:10497000090020F00F00401C8DF809009DF8090087
:1049800020F0F00010308DF8090000BF9DF80A00FB
:1049900020F00600801C8DF80A009DF80A0020F027
:1049A00008008DF80A009DF80A0020F010008DF82C
:1049B0000A009DF80A0020F00100401C8DF80A0052
:1049C000142103A8FAF7BFFD00BF01208DF83E00B7
:1049D00041F20600ADF83C0000BF0FA8039002A80A
:1049E00004900120ADF814000020ADF8160001205D
:1049F000ADF818000020079007490968B1F8400099
:104A000005490B68283303AA08A9A2DF04462046FB
:104A100010B010BDC8280020DC28002010B590B0D0
:104A20001C2108A8FAF78FFD0020009001900420B7
:104A30008DF800004FF41C50ADF80200CDF82CD0DA
:104A40009DF8200020F0400040308DF820009DF8B7
:104A5000200020F0080008308DF820009DF820008C
:104A600020F00200801C8DF820003B48006809906F
:104A700039480068FAF772FD80B2ADF82A0036486E
:104A80000068FAF76BFD80B2ADF8280000200290B4
:104A900000BF9DF8080020F00F00401C8DF80800B2
:104AA0009DF8080020F0F00010308DF8080000BFDD
:104AB00000BF9DF8090020F00F00401C8DF8090090
:104AC0009DF8090020F0F00010308DF8090000BFBB
:104AD0009DF80A0020F00600801C8DF80A009DF861
:104AE0000A0020F008008DF80A009DF80A0020F066
:104AF00010008DF80A009DF80A0020F00100401C0B
:104B00008DF80A00142103A8FAF71DFD00BF01204B
:104B10008DF83E0041F20400ADF83C0000BF0FA844
:104B2000039002A804900520ADF814000020ADF811
:104B300016000520ADF81800002007900749096805
:104B4000B1F8400005490B68183303AA08A9A2DF91
:104B50000446204610B010BDC4280020DC280020E8
:104B600010B504462088102804D0112808D05028F9
:104B700011D10CE0A08809490968A1F842000BE0B6
:104B80004FF6FF7005490968A1F8420004E020468D
:104B900007F0F0FF00E000BF00BF10BDDC280020E0
:104BA00010B590B01C2108A8FAF7CDFC00200090A9
:104BB000019004208DF800004FF41C50ADF8020065
:104BC000CDF82CD09DF8200020F0400040308DF82A
:104BD00020009DF8200020F0080008308DF820000B
:104BE0009DF8200020F00200801C8DF820003B483A
:104BF0000068099039480068FAF7B0FC80B2ADF857
:104C00002A0036480068FAF7A9FC80B2ADF82800FF
:104C10000020029000BF9DF8080020F00F00401C0B
:104C20008DF808009DF8080020F0F00010308DF895
:104C3000080000BF00BF9DF8090020F00F00401CD5
:104C40008DF809009DF8090020F0F00010308DF873
:104C5000090000BF9DF80A0020F00600801C8DF8B6
:104C60000A009DF80A0020F008008DF80A009DF85F
:104C70000A0020F010008DF80A009DF80A0020F0CC
:104C80000100401C8DF80A00142103A8FAF75BFC10
:104C900000BF01208DF83E0041F20200ADF83C005B
:104CA00000BF0FA8039002A804900520ADF81400DF
:104CB0000020ADF816000520ADF818000020079080
:104CC00007490968B1F8400005490B68083303AA91
:104CD00008A9A2DF0446204610B010BDBC28002061
:104CE000DC28002070B586B0044607254A480068D5
:104CF000B0F842004FF6FF7188427DD0002001904D
:104D0000009002900390049005905CB943480068BD
:104D1000401C0190404800680088ADF8080005205C
:104D200000904AE0012C0BD13C480068801D0190A6
:104D3000394800680089ADF80800052000903CE083
:104D4000022C0BD1354800680B30019032480068C6
:104D5000008AADF80800022000902EE0032C0BD151
:104D60002E4800680D3001902B480068008BADF88C
:104D700008000520009020E0052C0BD12748006892
:104D80001230019024480068008DADF80800022020
:104D9000009012E0042C0BD12048006818300190DC
:104DA0001D480068008CADF808000720009004E062
